:020000040800F2
:10000000D0090020A50A0008050B0008050B000810
:10001000050B0008050B0008050B00080000000098
:10002000000000000000000000000000050B0008B8
:10003000050B000800000000050B0008050B000878
:10004000050B0008050B0008050B0008050B000850
:10005000050B0008050B0008050B0008050B000840
:10006000050B0008050B0008050B0008050B000830
:10007000050B0008050B0008050B0008050B000820
:10008000050B0008050B0008050B00080000000028
:10009000000000000000000000000000050B000848
:1000A000050B00087D230008050B000895250008B6
:1000B000A1220008050B0008B1220008050B00086A
:1000C000050B0008050B0008050B0008050B0008D0
:1000D000050B000859240008050B0008212500081D
:1000E000050B0008050B0008050B000800000000C8
:1000F0000000000000000000000000000000000000
:1001000000000000000000000000000000000000EF
:100110000000000000000000DD2200081923000894
:100120005FF808F180B485B000AF786039600023D3
:10013000FB817B681B88FB817A682E4B9A4213D027
:100140007A682D4B9A420FD07B68B3F1804F0BD069
:100150007A682A4B9A4207D07A68294B9A4203D090
:100160007A68284B9A4208D1FB8923F07003FB81FF
:100170003B685A88FB891343FB817A68224B9A4279
:100180000CD07A68214B9A4208D0FB8923F4407343
:10019000FB813B68DA88FB891343FB817B68FA8922
:1001A0001A803B689A887B689A853B681A887B68C6
:1001B0001A857A680F4B9A420FD07A680E4B9A4292
:1001C0000BD07A68124B9A4207D07A68114B9A4248
:1001D00003D07A68104B9A4204D13B681B7A1A46C6
:1001E0007B681A867B6801229A821437BD465DF8C7
:1001F000047B7047002C01400034014000040040A3
:1002000000080040000C00400010004000140040B6
:1002100000400140004401400048014080B485B0E6
:1002200000AF7860396000237B810023FB810023CD
:10023000BB817B681B8C9BB223F480739AB27B6872
:100240001A847B681B8CFB817B689B88BB817B68E5
:100250009B8B7B817B8923F070037B817B8923F0DF
:1002600003037B813B681A887B8913437B81FB896D
:1002700023F40073FB813B681B891B029AB2FB8944
:100280001343FB813B685B881B029AB2FB891343D3
:10029000FB817A68224B9A4203D07A68214B9A42BA
:1002A0002BD1FB8923F40063FB813B685B891B0234
:1002B0009AB2FB891343FB81FB8923F48063FB81A2
:1002C0003B689B881B029AB2FB891343FB81BB8965
:1002D00023F48053BB81BB8923F40053BB813B686B
:1002E0009B891B019AB2BB891343BB813B68DB89A5
:1002F0001B019AB2BB891343BB817B68BA899A8080
:100300007B687A899A833B68DA887B689A877B68FE
:10031000FA891A841437BD465DF8047B704700BF24
:10032000002C01400034014080B582B000AF7860FD
:1003300039603B681B88002B0FD13B6859883B68AC
:100340009A883B681B89786800F0E8F93B68DB888D
:100350007868194600F0FCF836E03B681B88042BEF
:100360000FD13B6859883B689A883B681B8978683D
:1003700000F03EFA3B68DB887868194600F004F923
:1003800022E03B681B88082B0FD13B6859883B68EB
:100390009A883B681B89786800F09EFA3B68DB8886
:1003A0007868194600F00EF90EE03B6859883B6802
:1003B0009A883B681B89786800F0FEFA3B68DB8806
:1003C0007868194600F01AF90837BD4680BD00BFAD
:1003D00080B483B000AF78607B684FF6FF729A807C
:1003E0007B6800221A807B680022DA807B6800220A
:1003F0005A807B6800221A720C37BD465DF8047B78
:10040000704700BF80B483B000AF78607B68002283
:100410001A807B6800225A807B6801229A807B6860
:100420000022DA807B6800221A810C37BD465DF815
:10043000047B704780B483B000AF78600B46FB70DC
:10044000FB78002B08D07B681B889BB243F001032C
:100450009AB27B681A8007E07B681B889BB223F006
:1004600001039AB27B681A800C37BD465DF8047BA5
:10047000704700BF80B483B000AF786013460A466F
:100480007A807B707B78002B08D07B689B899AB23E
:100490007B8813439AB27B689A8109E07B689B89C9
:1004A0009AB27B88DB439BB213409AB27B689A81F5
:1004B0000C37BD465DF8047B704700BF80B483B045
:1004C00000AF78600B46FB70FB78002B08D07B6890
:1004D0001B889BB243F080039AB27B681A8007E0C6
:1004E0007B681B889BB223F080039AB27B681A80DA
:1004F0000C37BD465DF8047B704700BF80B485B003
:1005000000AF78600B467B800023FB817B689B8B70
:10051000FB81FB8923F00803FB81FA897B88134365
:10052000FB817B68FA899A831437BD465DF8047BAA
:10053000704700BF80B483B000AF78600B467B800B
:100540007B687A889A840C37BD465DF8047B7047D7
:1005500080B483B000AF78600B467B807B681B8BD8
:100560009BB223F00C039AB27B681A837B681B8BC7
:100570009AB27B8813439AB27B681A830C37BD46C4
:100580005DF8047B704700BF80B483B000AF786033
:100590000B467B807B681B8B9BB223F440639AB233
:1005A0007B681A837B681B8B9AB27B881B029BB289
:1005B00013439AB27B681A830C37BD465DF8047BFF
:1005C000704700BF80B483B000AF78600B467B807B
:1005D0007B689B8B9BB223F00C039AB27B689A8357
:1005E0007B689B8B9AB27B8813439AB27B689A8311
:1005F0000C37BD465DF8047B704700BF80B483B004
:1006000000AF78600B467B807B689B8B9BB223F4AA
:1006100040639AB27B689A837B689B8B9AB27B8893
:100620001B029BB213439AB27B689A830C37BD4678
:100630005DF8047B704700BF80B483B000AF786082
:100640007B689B8E9BB218460C37BD465DF8047BD9
:10065000704700BF80B483B000AF78607B68B3F8A8
:1006600040309BB218460C37BD465DF8047B70479E
:1006700080B485B000AF78600B467B800023FB73AD
:100680007B681B8A9AB27B8813409BB2002B02D0F6
:100690000123FB7301E00023FB73FB7B1846143737
:1006A000BD465DF8047B704780B485B000AF7860CC
:1006B0000B467B800023FB730023BB8100237B81DF
:1006C0007B681B8A9AB27B881340BB817B689B89BD
:1006D0009AB27B8813407B81BB89002B05D07B8934
:1006E000002B02D00123FB7301E00023FB73FB7B93
:1006F00018461437BD465DF8047B704780B483B05C
:1007000000AF78600B467B807B88DB439AB27B68C6
:100710001A820C37BD465DF8047B704780B487B001
:1007200000AFF86079813A81FB800023BB8200230F
:10073000FB82FB681B8C9BB223F001039AB2FB681F
:100740001A84FB681B8BBB82FB681B8CFB82BB8AF9
:1007500023F0F303BB82FB881B019AB23B8913434E
:100760009AB2BB8A1343BB82FA681C4B9A4213D0DD
:10077000FA681B4B9A420FD0FB68B3F1804F0BD045
:10078000FA68184B9A4207D0FA68174B9A4203D07E
:10079000FA68164B9A420BD1FB8A23F00203FB82C4
:1007A0007A89FB8A13439BB243F00103FB820AE080
:1007B000FB8A23F00A03FB827A89FB8A13439BB2EC
:1007C00043F00103FB82FB68BA8A1A83FB68FA8A4A
:1007D0001A841C37BD465DF8047B7047002C01402D
:1007E000003401400004004000080040000C0040BC
:1007F00080B487B000AFF86079813A81FB80002334
:10080000BB820023FB8200237B82FB681B8C9BB294
:1008100023F010039AB2FB681A84FB681B8BBB821F
:10082000FB681B8CFB827B891B017B82BB8A23F4C8
:1008300040731B051B0DBB82FB881B039AB2BB8A4E
:100840001343BB823B891B029AB2BB8A1343BB8210
:10085000FA681C4B9A4213D0FA681B4B9A420FD08D
:10086000FB68B3F1804F0BD0FA68184B9A4207D05F
:10087000FA68174B9A4203D0FA68164B9A420BD18A
:10088000FB8A23F02003FB827A8AFB8A13439BB204
:1008900043F01003FB820AE0FB8A23F0A003FB82F3
:1008A0007A89FB8A13439BB243F01003FB82FB68F7
:1008B000BA8A1A83FB68FA8A1A841C37BD465DF827
:1008C000047B7047002C01400034014000040040CC
:1008D00000080040000C004080B487B000AFF86012
:1008E00079813A81FB800023BB820023FB820023B5
:1008F0007B82FB681B8C9BB223F480739AB2FB68EB
:100900001A84FB689B8BBB82FB681B8CFB827B89F8
:100910001B027B82BB8A23F0F303BB82FB881B0193
:100920009AB23B8913439AB2BB8A1343BB82FA68DB
:100930001C4B9A4213D0FA681B4B9A420FD0FB68AB
:10094000B3F1804F0BD0FA68184B9A4207D0FA687F
:10095000174B9A4203D0FA68164B9A420BD1FB8A86
:1009600023F40073FB827A8AFB8A13439BB243F41D
:100970008073FB820AE0FB8A23F42063FB827A897E
:10098000FB8A13439BB243F48073FB82FB68BA8AF1
:100990009A83FB68FA8A1A841C37BD465DF8047B8B
:1009A000704700BF002C01400034014000040040AB
:1009B00000080040000C004080B487B000AFF86031
:1009C00079813A81FB800023BB820023FB820023D4
:1009D0007B82FB681B8C9BB223F480539AB2FB682A
:1009E0001A84FB689B8BBB82FB681B8CFB827B8918
:1009F0001B037B82BB8A23F440731B051B0DBB8248
:100A00003B891B029AB2BB8A1343BB82FB881B0340
:100A10009AB2BB8A1343BB82FA681D4B9A4213D029
:100A2000FA681C4B9A420FD0FB68B3F1804F0BD091
:100A3000FA68194B9A4207D0FA68184B9A4203D0C9
:100A4000FA68174B9A420BD1FB8A23F40053FB82BE
:100A50007A8AFB8A13439BB243F48053FB820CE0F7
:100A6000FB8A23F400735B045B0CFB827A89FB8AAC
:100A700013439BB243F48053FB82FB68BA8A9A8388
:100A8000FB68FA8A1A841C37BD465DF8047B704700
:100A9000002C0140003401400004004000080040E8
:100AA000000C004080B582B000AF114B7B60114B51
:100AB0003B6007E03B681A1D3A607A68111D796057
:100AC00012681A603A680C4B9A42F3D30B480C49EF
:100AD0004FF000028842B8BF40F8042BFFF6FAAF8F
:100AE00000F014F800F08EFE0837BD4680BD00BF50
:100AF000F4310008000000205C0400205C040020A9
:100B0000D005002080B400AFFEE700BF80B500AF85
:100B1000164B164A126842F001021A60134A134B30
:100B20005968134B0B405360104A104B1B6823F05D
:100B3000847323F4803313600C4B0C4A126822F444
:100B400080221A60094B094A526822F4FE025A6058
:100B5000064B4FF41F029A60044B0022DA6200F049
:100B60000BF8044B4FF000629A6080BD0010024009
:100B70000000FFF800ED00E080B500AF00F002F8E3
:100B800080BD00BF80B483B000AF00237B60002332
:100B90003B60304B2F4A126842F480321A602D4B72
:100BA0001B6803F400333B607B6801337B603B6868
:100BB000002B03D17B68B3F5A06FF0D1254B1B68E8
:100BC00003F40033002B02D001233B6001E000233B
:100BD0003B603B68012B37D11E4B1E4A52685A605E
:100BE0001C4B1C4A52685A601A4B1A4A52685A6087
:100BF000184B184A526822F47C125A60154B154A59
:100C0000526842F498125A60124B124A126842F02B
:100C100080721A6000BF0F4B1B6803F00073002B3B
:100C2000F9D00C4B0B4A526822F003025A60094B70
:100C3000084A526842F002025A6000BF054B5B68E6
:100C400003F00C03082BF9D10C37BD465DF8047B8B
:100C5000704700BF0010024080B582B000AF102086
:100C6000012101F041F94FF44073BB801023FB7167
:100C70000323BB713B1D0348194600F0EBFC08370A
:100C8000BD4680BD0010014080B584B000AF022099
:100C9000012101F047F93B1D1846FFF799FB02239C
:100CA000BB8040F2E7333B813B1D03481946FFF709
:100CB00039FA1037BD4680BD0004004080B584B0CD
:100CC00000AF0420012101F02DF93B1D1846FFF76C
:100CD0007FFB41F2BF23BB807C233B813B1D0E4841
:100CE0001946FFF71FFA0C4801210122FFF7C2FB4A
:100CF0001E233B700123FB7001237B700123BB701B
:100D00003B46184601F0C2FC03480121FFF792FB65
:100D10001037BD4680BD00BF0008004080B584B0DC
:100D200000AF1020012101F0FDF83B1D1846FFF730
:100D30004FFBEF23BB8040F2F3133B813B1D0E487A
:100D40001946FFF7EFF936233B700123FB700123AF
:100D50007B700023BB703B46184601F097FC0648A9
:100D60000121FFF7CBFC044801210122FFF782FBA0
:100D70001037BD4680BD00BF0010004080B584B074
:100D800000AF2020012101F0CDF83B1D1846FFF7F0
:100D90001FFB1723BB8009233B813B1D0D481946D0
:100DA000FFF7C0F937233B700123FB7001237B70F1
:100DB0000023BB703B46184601F068FC0548012142
:100DC000FFF79CFC034801210122FFF753FB10377A
:100DD000BD4680BD0014004080B584B000AFFFF771
:100DE00053FF60233B8001237B800023FB80002393
:100DF0003B813B4609481946FFF710FA074808218E
:100E0000FFF77CFB05480121FFF758FB0348012150
:100E1000FFF710FB1037BD4680BD00BF0004004047
:100E200080B582B000AF0920012101F05DF80123F7
:100E3000BB801823FB710323BB713B1D1848194667
:100E400000F008FC4023BB801023FB713B1D1448BD
:100E5000194600F0FFFB1020012101F045F8102396
:100E6000BB800023FB713B1D0E48194600F0F2FBCE
:100E70004023BB804823FB713B1D0A48194600F004
:100E8000E9FB8023BB801023FB713B1D05481946FD
:100E900000F0E0FBFFF7A0FF0837BD4680BD00BFB4
:100EA000000C01400010014080B586B000AF042066
:100EB000012101F019F84FF48040012101F014F8EC
:100EC0004FF40073BB821823FB750323BB7507F136
:100ED00014031D48194600F0BDFB4FF48063BB822C
:100EE0000423FB7507F114031748194600F0B2FB01
:100EF0004FF4E1337B6000233B8100237B8100239F
:100F0000BB8100233B820C23FB813B1D0F4819460C
:100F100001F066F80D48012101F01CF925233B7012
:100F200001237B700323BB700123FB703B461846F3
:100F300001F0ACFB054840F22551012201F02AF9ED
:100F40001837BD4680BD00BF000801400038014091
:100F500080B586B000AF0820012100F0C5FF4FF436
:100F60008020012100F0DEFF4FF48063BB82182354
:100F7000FB750323BB7507F114031D48194600F0E8
:100F800069FB4FF40063BB820423FB7507F1140374
:100F90001748194600F05EFB4FF4E1337B600023F5
:100FA0003B8100237B810023BB8100233B820C23F8
:100FB000FB813B1D0F48194601F012F80D48012135
:100FC00001F0C8F827233B7001237B700423BB701A
:100FD0000123FB703B46184601F058FB054840F2E0
:100FE0002551012201F0D6F81837BD4680BD00BF5B
:100FF000000C01400048004080B586B000AFF860AA
:101000000B467A60FB72F86800F03AF90346FB750C
:10101000FB7D013B052B00F2FD8001A151F823F07F
:10102000391000088F1000088F110008C710000841
:101030002B110008D11100080120F9688122042336
:1010400000F07CF90346002B1BD1FB6803331846E4
:1010500001F07CFB03463B613B694FF47A7202FB73
:1010600003F2744BA3FB0213DB0B3B613B699BB2A6
:10107000184600F099FF78686F49002200F0E4F804
:10108000CEE078686D49002200F0DEF8C8E001206B
:10109000F9688122042300F051F90346002B0CD19A
:1010A000FB680333184601F005FC03463B613B69CE
:1010B0009BB2184600F078FFB2E078685F490022E2
:1010C00000F0C2F8ACE00120F9688222002300F0B1
:1010D00035F90346002B22D1FB6803331B78312BF3
:1010E00009D1FA7A564913465B0013445B000B445E
:1010F00001221A710DE0FB6803331B78302B08D1F5
:10110000FA7A4F4913465B0013445B000B440022FC
:101110001A7178684849002200F096F880E07868F3
:101120004649002200F090F87AE00120F968822216
:10113000002300F003F90346002B22D1FB680333A0
:101140001B78312B09D1FA7A3D4913465B001344D1
:101150005B000B440122DA700DE0FB6803331B785F
:10116000302B08D1FA7A364913465B0013445B00F2
:101170000B440022DA7078682F49002200F064F8EE
:101180004EE078682D49002200F05EF848E001202A
:10119000F9688122032300F0D1F80346002B11D116
:1011A000FB680333184601F085FB03463B613B694E
:1011B0009BB2184601F0DEFC78681F49002200F05F
:1011C00043F82DE078681D49002200F03DF827E043
:1011D0000020F9680022002300F0B0F80346002B3D
:1011E00012D1FA7A164913465B0013445B000B4494
:1011F00001229A70FA7A124913465B0013445B008D
:101200000B4401225A700BE078680C49002200F070
:101210001BF805E078680B49002200F015F800BFC4
:10122000786801F03BFD0346DBB218461837BD462F
:1012300080BD00BF01800080943000089830000815
:1012400074040020B030000880B584B000AFF860AE
:10125000B9607A60BB68002B03D0F868B96801F008
:10126000BFFC7B68002B07D07B681B78002B03D06A
:10127000F868796801F08EFC1037BD4680BD00BF6C
:1012800080B485B000AF786000237B7300233B738C
:101290007B681B78FB737B6801331B78BB73FB7B1C
:1012A000602B05D9FB7B7A2B02D8FB7B203BFB73A1
:1012B000BB7B602B06D9BB7B7A2B03D8BB7B203B47
:1012C000BB7326E025E07A7B1B4913465B00134481
:1012D0009B000B441B681B78FA7B9A4216D17A7BE1
:1012E000154913465B0013449B000B441B680133F4
:1012F0001B78BA7B9A4209D17A7B0F4913465B006F
:1013000013449B000B441B793B730DE07B7B013343
:101310007B737A7B084913465B0013449B000B44A4
:101320001B681B78002BCED13B7B18461437BD467B
:101330005DF8047B704700BF3430000880B584B08E
:1013400000AF39600146F971BA717B71BB7903F066
:101350000F037B723B680233FB60FB681B78002B3A
:1013600006D1FB79002B01D1002345E1012343E1A4
:10137000FB681B783D2B05D1FB680133FB60012323
:10138000FB721CE00B2337E102E0FB680133FB60DA
:10139000FB681B783D2B07D0FB681B783B2B03D0E9
:1013A000FB681B78002BF0D1FB681B78002B00D169
:1013B00009E0FB680133FB60FB7A0133FB72FA7AC8
:1013C000FB799A42E0D3FA7AFB799A4201D0022360
:1013D00012E1FB681B782C2B01D10A230CE17B7AEC
:1013E000013B032B00F2078101A252F823F000BF5A
:1013F0000114000897140008E51400088715000878
:101400000023FB720EE0FB681B78184600F0F8F82A
:101410000346FF2B00D109E0FB680133FB60FB7A38
:101420000133FB72FA7A7B799A42ECD3FB7A002B78
:1014300001D10423E0E0FB681B78002B07D1BB79C6
:101440005BB2002B01DA0023D6E00523D4E0FB6871
:101450001B78184600F0D4F80346FF2B01D0062372
:10146000CAE0FB681B782C2B09D0FB681B783D2B4E
:1014700005D0BB795BB2002B01DB0723BCE0FB6826
:101480001B78002B05D0BB795BB2002B01DA082357
:10149000B2E00023B0E0FB681B78302B05D0FB687E
:1014A0001B78312B01D00923A6E0FB680133FB60D8
:1014B000FB681B782C2B09D0FB681B783D2B05D0D3
:1014C000BB795BB2002B01DB072395E0FB681B783F
:1014D000002B05D0BB795BB2002B01DA08238BE02F
:1014E000002389E0FB681B78612B0DD0FB681B781B
:1014F000622B09D0FB681B78412B05D0FB681B7859
:10150000422B01D0012377E0FB680133FB60BB79FC
:101510005BB2002B05DBFB681B78002B01D102239B
:101520006AE0BB795BB2002B09DBFB681B783D2BC3
:1015300005D0FB681B782C2B01D003235CE0BB7922
:101540005BB2002B09DBFB681B783D2B03D0FB68EB
:101550001B782C2B01D100234EE0BB795BB2002B12
:1015600005DAFB681B78002B01D0042344E0BB792B
:101570005BB2002B05DAFB681B78002B01D100233E
:101580003AE0052338E00023FB720023BB721AE027
:10159000FB681B782D2B04D1FB7A002B01D005238F
:1015A0002AE0FB681B782E2B02D1BB7A0133BB7279
:1015B000BB7A012B01D905231EE0FB680133FB60D8
:1015C000FB7A0133FB72FB681B782F2B03D9FB6876
:1015D0001B78392BDCD9FB681B782E2BD8D0FB6805
:1015E0001B782D2BD4D0FB681B78002B01D0052352
:1015F00002E0002300E0032318461037BD4680BDFB
:1016000080B483B000AF0346FB71FB79402B06D951
:10161000FB79462B03D8FB79373BDBB214E0FB792F
:10162000602B06D9FB79662B03D8FB79573BDBB2DD
:101630000AE0FB792F2B06D9FB79392B03D8FB79EC
:10164000303BDBB200E0FF2318460C37BD465DF8A7
:10165000047B704780B489B000AF786039600023A4
:10166000FB6100233B610023BB610023FB6000237F
:101670007B610023BB603B68DB7803F00F03FB61F9
:101680003B68DB7803F01003002B04D03B689B78A9
:10169000FA691343FB613B681B88DBB2002B44D023
:1016A0007B681B687B610023BB6138E0BB6901225A
:1016B00002FA03F3FB603B681B881A46FB68134081
:1016C0003B613A69FB689A4226D1BB699B00FB608B
:1016D000FB680F2202FA03F3BB60BB68DB437A6945
:1016E00013407B61FB68FA6902FA03F37A691343DA
:1016F0007B613B68DB78282B05D1BB6901229A40CE
:101700007B685A6108E03B68DB78482B04D1BB69F1
:1017100001229A407B681A61BB690133BB61BB69D6
:10172000072BC3D97B687A691A603B681B88FF2B3B
:1017300046D97B685B687B610023BB613AE0BB698B
:101740000833012202FA03F3FB603B681B881A4648
:10175000FB6813403B613A69FB689A4227D1BB6939
:101760009B00FB60FB680F2202FA03F3BB60BB68BF
:10177000DB437A6913407B61FB68FA6902FA03F381
:101780007A6913437B613B68DB78282B05D1BB6901
:10179000083301229A407B685A613B68DB78482B0A
:1017A00005D1BB69083301229A407B681A61BB6985
:1017B0000133BB61BB69072BC1D97B687A695A6069
:1017C0002437BD465DF8047B704700BF80B483B00A
:1017D00000AF78600B467B807A887B681A610C3793
:1017E000BD465DF8047B704780B483B000AF78607D
:1017F0000B467B807A887B685A610C37BD465DF862
:10180000047B704780B5ADF5287D00AF0023A7F8B5
:101810009832002387F89B3201F014F9FFF77EFA23
:10182000FFF7ACFAFFF740FBFFF716FAFFF790FB64
:10183000FFF7F6FA00F094FBFFF740FA9A4B00220C
:101840001A709A4B00221A70994B00221A70994B09
:1018500000221A70984B00221A70502001F08AF969
:101860000023C7F89C3240E09449D7F89C221346E5
:101870005B0013445B000B4400225A708F49D7F879
:101880009C2213465B0013445B000B4400229A70B9
:101890008A49D7F89C2213465B0013445B000B4433
:1018A00000221A708549D7F89C2213465B00134426
:1018B0005B000B4401225A718049D7F89C221346E1
:1018C0005B0013445B000B440022DA707B49D7F8BD
:1018D0009C2213465B0013445B000B4400221A71E8
:1018E000D7F89C320133C7F89C32D7F89C32042BCE
:1018F000BADD0023C7F89C3204E0D7F89C320133EC
:10190000C7F89C32D7F89C226D4B9A42F5DD002334
:10191000C7F89C3204E0D7F89C320133C7F89C32F8
:10192000D7F89C22664B9A42F5DD0023C7F89C321B
:1019300004E0D7F89C320133C7F89C32D7F89C22D8
:101940005F4B9A42F5DD0023C7F89C3204E0D7F8DC
:101950009C320133C7F89C32D7F89C22584B9A42EC
:10196000F5DD0023C7F89C3204E0D7F89C32013340
:10197000C7F89C32D7F89C22514B9A42F5DD0023E0
:10198000C7F89C3204E0D7F89C320133C7F89C3288
:10199000D7F89C224A4B9A42F5DD0023C7F89C32C7
:1019A00048480121FEF746FD00F0B8FF464B4222B1
:1019B0001A70464B57221A700023C7F89C32444BCA
:1019C0001B78002B20D0424B1B781A4607F1F403FA
:1019D0003D4811461A4600F09FF83D4B00221A7010
:1019E00007F1F4031B78002B0ED007F1F40207F582
:1019F000DE73002011461A4600F0E2F807F5DE73A8
:101A00001846344900F06AF8334B1B78002B02D09B
:101A1000314B00221A70264B1B78002B32D097F8DE
:101A20009B22264913465B0013445B000B445B7802
:101A3000002B18D097F89B2207F5AC731046194677
:101A400000F018F997F89B1207F5AC7207F5DE73F2
:101A5000084611461A4600F0B3F807F5DE7318463B
:101A60001C4900F03BF897F89B32013387F89B3212
:101A700097F89B32052B05D9002387F89B320C4B36
:101A800000221A700C4B1B78002B0BD00A4B002243
:101A90001A7007F5DE7318460E4900F01FF800F0C3
:101AA000B9F88CE78BE700BF9E0400209D0400205E
:101AB0009F0400209204002096040020740400205B
:101AC0003F420F000010004008050020A404002041
:101AD0009C040020003801409704002080B582B0AB
:101AE00000AF7860396010E07B681B783868194671
:101AF00000F098FB7B6801337B6000BF38684021B1
:101B000000F0B2FB0346002BF8D07B681B78002B5B
:101B1000EAD10837BD4680BD80B586B000AFF86019
:101B20000B467A607B817B6800221A707B89FA6899
:101B3000134400221A70FB6801331B78303BFB759D
:101B4000FB7D092B13D8FB6805331B78432B0ED183
:101B5000FB689A1DFB7D104619467A68FFF74CFA20
:101B600003467B817B897A68134400221A701837F8
:101B7000BD4680BD80B485B000AF78603960002379
:101B8000FB730AE0FB7B7A681344FA7B39680A44EA
:101B900012781A70FB7B0133FB73FB7B3A681344AA
:101BA0001B78002BEED1FB7B7A68134400221A705D
:101BB000FB7B18461437BD465DF8047B704700BFB9
:101BC00080B586B000AF0346B9607A60FB73FB7BDB
:101BD0003033DAB27B681A707B6804331846B96810
:101BE000FFF7C8FF0346FB75FB7D07F110021046A7
:101BF000194600F01DFE7B680133BA7C1A707B68C1
:101C00000233FA7C1A707B6803333A7D1A701837F6
:101C1000BD4680BD80B586B000AF0023FB751BE0DC
:101C2000FA7D104913465B0013445B000B445B785C
:101C3000002B0ED0FA7D3B4610460B491A46FFF7A3
:101C4000BFFF3B4618460949FFF748FF084B0122F2
:101C50001A70FB7D0133FB75FB7D042BE0D918372F
:101C6000BD4680BD74040020C43000080038014027
:101C70009F040020B0B588B000AF03463960FB7107
:101C80003B6800221A70FA793C4913465B00134402
:101C90005B000B445B79002B15D1386800F0FEFF28
:101CA00003463A681A44364B15461C460FCC28604A
:101CB0006960AA60EB6003CC286169612288A3781F
:101CC0002A83AB7657E0FA792C4913465B0013441C
:101CD0005B000B445B79012B4DD100F033FF0346D1
:101CE000FB83FB8B3868194600F040FD386800F034
:101CF000D5FF03463A681344224A12881A8000F03E
:101D000063F90346BB83BB8B07F1080210461946F3
:101D100000F02CFD07F10803184600F0BFFF034652
:101D200007F108021344174A12881A8007F10803C2
:101D30003868194600F02EFF00F010FF0346BB8301
:101D4000BB8B07F108021046194600F00FFD07F1A2
:101D50000803184600F0A2FF034607F108021344E7
:101D6000094A1188927819809A7007F10803386837
:101D7000194600F00FFF2037BD46B0BD74040020A7
:101D8000C8300008E4300008E830000880B489B0AA
:101D900000AF78600023FB610023BB6100237B61FF
:101DA00000233B610023FB604A4B5B6803F00C039C
:101DB000FB61FB69042B07D0082B09D0002B2FD126
:101DC0007B68454A1A602FE07B68434A1A602BE023
:101DD000404B5B6803F47013BB613E4B5B6803F4DC
:101DE00080337B61BB699B0C0233BB617B69002B39
:101DF00006D1BB69394A02FB03F27B681A6013E023
:101E0000344BDB6A03F00F030133FB60324AFB689B
:101E1000B2FBF3F3BA6902FB03F27B681A6003E0DA
:101E20007B682D4A1A6000BF2A4B5B6803F0F00301
:101E3000FB61FB691B09FB61294AFB6913441B78A1
:101E4000DBB23B617B681A683B69DA407B685A60A9
:101E5000204B5B6803F4E063FB61FB691B0AFB61D9
:101E60001F4AFB6913441B78DBB23B617B685A68ED
:101E70003B69DA407B689A60164B5B6803F46053F9
:101E8000FB61FB69DB0AFB61154AFB6913441B78A4
:101E9000DBB23B617B685A683B69DA407B68DA6099
:101EA0000C4B5B6803F44043FB61FB699B0BFB61DC
:101EB0000C4AFB6913441B78DBB23B617B68DA6830
:101EC0003B69B2FBF3F27B681A612437BD465DF8CB
:101ED000047B70470010024000127A0000093D00A8
:101EE000140000202400002080B483B000AF78608C
:101EF0000B46FB70FB78002B06D0094B084A916912
:101F00007A680A439A6106E0054B054A91697A6846
:101F1000D2430A409A610C37BD465DF8047B704796
:101F20000010024080B483B000AF78600B46FB70B5
:101F3000FB78002B06D0094B084AD1697A680A431E
:101F4000DA6106E0054B054AD1697A68D2430A4056
:101F5000DA610C37BD465DF8047B70470010024023
:101F600080B500AF05484021FFF730FC04488021D0
:101F7000FFF73AFC002000F017F880BD000C01408C
:101F80000010014080B500AF04484021FFF71EFC5F
:101F9000034B044A12889A8780BD00BF000C0140A1
:101FA00000040040A004002080B582B000AF0346CA
:101FB000FB80044BFA881A80FFF7E4FF0837BD4620
:101FC00080BD00BFA004002080B400AF034B1B887D
:101FD0001846BD465DF8047B704700BFA004002092
:101FE00080B58CB000AF786039600023FB620023BD
:101FF000BB6200237B6200233B620023FB617B68A2
:10200000FB617B681B8A9BB2FB62FA6A4CF6FF732A
:102010001340FB623B68DB88FA6A1343FB62FB6A8E
:102020009AB27B681A827B689B899BB2FB62FA6AD0
:102030004EF6F3131340FB623B689A883B681B899A
:1020400013439AB23B685B8913439BB2FA6A13430A
:10205000FB62FB6A9AB27B689A817B689B8A9BB21F
:10206000FB62FA6A4FF6FF431340FB623B689B89B1
:10207000FA6A1343FB62FB6A9AB27B689A8207F1A1
:1020800008031846FFF782FEFA69304B9A4202D1E4
:102090007B69BB6201E03B69BB627B689B899BB249
:1020A0009BB21BB2002B0CDABA6A13469B00134496
:1020B0009A001A443B681B685B00B2FBF3F37B6237
:1020C0000BE0BA6A13469B0013449A001A443B681B
:1020D0001B689B00B2FBF3F37B627A6A1C4BA3FB89
:1020E00002135B091B01FB62FB6A1B09642202FBF2
:1020F00003F37A6AD31A3B627B689B899BB29BB2DB
:102100001BB2002B0DDA3B6ADB0003F13202104BED
:10211000A3FB02135B0903F00703FA6A1343FB6294
:102120000CE03B6A1B0103F13202094BA3FB0213D3
:102130005B0903F00F03FA6A1343FB62FB6A9AB26E
:102140007B681A813037BD4680BD00BF0038014032
:102150001F85EB5180B483B000AF78600B46FB70F5
:10216000FB78002B08D07B689B899BB243F400531B
:102170009AB27B689A8107E07B689B899BB223F4C3
:1021800000539AB27B689A810C37BD465DF8047B98
:10219000704700BF80B487B000AF786013460A462E
:1021A0007A807B7000233B610023FB600023BB60CF
:1021B00000237B617B687B617B88DBB25B09DBB2E0
:1021C0003B617B8803F01F03FB60FB68012202FA7E
:1021D00003F3BB603B69012B03D17B690C337B614B
:1021E00009E03B69022B03D17B6910337B6102E07C
:1021F0007B6914337B617B78002B06D07B697A691D
:102200001168BA680A431A6006E07B697A69116846
:10221000BA68D2430A401A601C37BD465DF8047B99
:10222000704700BF80B483B000AF78600B467B80FE
:102230007B88C3F308039AB27B689A800C37BD464B
:102240005DF8047B704700BF80B483B000AF786056
:102250007B689B889BB2C3F308039BB218460C377C
:10226000BD465DF8047B704780B485B000AF7860F0
:102270000B467B800023FB737B681B889AB27B88AC
:1022800013409BB2002B02D00123FB7301E000231B
:10229000FB73FB7B18461437BD465DF8047B704723
:1022A00080B500AF4FF080400121FEF727FA80BDD6
:1022B00080B500AF07480121FEF7F6F90346012B70
:1022C00006D104480121FEF719FA034B01221A70C6
:1022D00080BD00BF000800409F04002080B500AF13
:1022E0000B480121FEF7C4F909480121FEF706FA5F
:1022F000084B1B780133DAB2064B1A70054B1B787A
:10230000082B04D100F00AFB024B00221A7080BD9A
:10231000001000406E04002080B500AF1448012179
:10232000FEF7A6F912480121FEF7E8F9114B1B88C8
:10233000002B06D10F4B1B8801339AB20D4B1A802C
:1023400015E00C4B1B88012B11D109480021FEF729
:1023500071F809484FF48071FFF746FA04480021EC
:10236000FEF7E8F8034B00221A8000F0E9FA80BD7E
:102370000014004070040020000C014080B500AF44
:1023800030480221FEF774F92E480221FEF7B6F913
:102390002D4B1B88002B0DD12A48FEF74DF9034623
:1023A0001A462A4B1A80284B1B8801339AB2264BB7
:1023B0001A8045E02348FEF73FF903461A46244BAE
:1023C0001A80214B00221A80214B1B889AB21F4B86
:1023D0001B889BB29A420BD91D4B1B889BB21A4695
:1023E0001A4B1B889BB2D31A1A461A4B1A6017E075
:1023F000174B1B889AB2154B1B889BB29A420CD282
:10240000124B1B889BB2C3F58032114B1B889BB2C9
:1024100013441A460F4B1A6002E00E4B00221A605A
:102420000C4B1B68002B0BD00A4B1A6813469B0001
:102430001A44084B1A60074B1B68184600F054FBFF
:1024400080BD00BF004401406C0400205C040020FB
:102450005E0400206004002080B582B000AF2A4BEB
:102460001B889BB203F02003002B49D02648FFF7BE
:10247000EBFE0346FB71FB79082B13D1234B1B7832
:10248000012B28D9214B1B78214A0021D1541F4B05
:102490001B78013BDAB21D4B1A701B480D21FFF768
:1024A000C1FE18E0FB790A2B0AD11A4B00221A70E0
:1024B000164B1A78184B1A70144B01221A700AE046
:1024C000124B1B78124AF979D154104B1B78013307
:1024D000DAB20E4B1A700C4B1B889BB203F0080348
:1024E000002B0DD0084B1B889BB2BB71064B9B8801
:1024F0009BB2BB71094B1B8801339AB2074B1A8000
:102500000837BD4680BD00BF0038014028000020CC
:10251000080500209D0400209C0400207204002077
:1025200080B582B000AF174B1B889BB203F020032D
:10253000002B23D01348FFF787FE0346FB71124B95
:102540001B88124AF979D1540F4B1B880F4AD35C70
:102550000A2B0DD10C4B1B88DAB20D4B1A700A4BAB
:102560001B880A4A0021D154074B01221A8005E03A
:10257000054B1B8801339AB2034B1A800837BD46BE
:1025800080BD00BF004800402A000020A4040020B5
:102590009704002080B500AF2D481021FEF784F885
:1025A0000346012B52D12A481021FEF7A7F8294BE8
:1025B0001B889AB2284B1A802548FEF74BF8034631
:1025C0001A46244B1A80234B1B889AB2224B1B8835
:1025D0009BB29A420BD91F4B1B889BB21A461E4BCB
:1025E0001B889BB2D31A1A461C4B1A6017E0194B72
:1025F0001B889AB2184B1B889BB29A420CD2164B7E
:102600001B889BB2C3F58032124B1B889BB21344CC
:102610001A46124B1A6002E0104B00221A60104B4F
:102620001A6813461B019B1A9B00DA080D4BA3FB8B
:1026300002139A08094B1B68B2FBF3F2074B1A60AE
:10264000064B1B689BB2184600F06CFA80BD00BFB9
:10265000002C01406604002064040020680400206F
:1026600000000020176CC11680B483B000AF786002
:10267000054A7B6843F0BF6343F40033D3600C37F3
:10268000BD465DF8047B704700ED00E080B487B084
:1026900000AF786000237B6100233B610F23FB6068
:1026A0007B68DB78002B38D0264BDB68DB4303F4F8
:1026B000E0631B0A7B617B69C3F104033B617B69B7
:1026C000FA6822FA03F3FB607B685B781A463B6981
:1026D00002FA03F37B617B689B781A46FB68134020
:1026E0007A6913437B617B691B017B6116497B68B7
:1026F0001B787A69D2B20B4483F80023124B7A68B4
:1027000012785209D2B27968097801F01F010120CC
:1027100000FA01F143F822100EE00B4B7A681278B0
:102720005209D2B27968097801F01F01012000FA3C
:1027300001F1203243F822101C37BD465DF8047BBE
:10274000704700BF00ED00E000E100E080B584B01C
:1027500000AF786078680021102200F059FB034632
:10276000FB81FB8918461037BD4680BD80B485B01B
:1027700000AF78600B467B807B88002B07D17B689D
:1027800030221A707B68013300221A7049E001235D
:10279000FB731CE0FB7BC3F105037A68D0187A88D1
:1027A000224BA3FB0213D9080B469B000B445B0092
:1027B000D31A9BB2DBB23033DBB203707A881B4B87
:1027C000A3FB0213DB087B80FB7B0133FB73FB7BEA
:1027D000052BDFD9FB7B013B7A68134400221A707A
:1027E0000023FB7302E0FB7B0133FB73FB7B7A6806
:1027F00013441B78302BF6D00023BB730CE0BB7B5B
:102800007A681344F97BBA7B0A4479680A441278DF
:102810001A70BB7B0133BB73FA7BBB7B1344052B64
:10282000EDDD1437BD465DF8047B7047CDCCCCCCD4
:1028300080B485B000AF78600B467B807B88002B2E
:1028400007D17B6830221A707B68013300221A702E
:1028500028E00123FB731CE0FB7BC3F105037A68CE
:10286000D0187A88124BA3FB0213D9080B469B00A1
:102870000B445B00D31A9BB2DBB23033DBB2037084
:102880007A880B4BA3FB0213DB087B80FB7B0133B5
:10289000FB73FB7B052BDFD9FB7B013B7A68134481
:1028A00000221A701437BD465DF8047B704700BFE4
:1028B000CDCCCCCC80B584B000AF786000237B72E7
:1028C0000023BB81786800F0E9F90346FB73FB7BCA
:1028D000042B01D900231DE001237B8116E0FB7B43
:1028E000013B7A6813441B78303B9BB27A8902FB28
:1028F00003F39AB2BB891344BB817B891A469200C9
:1029000013445B007B81FB7B013BFB73FB7B002B58
:10291000E5D1BB8918461037BD4680BD80B500AFF4
:1029200000F072F804484FF48071FEF74FFF03483F
:102930000121FDF77FFD80BD000C01400014004027
:1029400080B588B000AF2E4801210022FDF792FD2E
:102950002B4802210022FDF78DFD4FF400300121AC
:10296000FFF7C2FA09200121FFF7BEFA4FF4807386
:10297000BB830423FB770323BB7707F11C032148A8
:102980001946FEF767FE07F110031846FDF720FD14
:1029900077233B8207F1100319481946FDF7C2FB64
:1029A0003B1D1846FDF72EFD0023BB800023BB8195
:1029B0000A23FB8000237B8101233B813B1D1048C0
:1029C0001946FDF7B1FC19233B700123FB7000236E
:1029D0007B700023BB703B461846FFF757FE084844
:1029E0000121FDF727FD06480221FDF787FE044877
:1029F00002210122FDF73EFD2037BD4680BD00BF0C
:102A000000440140000C014080B582B000AF0820B6
:102A10000121FFF769FA4FF48073BB801023FB712B
:102A20000323BB713B1D06481946FEF713FE0448FD
:102A30004FF48071FEF7D8FE0837BD4680BD00BF59
:102A4000000C014080B588B000AF40F605000121C0
:102A5000FFF74AFA4FF40063BB830423FB77032399
:102A6000BB7707F11C031E481946FEF7F3FD07F17B
:102A700010031846FDF7ACFC40F267133B8207F1E8
:102A8000100318481946FDF74DFB0C23BB800023AB
:102A9000BB810023FB8000237B8101233B813B1D05
:102AA00010481946FDF740FC4FF4C060FFF7DCFD0D
:102AB0001B233B700123FB7000237B700123BB7041
:102AC0003B461846FFF7E2FD064810210122FDF7BC
:102AD000D1FC04480121FDF7ADFC2037BD4680BD87
:102AE00000080140002C014080B483B000AF786042
:102AF0007B684FF4AC7202FB03F2084BA3FB02139A
:102B00009B0B7B607B68002B03D07B689AB2044BE5
:102B10001A800C37BD465DF8047B70475917B7D152
:102B20009404002080B483B000AF0346FB80044BC4
:102B3000FA881A800C37BD465DF8047B704700BFE9
:102B40009804002080B400AF034B1B881846BD4694
:102B50005DF8047B704700BF9404002080B400AF90
:102B6000034B1B881846BD465DF8047B704700BFC9
:102B70009804002080B483B000AF0346FB80044B70
:102B8000FA881A800C37BD465DF8047B704700BF99
:102B90009A040020830770B506461FD10368A3F18D
:102BA000013222EA030313F0803F08BF031D15D151
:102BB000184653F8044BA4F1013525EA040414F037
:102BC000803FF5D003782BB1431C1C7818460133A5
:102BD000002CFAD100F004F8304670BD3046F1E721
:102BE00080EA0102844612F0030F4FD111F0030F67
:102BF00032D14DF8044D11F0040F51F8043B0BD0C5
:102C0000A3F101329A4312F0803F04BF4CF8043B19
:102C100051F8043B16D100BF51F8044BA3F1013227
:102C20009A4312F0803FA4F101320BD14CF8043BDF
:102C3000A24312F0803F04BF51F8043B4CF8044B10
:102C4000EAD023460CF8013B13F0FF0F4FEA332381
:102C5000F8D15DF8044B704711F0010F06D011F860
:102C6000012B0CF8012B002A08BF704711F0020F4E
:102C7000BFD031F8022B12F0FF0F16BF2CF8022B39
:102C80008CF8002012F47F4FB3D1704711F8012B5C
:102C90000CF8012B002AF9D1704700BF20F0030186
:102CA00010F00300C0F1000051F8043B00F1040CE7
:102CB0004FEACC0C6FF000021CBF22FA0CF2134357
:102CC0004FF0010C4CEA0C2C4CEA0C4CA3EB0C0220
:102CD00022EA030212EACC1204BF51F8043B04308A
:102CE000F4D013F0FF0F1FBF013013F47F4F0130FA
:102CF00013F47F0F18BF0130704700BF2DE9F00FAC
:102D0000424C82B0D4F800C001900E4600E0264646
:102D1000344614F8015B0CEB0500407800F0080025
:102D200000F0FF0A0028F2D12D2D5BD02B2D04BF1F
:102D30007578B41C33F010003CD09946BAF1000FFE
:102D40000CBF6FF0004B4FF0004BBBFBF9F80027B6
:102D500009FB18BB38460CE0303DAB4219DD7E1C48
:102D600005D0404523D820D009FB0050012714F896
:102D7000015B0CEB0506767816F0040FECD116F02B
:102D8000030606D0012E14BF57263726AD1BAB42D3
:102D9000E5DC7B1C15D0BAF1000F21D10AB1EFB9E7
:102DA000116002B0BDE8F00F70475D45DCDD4FF00B
:102DB000FF37DCE7302D1AD0002BBED10A2399460D
:102DC000BCE70199BAF1000F4FF022030CBF6FF07E
:102DD00000404FF000400B60002AE2D0611EDFE7A8
:102DE0004042DBE7B41C75784FF0010AA2E7207877
:102DF00000F0DF00582803D0002B9ED108239CE769
:102E0000102365789946023498E700BF2C00002013
:102E100030B4044C0D46134601462A46206830BCA7
:102E2000FFF76CBF58040020535000002F5370650B
:102E300065642F204D6F746F722073706565642018
:102E40002864757479206379636C652920676976D5
:102E5000656E20696E20686578612C2072616E67EE
:102E6000653A203078303030202D20307846464684
:102E7000462E2028652E672E2053503D3132414288
:102E800029000000444300002F44757479204379E1
:102E9000636C652F204D6F746F722073706565646D
:102EA000202864757479206379636C6529206769CB
:102EB00076656E20696E20646563696D616C2C2097
:102EC00072616E67653A20302D313030205B255DB0
:102ED0002E2028652E672E2044433D3530290000E2
:102EE000475300002F4765742053706565642F2099
:102EF00047657474696E6720746865206D6F746FC0
:102F0000722073706565642028696E2052504D29C7
:102F100020697320656E61626C6564202831292008
:102F20006F722064697361626C6564202830292E99
:102F30002028652E672E2047533D302900000000D1
:102F4000474400002F4765742044697374616E63C1
:102F5000652047657474696E6720746865206469CC
:102F60007374616E63652028696E20636D29206922
:102F70007320656E61626C656420283129206F7250
:102F80002064697361626C6564202830292E2028D2
:102F9000652E672E2047443D302900005250000026
:102FA0002F5265666572656E636520706F73697414
:102FB000696F6E2F20536574207265666572656E49
:102FC000636520706F736974696F6E2E204D696E32
:102FD000696D756D20323020636D2C206D617869CC
:102FE0006D756D2031343020636D2E004842000035
:102FF0002F486561727420626561742F00000000C3
:10300000464D00002F53656E64696E6720466F72EF
:103010006D61742F20307830303A205265616461E0
:10302000626C652C20307830313A202E6373760044
:1030300000000000282E0008010000002C2E0008CF
:10304000842E000802000000882E0008E02E0008F0
:1030500004000000E42E0008402F000805000000D6
:10306000442F00089C2F000803000000A02F000838
:10307000EC2F000806000000F02F000800300008C8
:103080000700000004300008303000080000000095
:103090000000000045303D0045323D496E76616CD0
:1030A000696420706172616D657465720000000072
:1030B00045333D556E6B6E6F776E20636F6D6D613E
:1030C0006E640000484200004E6F7420696D706CA1
:1030D000656D656E7465642066756E6374696F6E88
:1030E0002E0A00003B0000003B0A000000202020C8
:1030F00020202020202028282828282020202020A8
:103100002020202020202020202020202088101077
:1031100010101010101010101010101010040404D3
:103120000404040404040410101010101010414191
:10313000414141410101010101010101010101017F
:103140000101010101010101101010101010424293
:10315000424242420202020202020202020202024F
:1031600002020202020202021010101020000000EF
:10317000000000000000000000000000000000004F
:10318000000000000000000000000000000000003F
:10319000000000000000000000000000000000002F
:1031A000000000000000000000000000000000001F
:1031B000000000000000000000000000000000000F
:1031C00000000000000000000000000000000000FF
:1031D00000000000000000000000000000000000EF
:1031E00000000000000000000000000000000000DF
:0431F0004300000098
:1031F40000366E010000000000000000010203041C
:103204000607080900000000010203040102030488
:10321400060708090204060801000100EC30000852
:10322400000000001C03002084030020EC030020A5
:10323400000000000000000000000000000000008A
:10324400000000000000000000000000000000007A
:1032540000000000F0310008000000000000000041
:10326400000000000000000000000000000000005A
:10327400000000000000000000000000000000004A
:10328400000000000000000000000000000000003A
:10329400000000000000000000000000000000002A
:1032A400000000000000000000000000000000001A
:1032B400000000000000000000000000000000000A
:1032C40000000000000000000100000000000000F9
:1032D4000E33CDAB34126DE6ECDE05000B000000BE
:1032E40000000000000000000000000000000000DA
:1032F40000000000000000000000000000000000CA
:1033040000000000000000000000000000000000B9
:1033140000000000000000000000000000000000A9
:0C3644000000000000000000300000202A
:0400000508000000EF
:00000001FF
