:020000040800F2
:10000000880A0020A50A0008050B0008050B000857
:10001000050B0008050B0008050B00080000000098
:10002000000000000000000000000000050B0008B8
:10003000050B000800000000050B0008050B000878
:10004000050B0008050B0008050B0008050B000850
:10005000050B0008050B0008050B0008050B000840
:10006000050B0008050B0008050B0008050B000830
:10007000050B0008050B0008050B0008050B000820
:10008000050B0008050B0008050B00080000000028
:10009000000000000000000000000000050B000848
:1000A000050B00084D210008050B0008352300084A
:1000B0007D200008050B00088D200008050B0008B6
:1000C000050B0008050B0008050B0008050B0008D0
:1000D000050B000829220008050B0008C1220008B2
:1000E000050B0008050B0008050B000800000000C8
:1000F0000000000000000000000000000000000000
:1001000000000000000000000000000000000000EF
:100110000000000000000000AD200008E9200008F9
:100120005FF808F180B485B000AF786039600023D3
:10013000FB817B681B88FB817A682E4B9A4213D027
:100140007A682D4B9A420FD07B68B3F1804F0BD069
:100150007A682A4B9A4207D07A68294B9A4203D090
:100160007A68284B9A4208D1FB8923F07003FB81FF
:100170003B685A88FB891343FB817A68224B9A4279
:100180000CD07A68214B9A4208D0FB8923F4407343
:10019000FB813B68DA88FB891343FB817B68FA8922
:1001A0001A803B689A887B689A853B681A887B68C6
:1001B0001A857A680F4B9A420FD07A680E4B9A4292
:1001C0000BD07A68124B9A4207D07A68114B9A4248
:1001D00003D07A68104B9A4204D13B681B7A1A46C6
:1001E0007B681A867B6801229A821437BD465DF8C7
:1001F000047B7047002C01400034014000040040A3
:1002000000080040000C00400010004000140040B6
:1002100000400140004401400048014080B485B0E6
:1002200000AF7860396000237B810023FB810023CD
:10023000BB817B681B8C9BB223F480739AB27B6872
:100240001A847B681B8CFB817B689B88BB817B68E5
:100250009B8B7B817B8923F070037B817B8923F0DF
:1002600003037B813B681A887B8913437B81FB896D
:1002700023F40073FB813B681B891B029AB2FB8944
:100280001343FB813B685B881B029AB2FB891343D3
:10029000FB817A68224B9A4203D07A68214B9A42BA
:1002A0002BD1FB8923F40063FB813B685B891B0234
:1002B0009AB2FB891343FB81FB8923F48063FB81A2
:1002C0003B689B881B029AB2FB891343FB81BB8965
:1002D00023F48053BB81BB8923F40053BB813B686B
:1002E0009B891B019AB2BB891343BB813B68DB89A5
:1002F0001B019AB2BB891343BB817B68BA899A8080
:100300007B687A899A833B68DA887B689A877B68FE
:10031000FA891A841437BD465DF8047B704700BF24
:10032000002C01400034014080B582B000AF7860FD
:1003300039603B681B88002B0FD13B6859883B68AC
:100340009A883B681B89786800F0E8F93B68DB888D
:100350007868194600F0FCF836E03B681B88042BEF
:100360000FD13B6859883B689A883B681B8978683D
:1003700000F03EFA3B68DB887868194600F004F923
:1003800022E03B681B88082B0FD13B6859883B68EB
:100390009A883B681B89786800F09EFA3B68DB8886
:1003A0007868194600F00EF90EE03B6859883B6802
:1003B0009A883B681B89786800F0FEFA3B68DB8806
:1003C0007868194600F01AF90837BD4680BD00BFAD
:1003D00080B483B000AF78607B684FF6FF729A807C
:1003E0007B6800221A807B680022DA807B6800220A
:1003F0005A807B6800221A720C37BD465DF8047B78
:10040000704700BF80B483B000AF78607B68002283
:100410001A807B6800225A807B6801229A807B6860
:100420000022DA807B6800221A810C37BD465DF815
:10043000047B704780B483B000AF78600B46FB70DC
:10044000FB78002B08D07B681B889BB243F001032C
:100450009AB27B681A8007E07B681B889BB223F006
:1004600001039AB27B681A800C37BD465DF8047BA5
:10047000704700BF80B483B000AF786013460A466F
:100480007A807B707B78002B08D07B689B899AB23E
:100490007B8813439AB27B689A8109E07B689B89C9
:1004A0009AB27B88DB439BB213409AB27B689A81F5
:1004B0000C37BD465DF8047B704700BF80B483B045
:1004C00000AF78600B46FB70FB78002B08D07B6890
:1004D0001B889BB243F080039AB27B681A8007E0C6
:1004E0007B681B889BB223F080039AB27B681A80DA
:1004F0000C37BD465DF8047B704700BF80B485B003
:1005000000AF78600B467B800023FB817B689B8B70
:10051000FB81FB8923F00803FB81FA897B88134365
:10052000FB817B68FA899A831437BD465DF8047BAA
:10053000704700BF80B483B000AF78600B467B800B
:100540007B687A889A840C37BD465DF8047B7047D7
:1005500080B483B000AF78600B467B807B681B8BD8
:100560009BB223F00C039AB27B681A837B681B8BC7
:100570009AB27B8813439AB27B681A830C37BD46C4
:100580005DF8047B704700BF80B483B000AF786033
:100590000B467B807B681B8B9BB223F440639AB233
:1005A0007B681A837B681B8B9AB27B881B029BB289
:1005B00013439AB27B681A830C37BD465DF8047BFF
:1005C000704700BF80B483B000AF78600B467B807B
:1005D0007B689B8B9BB223F00C039AB27B689A8357
:1005E0007B689B8B9AB27B8813439AB27B689A8311
:1005F0000C37BD465DF8047B704700BF80B483B004
:1006000000AF78600B467B807B689B8B9BB223F4AA
:1006100040639AB27B689A837B689B8B9AB27B8893
:100620001B029BB213439AB27B689A830C37BD4678
:100630005DF8047B704700BF80B483B000AF786082
:100640007B689B8E9BB218460C37BD465DF8047BD9
:10065000704700BF80B483B000AF78607B68B3F8A8
:1006600040309BB218460C37BD465DF8047B70479E
:1006700080B485B000AF78600B467B800023FB73AD
:100680007B681B8A9AB27B8813409BB2002B02D0F6
:100690000123FB7301E00023FB73FB7B1846143737
:1006A000BD465DF8047B704780B485B000AF7860CC
:1006B0000B467B800023FB730023BB8100237B81DF
:1006C0007B681B8A9AB27B881340BB817B689B89BD
:1006D0009AB27B8813407B81BB89002B05D07B8934
:1006E000002B02D00123FB7301E00023FB73FB7B93
:1006F00018461437BD465DF8047B704780B483B05C
:1007000000AF78600B467B807B88DB439AB27B68C6
:100710001A820C37BD465DF8047B704780B487B001
:1007200000AFF86079813A81FB800023BB8200230F
:10073000FB82FB681B8C9BB223F001039AB2FB681F
:100740001A84FB681B8BBB82FB681B8CFB82BB8AF9
:1007500023F0F303BB82FB881B019AB23B8913434E
:100760009AB2BB8A1343BB82FA681C4B9A4213D0DD
:10077000FA681B4B9A420FD0FB68B3F1804F0BD045
:10078000FA68184B9A4207D0FA68174B9A4203D07E
:10079000FA68164B9A420BD1FB8A23F00203FB82C4
:1007A0007A89FB8A13439BB243F00103FB820AE080
:1007B000FB8A23F00A03FB827A89FB8A13439BB2EC
:1007C00043F00103FB82FB68BA8A1A83FB68FA8A4A
:1007D0001A841C37BD465DF8047B7047002C01402D
:1007E000003401400004004000080040000C0040BC
:1007F00080B487B000AFF86079813A81FB80002334
:10080000BB820023FB8200237B82FB681B8C9BB294
:1008100023F010039AB2FB681A84FB681B8BBB821F
:10082000FB681B8CFB827B891B017B82BB8A23F4C8
:1008300040731B051B0DBB82FB881B039AB2BB8A4E
:100840001343BB823B891B029AB2BB8A1343BB8210
:10085000FA681C4B9A4213D0FA681B4B9A420FD08D
:10086000FB68B3F1804F0BD0FA68184B9A4207D05F
:10087000FA68174B9A4203D0FA68164B9A420BD18A
:10088000FB8A23F02003FB827A8AFB8A13439BB204
:1008900043F01003FB820AE0FB8A23F0A003FB82F3
:1008A0007A89FB8A13439BB243F01003FB82FB68F7
:1008B000BA8A1A83FB68FA8A1A841C37BD465DF827
:1008C000047B7047002C01400034014000040040CC
:1008D00000080040000C004080B487B000AFF86012
:1008E00079813A81FB800023BB820023FB820023B5
:1008F0007B82FB681B8C9BB223F480739AB2FB68EB
:100900001A84FB689B8BBB82FB681B8CFB827B89F8
:100910001B027B82BB8A23F0F303BB82FB881B0193
:100920009AB23B8913439AB2BB8A1343BB82FA68DB
:100930001C4B9A4213D0FA681B4B9A420FD0FB68AB
:10094000B3F1804F0BD0FA68184B9A4207D0FA687F
:10095000174B9A4203D0FA68164B9A420BD1FB8A86
:1009600023F40073FB827A8AFB8A13439BB243F41D
:100970008073FB820AE0FB8A23F42063FB827A897E
:10098000FB8A13439BB243F48073FB82FB68BA8AF1
:100990009A83FB68FA8A1A841C37BD465DF8047B8B
:1009A000704700BF002C01400034014000040040AB
:1009B00000080040000C004080B487B000AFF86031
:1009C00079813A81FB800023BB820023FB820023D4
:1009D0007B82FB681B8C9BB223F480539AB2FB682A
:1009E0001A84FB689B8BBB82FB681B8CFB827B8918
:1009F0001B037B82BB8A23F440731B051B0DBB8248
:100A00003B891B029AB2BB8A1343BB82FB881B0340
:100A10009AB2BB8A1343BB82FA681D4B9A4213D029
:100A2000FA681C4B9A420FD0FB68B3F1804F0BD091
:100A3000FA68194B9A4207D0FA68184B9A4203D0C9
:100A4000FA68174B9A420BD1FB8A23F40053FB82BE
:100A50007A8AFB8A13439BB243F48053FB820CE0F7
:100A6000FB8A23F400735B045B0CFB827A89FB8AAC
:100A700013439BB243F48053FB82FB68BA8A9A8388
:100A8000FB68FA8A1A841C37BD465DF8047B704700
:100A9000002C0140003401400004004000080040E8
:100AA000000C004080B582B000AF114B7B60114B51
:100AB0003B6007E03B681A1D3A607A68111D796057
:100AC00012681A603A680C4B9A42F3D30B480C49EF
:100AD0004FF000028842B8BF40F8042BFFF6FAAF8F
:100AE00000F014F800F042FE0837BD4680BD00BF9C
:100AF000BC350008000000205C0400205C040020DD
:100B00008406002080B400AFFEE700BF80B500AFD0
:100B1000164B164A126842F001021A60134A134B30
:100B20005968134B0B405360104A104B1B6823F05D
:100B3000847323F4803313600C4B0C4A126822F444
:100B400080221A60094B094A526822F4FE025A6058
:100B5000064B4FF41F029A60044B0022DA6200F049
:100B60000BF8044B4FF000629A6080BD0010024009
:100B70000000FFF800ED00E080B500AF00F002F8E3
:100B800080BD00BF80B483B000AF00237B60002332
:100B90003B60304B2F4A126842F480321A602D4B72
:100BA0001B6803F400333B607B6801337B603B6868
:100BB000002B03D17B68B3F5A06FF0D1254B1B68E8
:100BC00003F40033002B02D001233B6001E000233B
:100BD0003B603B68012B37D11E4B1E4A52685A605E
:100BE0001C4B1C4A52685A601A4B1A4A52685A6087
:100BF000184B184A526822F47C125A60154B154A59
:100C0000526842F498125A60124B124A126842F02B
:100C100080721A6000BF0F4B1B6803F00073002B3B
:100C2000F9D00C4B0B4A526822F003025A60094B70
:100C3000084A526842F002025A6000BF054B5B68E6
:100C400003F00C03082BF9D10C37BD465DF8047B8B
:100C5000704700BF0010024080B582B000AF102086
:100C6000012101F02FF84FF44073BB801023FB717A
:100C70000323BB713B1D0348194600F09FFC083756
:100C8000BD4680BD0010014080B584B000AF022099
:100C9000012101F035F83B1D1846FFF799FB0223AF
:100CA000BB8040F2E7333B813B1D03481946FFF709
:100CB00039FA1037BD4680BD0004004080B584B0CD
:100CC00000AF1020012101F01BF83B1D1846FFF773
:100CD0007FFBEF23BB8040F2F3133B813B1D0E48AB
:100CE0001946FFF71FFA36233B700123FB700123DF
:100CF0007B700023BB703B46184601F097FB06480B
:100D00000121FFF7FBFC044801210122FFF7B2FBA0
:100D10001037BD4680BD00BF0010004080B584B0D4
:100D200000AF2020012100F0EBFF3B1D1846FFF72C
:100D30004FFB1723BB8009233B813B1D0D48194600
:100D4000FFF7F0F937233B700123FB7001237B7021
:100D50000023BB703B46184601F068FB05480121A3
:100D6000FFF7CCFC034801210122FFF783FB10377A
:100D7000BD4680BD0014004080B584B000AFFFF7D1
:100D800083FF60233B8001237B800023FB800023C3
:100D90003B813B4609481946FFF740FA07480821BE
:100DA000FFF7ACFB05480121FFF788FB0348012151
:100DB000FFF740FB1037BD4680BD00BF0004004078
:100DC00080B582B000AF0920012100F07BFF012334
:100DD000BB801823FB710323BB713B1D18481946C8
:100DE00000F0ECFB4023BB801023FB713B1D14483B
:100DF000194600F0E3FB1020012100F063FF1023EF
:100E0000BB800023FB713B1D0E48194600F0D6FB4A
:100E10004023BB804823FB713B1D0A48194600F064
:100E2000CDFB8023BB801023FB713B1D0548194679
:100E300000F0C4FBFFF7A0FF0837BD4680BD00BF30
:100E4000000C01400010014080B586B000AF0420C6
:100E5000012100F037FF4FF48040012100F032FF04
:100E60004FF40073BB821823FB750323BB7507F196
:100E700014031D48194600F0A1FB4FF48063BB82A8
:100E80000423FB7507F114031748194600F096FB7D
:100E90004FF461337B6000233B8100237B8100237F
:100EA000BB8100233B820C23FB813B1D0F4819466D
:100EB00000F084FF0D48012101F03AF825233B7032
:100EC00001237B700323BB700123FB703B46184654
:100ED00001F0ACFA054840F22551012201F048F832
:100EE0001837BD4680BD00BF0008014000380140F2
:100EF00080B586B000AF0820012100F0E3FE4FF47A
:100F00008020012100F0FCFE4FF48063BB82182397
:100F1000FB750323BB7507F114031D48194600F048
:100F20004DFB4FF40063BB820423FB7507F11403F0
:100F30001748194600F042FB4FF4E1337B60002371
:100F40003B8100237B810023BB8100233B820C2358
:100F5000FB813B1D0F48194600F030FF0D48012171
:100F600000F0E6FF27233B7001237B700423BB7056
:100F70000123FB703B46184601F058FA054840F241
:100F80002551012200F0F4FF1837BD4680BD00BF97
:100F9000000C01400048004080B586B000AFF8600A
:100FA0000B467A60FB72F86800F01EF90346FB7589
:100FB000FB7D013B042B00F2D68001A151F823F008
:100FC000D50F00082B100008251100086D1000082F
:100FD000C91000080120F9688122042300F062F999
:100FE0000346002B1BD1FB680333184601F07EFA41
:100FF00003463B613B694FF47A7202FB03F2614B9B
:10100000A3FB0213DB0B3B613B699BB2184600F06C
:10101000B9FE78685C49002200F0BEF8A9E0786863
:101020005A49002200F0B8F8A3E00120F9688122B3
:10103000042300F037F90346002B11D1FB6803337A
:10104000184601F007FB03463B613B699BB218461B
:1010500000F098FE78684C49002200F09DF888E086
:1010600078684A49002200F097F882E00120F96888
:101070008222002300F016F90346002B1ED1FB68E4
:1010800003331B78312B07D1414B1B7843F001030D
:10109000DAB23F4B1A700BE0FB6803331B78302B3E
:1010A00006D13B4B1B7823F00103DAB2384B1A70A0
:1010B00078683549002200F06FF85AE078683349C3
:1010C000002200F069F854E00120F9688222002330
:1010D00000F0E8F80346002B1ED1FB6803331B78B1
:1010E000312B07D12A4B1B7843F00203DAB2284B8D
:1010F0001A700BE0FB6803331B78302B06D1244BAE
:101100001B7823F00203DAB2214B1A7078681E496B
:10111000002200F041F82CE078681C49002200F021
:101120003BF826E00120F9688122032300F0BAF899
:101130000346002B11D1FB680333184601F08AFAED
:1011400003463B613B699BB2184601F035FC786869
:101150000D49002200F020F80BE078680B490022CE
:1011600000F01AF805E078680A49002200F014F847
:1011700000BF786801F0B4FF0346DBB218461837A9
:10118000BD4680BD018000807C34000880340008AA
:10119000880400209834000880B584B000AFF8605F
:1011A000B9607A60BB68002B03D0F868B96801F0B9
:1011B00039FF7B68002B07D07B681B78002B03D09E
:1011C000F868796801F008FFF86801F089FF0346C4
:1011D000FA681344034A1188927819809A7010377C
:1011E000BD4680BDAC34000880B485B000AF7860E7
:1011F00000237B7300233B737B681B78FB737B6846
:1012000001331B78BB73FB7B602B05D9FB7B7A2BEF
:1012100002D8FB7B203BFB73BB7B602B06D9BB7BDF
:101220007A2B03D8BB7B203BBB7326E025E07A7B7F
:101230001B4913465B0013449B000B441B681B783F
:10124000FA7B9A4216D17A7B154913465B00134408
:101250009B000B441B6801331B78BA7B9A4209D16F
:101260007A7B0F4913465B0013449B000B441B79A8
:101270003B730DE07B7B01337B737A7B084913461C
:101280005B0013449B000B441B681B78002BCED1E2
:101290003B7B18461437BD465DF8047B704700BFA2
:1012A0003434000880B584B000AF39600146F9716C
:1012B000BA717B71BB7903F00F037B723B68023319
:1012C000FB60FB681B78002B06D1FB79002B01D15A
:1012D000002345E1012343E1FB681B783D2B05D149
:1012E000FB680133FB600123FB721CE00B2337E139
:1012F00002E0FB680133FB60FB681B783D2B07D0E5
:10130000FB681B783B2B03D0FB681B78002BF0D1CC
:10131000FB681B78002B00D109E0FB680133FB6000
:10132000FB7A0133FB72FA7AFB799A42E0D3FA7ABC
:10133000FB799A4201D0022312E1FB681B782C2B27
:1013400001D10A230CE17B7A013B032B00F20781D8
:1013500001A252F823F000BF69130008FF13000830
:101360004D140008EF1400080023FB720EE0FB6828
:101370001B78184600F0F8F80346FF2B00D109E06F
:10138000FB680133FB60FB7A0133FB72FA7A7B79ED
:101390009A42ECD3FB7A002B01D10423E0E0FB68F6
:1013A0001B78002B07D1BB795BB2002B01DA00233D
:1013B000D6E00523D4E0FB681B78184600F0D4F88B
:1013C0000346FF2B01D00623CAE0FB681B782C2BB9
:1013D00009D0FB681B783D2B05D0BB795BB2002B95
:1013E00001DB0723BCE0FB681B78002B05D0BB7931
:1013F0005BB2002B01DA0823B2E00023B0E0FB6807
:101400001B78302B05D0FB681B78312B01D00923CA
:10141000A6E0FB680133FB60FB681B782C2B09D02E
:10142000FB681B783D2B05D0BB795BB2002B01DB41
:10143000072395E0FB681B78002B05D0BB795BB2D6
:10144000002B01DA08238BE0002389E0FB681B787E
:10145000612B0DD0FB681B78622B09D0FB681B78D1
:10146000412B05D0FB681B78422B01D0012377E08C
:10147000FB680133FB60BB795BB2002B05DBFB68CB
:101480001B78002B01D102236AE0BB795BB2002BF1
:1014900009DBFB681B783D2B05D0FB681B782C2BE8
:1014A00001D003235CE0BB795BB2002B09DBFB6856
:1014B0001B783D2B03D0FB681B782C2B01D100231C
:1014C0004EE0BB795BB2002B05DAFB681B78002B82
:1014D00001D0042344E0BB795BB2002B05DAFB6842
:1014E0001B78002B01D100233AE0052338E00023CC
:1014F000FB720023BB721AE0FB681B782D2B04D112
:10150000FB7A002B01D005232AE0FB681B782E2BE9
:1015100002D1BB7A0133BB72BB7A012B01D90523FF
:101520001EE0FB680133FB60FB7A0133FB72FB6852
:101530001B782F2B03D9FB681B78392BDCD9FB6870
:101540001B782E2BD8D0FB681B782D2BD4D0FB68B2
:101550001B78002B01D0052302E0002300E00323C9
:1015600018461037BD4680BD80B483B000AF034637
:10157000FB71FB79402B06D9FB79462B03D8FB790D
:10158000373BDBB214E0FB79602B06D9FB79662B85
:1015900003D8FB79573BDBB20AE0FB792F2B06D946
:1015A000FB79392B03D8FB79303BDBB200E0FF231A
:1015B00018460C37BD465DF8047B704780B489B08F
:1015C00000AF786039600023FB6100233B6100239A
:1015D000BB610023FB6000237B610023BB603B6891
:1015E000DB7803F00F03FB613B68DB7803F010034B
:1015F000002B04D03B689B78FA691343FB613B687E
:101600001B88DBB2002B44D07B681B687B61002306
:10161000BB6138E0BB69012202FA03F3FB603B685F
:101620001B881A46FB6813403B613A69FB689A4283
:1016300026D1BB699B00FB60FB680F2202FA03F313
:10164000BB60BB68DB437A6913407B61FB68FA6966
:1016500002FA03F37A6913437B613B68DB78282B3A
:1016600005D1BB6901229A407B685A6108E03B685A
:10167000DB78482B04D1BB6901229A407B681A6150
:10168000BB690133BB61BB69072BC3D97B687A692E
:101690001A603B681B88FF2B46D97B685B687B61BF
:1016A0000023BB613AE0BB690833012202FA03F36D
:1016B000FB603B681B881A46FB6813403B613A6934
:1016C000FB689A4227D1BB699B00FB60FB680F2235
:1016D00002FA03F3BB60BB68DB437A6913407B61AA
:1016E000FB68FA6902FA03F37A6913437B613B688A
:1016F000DB78282B05D1BB69083301229A407B682F
:101700005A613B68DB78482B05D1BB69083301225D
:101710009A407B681A61BB690133BB61BB69072BC7
:10172000C1D97B687A695A602437BD465DF8047B6D
:10173000704700BF80B483B000AF78600B467B80F9
:101740007A887B681A610C37BD465DF8047B704768
:1017500080B483B000AF78600B467B807A887B686A
:101760005A610C37BD465DF8047B704790B5BBB03D
:1017700000AF01F089F8FFF7A1FAFFF7CFFAFFF702
:1017800063FBFFF769FAFFF7B3FBFFF719FB00F004
:10179000D5FA774B00221A70764B00221A70764BDE
:1017A00000221A70754B00221A70502001F004F9C3
:1017B0000023C7F8E43004E0D7F8E4300133C7F879
:1017C000E430D7F8E4206E4B9A42F5DD0023C7F8E9
:1017D000E43004E0D7F8E4300133C7F8E430D7F858
:1017E000E420674B9A42F5DD0023C7F8E43004E0BB
:1017F000D7F8E4300133C7F8E430D7F8E420604B81
:101800009A42F5DD0023C7F8E43004E0D7F8E4306D
:101810000133C7F8E430D7F8E420594B9A42F5DD9C
:101820000023C7F8E43004E0D7F8E4300133C7F808
:10183000E430D7F8E420524B9A42F5DD0023C7F894
:10184000E43004E0D7F8E4300133C7F8E430D7F8E7
:10185000E4204B4B9A42F5DD4A480121FEF7EAFDB0
:1018600000F07EFF484B42221A70484B57221A70F4
:10187000474B1B7843F00103DAB2454B1A70454BD6
:101880001B78002B0BD0434B1B783F48194600F0C8
:10189000A7F8394B01221A703E4B00221A703E4BBA
:1018A0001B78002B02D03C4B00221A70324B1B7865
:1018B000002B5BD0304B00221A7001F08DF80346EC
:1018C0001C4601F061F80346E31A184601F04AF994
:1018D0000346C7F8E03007F178031846D7F8E01060
:1018E00000F0ECFE07F1780318462C4900F0B2F83E
:1018F00000F058FA0346A7F8DE3007F16402B7F8A3
:10190000DE301046194600F001FE07F16403184668
:10191000224900F09FF807F1780207F164031046AE
:10192000194600F097F801F03BF80346A7F8DE30BF
:1019300007F16402B7F8DE301046194600F0E6FD04
:1019400007F1780207F164031046194600F082F8A7
:1019500007F178023B46002011461A4600F0DAF8FB
:101960003B4618460E4900F01DF888E787E700BFA0
:101970008804002087040020890400207C040020C3
:101980003F420F0000100040F00400208C040020B3
:101990005C0400208604002080040020B03400088D
:1019A0000038014080B582B000AF7860396010E047
:1019B0007B681B783868194600F022FB7B6801338E
:1019C0007B6000BF3868402100F03CFB0346002BE1
:1019D000F8D07B681B78002BEAD10837BD4680BD64
:1019E00080B584B000AF78600B467B807B887A68D6
:1019F000134400221A707B6801331B78303BFB7361
:101A0000FB7B092B1FD8FB7BFA7B10498A5C42F0D9
:101A10000102D1B20D4AD154FB7BFA7B0B498A5C9F
:101A200022F00202D1B2094AD1547B685A1DFB7BD5
:101A300010461946064AFFF7AFFA03467B807B88BB
:101A4000034A0021D1541037BD4680BD5C040020FC
:101A50002006002080B485B000AF78603960002394
:101A6000FB730023BB7302E0BB7B0133BB73BB7B07
:101A70007A6813441B78002BF6D10023FB730CE02B
:101A8000BA7BFB7B13447A681344FA7B39680A44B7
:101A900012781A70FB7B0133FB73FB7B3A681344AB
:101AA0001B78002BECD1BA7BFB7B13447A68134480
:101AB00000221A70BA7BFB7B1344DBB21846143742
:101AC000BD465DF8047B704780B485B000AF786098
:101AD00039600023FB730AE0FB7B7A681344FA7BCE
:101AE00039680A4412781A70FB7B0133FB73FB7B65
:101AF0003A6813441B78002BEED1FB7B7A681344C1
:101B000000221A70FB7B18461437BD465DF8047B33
:101B1000704700BF80B586B000AF0346B9607A60F9
:101B2000FB73FB7B3033DAB27B681A707B6804335B
:101B30001846B968FFF7C8FF0346FB75FB7D07F140
:101B400010021046194600F043FD7B680133BA7C51
:101B50001A707B680233FA7C1A707B6803333A7D13
:101B60001A701837BD4680BD80B489B000AF786068
:101B70000023FB610023BB6100237B6100233B61E9
:101B80000023FB604A4B5B6803F00C03FB61FB69BD
:101B9000042B07D0082B09D0002B2FD17B68454A96
:101BA0001A602FE07B68434A1A602BE0404B5B6869
:101BB00003F47013BB613E4B5B6803F480337B61BD
:101BC000BB699B0C0233BB617B69002B06D1BB69EF
:101BD000394A02FB03F27B681A6013E0344BDB6A7C
:101BE00003F00F030133FB60324AFB68B2FBF3F3EF
:101BF000BA6902FB03F27B681A6003E07B682D4A36
:101C00001A6000BF2A4B5B6803F0F003FB61FB69BD
:101C10001B09FB61294AFB6913441B78DBB23B615A
:101C20007B681A683B69DA407B685A60204B5B68C6
:101C300003F4E063FB61FB691B0AFB611F4AFB695C
:101C400013441B78DBB23B617B685A683B69DA401E
:101C50007B689A60164B5B6803F46053FB61FB6919
:101C6000DB0AFB61154AFB6913441B78DBB23B615D
:101C70007B685A683B69DA407B68DA600C4B5B68CA
:101C800003F44043FB61FB699B0BFB610C4AFB695E
:101C900013441B78DBB23B617B68DA683B69B2FBBB
:101CA000F3F27B681A612437BD465DF8047B704708
:101CB0000010024000127A0000093D0014000020CC
:101CC0002400002080B483B000AF78600B46FB7026
:101CD000FB78002B06D0094B084A91697A680A43C1
:101CE0009A6106E0054B054A91697A68D2430A4039
:101CF0009A610C37BD465DF8047B704700100240C6
:101D000080B483B000AF78600B46FB70FB78002B8B
:101D100006D0094B084AD1697A680A43DA6106E0BD
:101D2000054B054AD1697A68D2430A40DA610C371B
:101D3000BD465DF8047B70470010024080B500AFDF
:101D400005484021FFF7F6FC04488021FFF700FD1D
:101D5000002000F017F880BD000C01400010014089
:101D600080B500AF04484021FFF7E4FC034B044A70
:101D700012889A8780BD00BF000C0140000400401B
:101D80008A04002080B582B000AF0346FB80044B7C
:101D9000FA881A80FFF7E4FF0837BD4680BD00BF10
:101DA0008A04002080B400AF034B1B881846BD4650
:101DB0005DF8047B704700BF8A04002080B58CB0BA
:101DC00000AF786039600023FB620023BB62002310
:101DD0007B6200233B620023FB617B68FB617B68C5
:101DE0001B8A9BB2FB62FA6A4CF6FF731340FB62DC
:101DF0003B68DB88FA6A1343FB62FB6A9AB27B6832
:101E00001A827B689B899BB2FB62FA6A4EF6F313D7
:101E10001340FB623B689A883B681B8913439AB264
:101E20003B685B8913439BB2FA6A1343FB62FB6A0C
:101E30009AB27B689A817B689B8A9BB2FB62FA6A42
:101E40004FF6FF431340FB623B689B89FA6A1343DA
:101E5000FB62FB6A9AB27B689A8207F10803184614
:101E6000FFF782FEFA69304B9A4202D17B69BB626E
:101E700001E03B69BB627B689B899BB29BB21BB252
:101E8000002B0CDABA6A13469B0013449A001A44DA
:101E90003B681B685B00B2FBF3F37B620BE0BA6A42
:101EA00013469B0013449A001A443B681B689B002E
:101EB000B2FBF3F37B627A6A1C4BA3FB02135B0950
:101EC0001B01FB62FB6A1B09642202FB03F37A6AB3
:101ED000D31A3B627B689B899BB29BB21BB2002BDF
:101EE0000DDA3B6ADB0003F13202104BA3FB021355
:101EF0005B0903F00703FA6A1343FB620CE03B6AD9
:101F00001B0103F13202094BA3FB02135B0903F02F
:101F10000F03FA6A1343FB62FB6A9AB27B681A8169
:101F20003037BD4680BD00BF003801401F85EB51F2
:101F300080B483B000AF78600B46FB70FB78002B59
:101F400008D07B689B899BB243F400539AB27B68AC
:101F50009A8107E07B689B899BB223F400539AB275
:101F60007B689A810C37BD465DF8047B704700BFE3
:101F700080B487B000AF786013460A467A807B70E1
:101F800000233B610023FB600023BB6000237B61D7
:101F90007B687B617B88DBB25B09DBB23B617B8862
:101FA00003F01F03FB60FB68012202FA03F3BB602E
:101FB0003B69012B03D17B690C337B6109E03B69F1
:101FC000022B03D17B6910337B6102E07B69143300
:101FD0007B617B78002B06D07B697A691168BA68CF
:101FE0000A431A6006E07B697A691168BA68D243CD
:101FF0000A401A601C37BD465DF8047B704700BF7D
:1020000080B483B000AF78600B467B807B88C3F3DD
:1020100008039AB27B689A800C37BD465DF8047B52
:10202000704700BF80B483B000AF78607B689B8846
:102030009BB2C3F308039BB218460C37BD465DF84C
:10204000047B704780B485B000AF78600B467B801E
:102050000023FB737B681B889AB27B8813409BB27A
:10206000002B02D00123FB7301E00023FB73FB7BF9
:1020700018461437BD465DF8047B704780B500AF45
:102080004FF080400121FEF739FB80BD80B500AFE5
:1020900005480121FEF708FB0346012B03D1024846
:1020A0000121FEF72BFB80BD0008004080B500AF8A
:1020B0000B480121FEF7DCFA09480121FEF71EFB5F
:1020C000084B1B780133DAB2064B1A70054B1B78AC
:1020D000082B04D100F044FB024B00221A7080BD93
:1020E000001000407604002080B500AF14480121A4
:1020F000FEF7BEFA12480121FEF700FB114B1B88C8
:10210000002B06D10F4B1B8801339AB20D4B1A805E
:1021100015E00C4B1B88012B11D109480021FEF75B
:1021200089F909484FF48071FFF712FB0448002138
:10213000FEF700FA034B00221A8000F023FB80BD5B
:102140000014004078040020000C014080B500AF6E
:1021500030480221FEF78CFA2E480221FEF7CEFA13
:102160002D4B1B88002B0DD12A48FEF765FA03463C
:102170001A462A4B1A80284B1B8801339AB2264BE9
:102180001A8045E02348FEF757FA03461A46244BC7
:102190001A80214B00221A80214B1B889AB21F4BB8
:1021A0001B889BB29A420BD91D4B1B889BB21A46C7
:1021B0001A4B1B889BB2D31A1A461A4B1A6017E0A7
:1021C000174B1B889AB2154B1B889BB29A420CD2B4
:1021D000124B1B889BB2C3F58032114B1B889BB2FC
:1021E00013441A460F4B1A6002E00E4B00221A608D
:1021F0000C4B1B68002B0BD00A4B1A6813469B0034
:102200001A44084B1A60074B1B68184600F08EFBF7
:1022100080BD00BF0044014074040020640400201D
:10222000660400206804002080B582B000AF1F4B18
:102230001B889BB203F02003002B34D01B48FFF710
:10224000F1FE0346FB71FB79082B13D1184B1B7869
:10225000012B28D9164B1B78164A0021D154144B58
:102260001B78013BDAB2124B1A7010480D21FFF7B0
:10227000C7FE18E0FB790A2B0AD10F4B00221A7017
:102280000B4B1A780D4B1A70094B01221A700AE099
:10229000074B1B78074AF979D154054B1B7801335A
:1022A000DAB2034B1A700837BD4680BD00380140D2
:1022B00028000020F004002087040020860400206D
:1022C00080B582B000AF174B1B889BB203F0200390
:1022D000002B23D01348FFF7A5FE0346FB71124BDA
:1022E0001B88124AF979D1540F4B1B880F4AD35CD3
:1022F0000A2B0DD10C4B1B88DAB20D4B1A700A4B0E
:102300001B880A4A0021D154074B01221A8005E09C
:10231000054B1B8801339AB2034B1A800837BD4620
:1023200080BD00BF004800402A0000208C0400202F
:102330008004002080B500AF2D481021FEF7B4F9CD
:102340000346012B52D12A481021FEF7D7F9294B19
:102350001B889AB2284B1A802548FEF77BF9034662
:102360001A46244B1A80234B1B889AB2224B1B8897
:102370009BB29A420BD91F4B1B889BB21A461E4B2D
:102380001B889BB2D31A1A461C4B1A6017E0194BD4
:102390001B889AB2184B1B889BB29A420CD2164BE0
:1023A0001B889BB2C3F58032124B1B889BB213442F
:1023B0001A46124B1A6002E0104B00221A60104BB2
:1023C0001A6813461B019B1A9B00DA080D4BA3FBEE
:1023D00002139A08094B1B68B2FBF3F2074B1A6011
:1023E000064B1B689BB2184600F0BEFA80BD00BFCA
:1023F000002C01406E0400206C04002070040020BA
:1024000000000020176CC11680B483B000AF786064
:10241000054A7B6843F0BF6343F40033D3600C3755
:10242000BD465DF8047B704700ED00E080B487B0E6
:1024300000AF786000237B6100233B610F23FB60CA
:102440007B68DB78002B38D0264BDB68DB4303F45A
:10245000E0631B0A7B617B69C3F104033B617B6919
:10246000FA6822FA03F3FB607B685B781A463B69E3
:1024700002FA03F37B617B689B781A46FB68134082
:102480007A6913437B617B691B017B6116497B6819
:102490001B787A69D2B20B4483F80023124B7A6816
:1024A00012785209D2B27968097801F01F0101202F
:1024B00000FA01F143F822100EE00B4B7A68127813
:1024C0005209D2B27968097801F01F01012000FA9F
:1024D00001F1203243F822101C37BD465DF8047B21
:1024E000704700BF00ED00E000E100E080B584B07F
:1024F00000AF786078680021102200F0ABFE034640
:10250000FB81FB8918461037BD4680BD80B485B07D
:1025100000AF78600B467B807B88002B07D17B68FF
:1025200030221A707B68013300221A7049E00123BF
:10253000FB731CE0FB7BC3F105037A68D0187A8833
:10254000224BA3FB0213D9080B469B000B445B00F4
:10255000D31A9BB2DBB23033DBB203707A881B4BE9
:10256000A3FB0213DB087B80FB7B0133FB73FB7B4C
:10257000052BDFD9FB7B013B7A68134400221A70DC
:102580000023FB7302E0FB7B0133FB73FB7B7A6868
:1025900013441B78302BF6D00023BB730CE0BB7BBD
:1025A0007A681344F97BBA7B0A4479680A44127842
:1025B0001A70BB7B0133BB73FA7BBB7B1344052BC7
:1025C000EDDD1437BD465DF8047B7047CDCCCCCC37
:1025D00080B485B000AF78600B467B807B88002B91
:1025E00007D17B6830221A707B68013300221A7091
:1025F00028E00123FB731CE0FB7BC3F105037A6831
:10260000D0187A88124BA3FB0213D9080B469B0003
:102610000B445B00D31A9BB2DBB23033DBB20370E6
:102620007A880B4BA3FB0213DB087B80FB7B013317
:10263000FB73FB7B052BDFD9FB7B013B7A681344E3
:1026400000221A701437BD465DF8047B704700BF46
:10265000CDCCCCCC80B584B000AF786000237B7249
:102660000023BB81786800F03BFD0346FB73FB7BD6
:10267000042B01D900231DE001237B8116E0FB7BA5
:10268000013B7A6813441B78303B9BB27A8902FB8A
:1026900003F39AB2BB891344BB817B891A4692002B
:1026A00013445B007B81FB7B013BFB73FB7B002BBB
:1026B000E5D1BB8918461037BD4680BD90B585B0C1
:1026C00000AF7860396038684FF0000100F03CFCE2
:1026D0000346002B09D07B682D221A707B680133DA
:1026E0007B603B6883F000433B60386800F054FC3B
:1026F00003469BB278681946FFF708FF786800F038
:10270000EFFC0346FB73FB7B7A6813442C221A70A0
:10271000386800F041FC03469BB2184600F022FAEC
:1027200003463868194600F067F903463B6038688D
:102730000A4900F06BFA03463B60FB7B01337A6881
:10274000D418386800F028FC03469BB2204619468E
:10275000FFF73EFF1437BD4690BD00BF00401C464A
:1027600080B500AF00F072F804484FF48071FEF7B6
:10277000E1FF03480121FDF75DFE80BD000C014033
:102780000014004080B588B000AF2E48012100221F
:10279000FDF770FE2B4802210022FDF76BFE4FF47F
:1027A00000300121FFF78EFA09200121FFF78AFA94
:1027B0004FF48073BB830423FB770323BB7707F1BC
:1027C0001C0321481946FEF7F9FE07F110031846CD
:1027D000FDF7FEFD77233B8207F1100319481946E8
:1027E000FDF7A0FC3B1D1846FDF70CFE0023BB8047
:1027F0000023BB810A23FB8000237B8101233B81D3
:102800003B1D10481946FDF78FFD19233B7001232E
:10281000FB7000237B700023BB703B461846FFF71C
:1028200005FE08480121FDF705FE06480221FDF7D7
:1028300065FF044802210122FDF71CFE2037BD463A
:1028400080BD00BF00440140000C014080B582B053
:1028500000AF08200121FFF735FA4FF48073BB80E9
:102860001023FB710323BB713B1D06481946FEF77D
:10287000A5FE04484FF48071FEF76AFF0837BD4695
:1028800080BD00BF000C014080B588B000AF40F6AD
:1028900005000121FFF716FA4FF40063BB83042300
:1028A000FB770323BB7707F11C031E481946FEF78D
:1028B00085FE07F110031846FDF78AFD40F2671305
:1028C0003B8207F1100318481946FDF72BFC0C2337
:1028D000BB800023BB810023FB8000237B8101237D
:1028E0003B813B1D10481946FDF71EFD4FF4C060AB
:1028F000FFF78AFD1B233B700123FB7000237B70D5
:102900000123BB703B461846FFF790FD0648102197
:102910000122FDF7AFFD04480121FDF78BFD2037B3
:10292000BD4680BD00080140002C014080B483B04A
:1029300000AF78607B684FF4AC7202FB03F2084B87
:10294000A3FB02139B0B7B607B68002B03D07B688F
:102950009AB2044B1A800C37BD465DF8047B704771
:102960005917B7D17E04002080B483B000AF03466E
:10297000FB80044BFA881A800C37BD465DF8047B57
:10298000704700BF8204002080B400AF034B1B8857
:102990001846BD465DF8047B704700BF7E040020EA
:1029A00080B400AF034B1B881846BD465DF8047B1E
:1029B000704700BF8204002080B483B000AF03469C
:1029C000FB80044BFA881A800C37BD465DF8047B07
:1029D000704700BF8404002080B400AF034B1B8805
:1029E0001846BD465DF8047B704700BF8404002094
:1029F00080F0004002E000BF81F0004142001FBFB4
:102A00005FEA410392EA030F7FEA226C7FEA236CBC
:102A10006AD04FEA1262D2EB1363C1BFD2184140B1
:102A200048404140B8BF5B42192B88BF704710F047
:102A3000004F40F4000020F07F4018BF404211F0EA
:102A4000004F41F4000121F07F4118BF494292EA52
:102A5000030F3FD0A2F1010241FA03FC10EB0C007E
:102A6000C3F1200301FA03F100F0004302D549420B
:102A700060EB4000B0F5000F13D3B0F1807F06D3B8
:102A800040084FEA310102F10102FE2A51D2B1F1B0
:102A9000004F40EBC25008BF20F0010040EA0300A5
:102AA0007047490040EB000010F4000FA2F1010252
:102AB000EDD1B0FA80FCACF1080CB2EB0C0200FADC
:102AC0000CF0AABF00EBC25052421843BCBFD0402A
:102AD0001843704792F0000F81F4000106BF80F4A4
:102AE00000000132013BB5E74FEA41037FEA226C67
:102AF00018BF7FEA236C21D092EA030F04D092F032
:102B0000000F08BF0846704790EA010F1CBF002065
:102B1000704712F07F4F04D1400028BF40F00040C2
:102B2000704712F100723CBF00F50000704700F0E2
:102B3000004343F0FE4040F4000070477FEA226209
:102B400016BF08467FEA23630146420206BF5FEADA
:102B5000412390EA010F40F4800070474FF00003DA
:102B600004E000BF10F0004348BF40425FEA000CA1
:102B700008BF704743F0964301464FF000001CE049
:102B800050EA010208BF70474FF000030AE000BF9F
:102B900050EA010208BF704711F0004302D54042DD
:102BA00061EB41015FEA010C02BF8446014600204F
:102BB00043F0B64308BFA3F18053A3F50003BCFA6A
:102BC0008CF2083AA3EBC25310DB01FA02FC634417
:102BD00000FA02FCC2F12002BCF1004F20FA02F21E
:102BE00043EB020008BF20F00100704702F1200211
:102BF00001FA02FCC2F1200250EA4C0021FA02F272
:102C000043EB020008BF20EADC7070474FF0FF0C76
:102C10001CEAD0521EBF1CEAD15392EA0C0F93EA71
:102C20000C0F6FD01A4480EA010C400218BF5FEA13
:102C300041211ED04FF0006343EA501043EA511186
:102C4000A0FB01310CF00040B1F5000F3EBF490080
:102C500041EAD3715B0040EA010062F17F02FD2A84
:102C60001DD8B3F1004F40EBC25008BF20F0010067
:102C7000704790F0000F0CF0004C08BF49024CEA7E
:102C8000502040EA51207F3AC2BFD2F1FF0340EA10
:102C9000C250704740F400004FF00003013A5DDC81
:102CA00012F1190FDCBF00F000407047C2F10002C2
:102CB000410021FA02F1C2F1200200FA02FC5FEAAF
:102CC000310040F1000053EA4C0308BF20EADC70F9
:102CD000704792F0000F00F0004C02BF400010F46B
:102CE000000F013AF9D040EA0C0093F0000F01F018
:102CF000004C02BF490011F4000F013BF9D041EA3A
:102D00000C018FE70CEAD15392EA0C0F18BF93EA3B
:102D10000C0F0AD030F0004C18BF31F0004CD8D165
:102D200080EA010000F00040704790F0000F17BFEC
:102D300090F0004F084691F0000F91F0004F14D032
:102D400092EA0C0F01D142020FD193EA0C0F03D18A
:102D50004B0218BF084608D180EA010000F000408D
:102D600040F0FE4040F40000704740F0FE4040F468
:102D7000400070474FF0FF0C1CEAD0521EBF1CEA07
:102D8000D15392EA0C0F93EA0C0F69D0A2EB030225
:102D900080EA010C49024FEA402037D04FF08053BF
:102DA00043EA111143EA10130CF000408B4238BF84
:102DB0005B0042F17D024FF4000C8B4224BF5B1A92
:102DC00040EA0C00B3EB510F24BFA3EB510340EAE0
:102DD0005C00B3EB910F24BFA3EB910340EA9C008E
:102DE000B3EBD10F24BFA3EBD10340EADC001B01FE
:102DF00018BF5FEA1C1CE0D1FD2A3FF650AF8B42A2
:102E000040EBC25008BF20F0010070470CF0004CAE
:102E10004CEA50207F32C2BFD2F1FF0340EAC250D9
:102E2000704740F400004FF00003013A37E792F09A
:102E3000000F00F0004C02BF400010F4000F013AF8
:102E4000F9D040EA0C0093F0000F01F0004C02BFF3
:102E5000490011F4000F013BF9D041EA0C0195E75C
:102E60000CEAD15392EA0C0F08D142027FF47DAFF5
:102E700093EA0C0F7FF470AF084676E793EA0C0FE5
:102E800004D14B023FF44CAF08466EE730F0004CE3
:102E900018BF31F0004CCAD130F000427FF45CAF73
:102EA00031F000437FF43CAF5FE700BF4FF0FF3CE1
:102EB00006E000BF4FF0010C02E000BF4FF0010C34
:102EC0004DF804CD4FEA40024FEA41037FEA226CFD
:102ED00018BF7FEA236C11D001B052EA530C18BF1F
:102EE00090EA010F58BFB2EB030088BFC81738BF84
:102EF0006FEAE17018BF40F0010070477FEA226C72
:102F000002D15FEA402C05D17FEA236CE4D15FEA6D
:102F1000412CE1D05DF8040B704700BF84460846A1
:102F20006146FFE70FB5FFF7C9FF002848BF10F162
:102F3000000F0FBD4DF808EDFFF7F4FF0CBF0120A7
:102F400000205DF808FB00BF4DF808EDFFF7EAFF31
:102F500034BF012000205DF808FB00BF4DF808EDEC
:102F6000FFF7E0FF94BF012000205DF808FB00BFE1
:102F70004DF808EDFFF7D2FF94BF012000205DF867
:102F800008FB00BF4DF808EDFFF7C8FF34BF012074
:102F900000205DF808FB00BF42000ED2B2F1FE4FE8
:102FA0000BD34FF09E03B3EB126209D44FEA002318
:102FB00043F0004323FA02F070474FF000007047DF
:102FC00012F1610F01D1420202D14FF0FF30704780
:102FD0004FF00000704700BF830770B506461FD151
:102FE0000368A3F1013222EA030313F0803F08BF14
:102FF000031D15D1184653F8044BA4F1013525EAF9
:10300000040414F0803FF5D003782BB1431C1C78E6
:1030100018460133002CFAD100F004F8304670BD98
:103020003046F1E780EA0102844612F0030F4FD1E7
:1030300011F0030F32D14DF8044D11F0040F51F887
:10304000043B0BD0A3F101329A4312F0803F04BF3E
:103050004CF8043B51F8043B16D100BF51F8044B27
:10306000A3F101329A4312F0803FA4F101320BD157
:103070004CF8043BA24312F0803F04BF51F8043BDC
:103080004CF8044BEAD023460CF8013B13F0FF0F39
:103090004FEA3323F8D15DF8044B704711F0010F6C
:1030A00006D011F8012B0CF8012B002A08BF70473D
:1030B00011F0020FBFD031F8022B12F0FF0F16BF34
:1030C0002CF8022B8CF8002012F47F4FB3D17047FC
:1030D00011F8012B0CF8012B002AF9D1704700BF21
:1030E00020F0030110F00300C0F1000051F8043B90
:1030F00000F1040C4FEACC0C6FF000021CBF22FA66
:103100000CF213434FF0010C4CEA0C2C4CEA0C4C23
:10311000A3EB0C0222EA030212EACC1204BF51F81C
:10312000043B0430F4D013F0FF0F1FBF013013F441
:103130007F4F013013F47F0F18BF0130704700BF7D
:103140002DE9F00F424C82B0D4F800C001900E4639
:1031500000E02646344614F8015B0CEB050040788D
:1031600000F0080000F0FF0A0028F2D12D2D5BD0FE
:103170002B2D04BF7578B41C33F010003CD0994659
:10318000BAF1000F0CBF6FF0004B4FF0004BBBFBD0
:10319000F9F8002709FB18BB38460CE0303DAB427C
:1031A00019DD7E1C05D0404523D820D009FB0050F6
:1031B000012714F8015B0CEB0506767816F0040F76
:1031C000ECD116F0030606D0012E14BF5726372681
:1031D000AD1BAB42E5DC7B1C15D0BAF1000F21D151
:1031E0000AB1EFB9116002B0BDE8F00F70475D455C
:1031F000DCDD4FF0FF37DCE7302D1AD0002BBED1DD
:103200000A239946BCE70199BAF1000F4FF0220357
:103210000CBF6FF000404FF000400B60002AE2D07E
:10322000611EDFE74042DBE7B41C75784FF0010A0E
:10323000A2E7207800F0DF00582803D0002B9ED1B1
:1032400008239CE7102365789946023498E700BF6D
:103250002C00002030B4044C0D46134601462A468B
:10326000206830BCFFF76CBF5804002053500000AA
:103270002F53706565642F204D6F746F72207370CB
:10328000656564202864757479206379636C6529A9
:1032900020676976656E20696E20686578612C20EC
:1032A00072616E67653A203078303030202D2030E2
:1032B00078464646462E2028652E672E2053503DE0
:1032C0003132414229000000444300002F4475740C
:1032D00079204379636C652F204D6F746F72207372
:1032E00070656564202864757479206379636C6502
:1032F0002920676976656E20696E20646563696D53
:10330000616C2C2072616E67653A20302D3130304F
:10331000205B255D2E2028652E672E2044433D35F9
:1033200030290000475300002F4765742053706513
:1033300065642F2047657474696E67207468652022
:103340006D6F746F722073706565642028696E20DC
:1033500052504D2920697320656E61626C6564204E
:10336000283129206F722064697361626C65642062
:103370002830292E2028652E672E2047533D3029DE
:1033800000000000474400002F4765742044697323
:1033900074616E63652047657474696E6720746834
:1033A000652064697374616E63652028696E2063AB
:1033B0006D2920697320656E61626C656420283117
:1033C00029206F722064697361626C656420283003
:1033D000292E2028652E672E2047443D30290000E5
:1033E000525000002F5265666572656E63652070ED
:1033F0006F736974696F6E2F2053657420726566F0
:103400006572656E636520706F736974696F6E2E87
:10341000204D696E696D756D20323020636D2C20F2
:103420006D6178696D756D2031343020636D2E00CB
:10343000000000006C32000801000000703200083B
:10344000C832000802000000CC3200082433000813
:103450000400000028330008843300080500000041
:1034600088330008E033000803000000E43300085C
:1034700030340008000000000000000045303D002E
:1034800045323D496E76616C696420706172616D90
:10349000657465720000000045333D556E6B6E6FBC
:1034A000776E20636F6D6D616E6400000D0A000021
:1034B0003B00000000202020202020202020282861
:1034C00028282820202020202020202020202020E4
:1034D0002020202020881010101010101010101024
:1034E0001010101010040404040404040404041054
:1034F00010101010101041414141414101010101E2
:1035000001010101010101010101010101010101AB
:1035100010101010101042424242424202020202B7
:10352000020202020202020202020202020202027B
:10353000101010102000000000000000000000002B
:10354000000000000000000000000000000000007B
:10355000000000000000000000000000000000006B
:10356000000000000000000000000000000000005B
:10357000000000000000000000000000000000004B
:10358000000000000000000000000000000000003B
:10359000000000000000000000000000000000002B
:1035A000000000000000000000000000000000001B
:0C35B000000000000000000043000000CC
:1035BC0000366E0100000000000000000102030450
:1035CC0006070809000000000102030401020304BD
:1035DC00060708090204060801000100B4340008BB
:1035EC00000000001C03002084030020EC030020DA
:1035FC0000000000000000000000000000000000BF
:10360C0000000000000000000000000000000000AE
:10361C0000000000B83500080000000000000000A9
:10362C00000000000000000000000000000000008E
:10363C00000000000000000000000000000000007E
:10364C00000000000000000000000000000000006E
:10365C00000000000000000000000000000000005E
:10366C00000000000000000000000000000000004E
:10367C00000000000000000000000000000000003E
:10368C00000000000000000001000000000000002D
:10369C000E33CDAB34126DE6ECDE05000B000000F2
:1036AC00000000000000000000000000000000000E
:1036BC0000000000000000000000000000000000FE
:1036CC0000000000000000000000000000000000EE
:1036DC0000000000000000000000000000000000DE
:0C3A0C000000000000000000300000205E
:0400000508000000EF
:00000001FF
