:020000040800F2
:10000000E8110020A50A0008050B0008050B0008F0
:10001000050B0008050B0008050B00080000000098
:10002000000000000000000000000000050B0008B8
:10003000050B000800000000050B0008050B000878
:10004000050B0008050B0008050B0008050B000850
:10005000050B0008050B0008050B0008050B000840
:10006000050B0008050B0008050B0008050B000830
:10007000050B0008050B0008050B0008050B000820
:10008000050B0008050B0008050B00080000000028
:10009000000000000000000000000000050B000848
:1000A000050B000805210008050B0008E5220008E3
:1000B00015200008050B000825200008050B000886
:1000C000050B0008050B0008050B0008050B0008D0
:1000D000050B0008D9210008050B00087122000853
:1000E000050B0008050B0008050B000800000000C8
:1000F0000000000000000000000000000000000000
:1001000000000000000000000000000000000000EF
:10011000000000000000000051200008A12000089D
:100120005FF808F180B485B000AF786039600023D3
:10013000FB817B681B88FB817A682E4B9A4213D027
:100140007A682D4B9A420FD07B68B3F1804F0BD069
:100150007A682A4B9A4207D07A68294B9A4203D090
:100160007A68284B9A4208D1FB8923F07003FB81FF
:100170003B685A88FB891343FB817A68224B9A4279
:100180000CD07A68214B9A4208D0FB8923F4407343
:10019000FB813B68DA88FB891343FB817B68FA8922
:1001A0001A803B689A887B689A853B681A887B68C6
:1001B0001A857A680F4B9A420FD07A680E4B9A4292
:1001C0000BD07A68124B9A4207D07A68114B9A4248
:1001D00003D07A68104B9A4204D13B681B7A1A46C6
:1001E0007B681A867B6801229A821437BD465DF8C7
:1001F000047B7047002C01400034014000040040A3
:1002000000080040000C00400010004000140040B6
:1002100000400140004401400048014080B485B0E6
:1002200000AF7860396000237B810023FB810023CD
:10023000BB817B681B8C9BB223F480739AB27B6872
:100240001A847B681B8CFB817B689B88BB817B68E5
:100250009B8B7B817B8923F070037B817B8923F0DF
:1002600003037B813B681A887B8913437B81FB896D
:1002700023F40073FB813B681B891B029AB2FB8944
:100280001343FB813B685B881B029AB2FB891343D3
:10029000FB817A68224B9A4203D07A68214B9A42BA
:1002A0002BD1FB8923F40063FB813B685B891B0234
:1002B0009AB2FB891343FB81FB8923F48063FB81A2
:1002C0003B689B881B029AB2FB891343FB81BB8965
:1002D00023F48053BB81BB8923F40053BB813B686B
:1002E0009B891B019AB2BB891343BB813B68DB89A5
:1002F0001B019AB2BB891343BB817B68BA899A8080
:100300007B687A899A833B68DA887B689A877B68FE
:10031000FA891A841437BD465DF8047B704700BF24
:10032000002C01400034014080B582B000AF7860FD
:1003300039603B681B88002B0FD13B6859883B68AC
:100340009A883B681B89786800F0E8F93B68DB888D
:100350007868194600F0FCF836E03B681B88042BEF
:100360000FD13B6859883B689A883B681B8978683D
:1003700000F03EFA3B68DB887868194600F004F923
:1003800022E03B681B88082B0FD13B6859883B68EB
:100390009A883B681B89786800F09EFA3B68DB8886
:1003A0007868194600F00EF90EE03B6859883B6802
:1003B0009A883B681B89786800F0FEFA3B68DB8806
:1003C0007868194600F01AF90837BD4680BD00BFAD
:1003D00080B483B000AF78607B684FF6FF729A807C
:1003E0007B6800221A807B680022DA807B6800220A
:1003F0005A807B6800221A720C37BD465DF8047B78
:10040000704700BF80B483B000AF78607B68002283
:100410001A807B6800225A807B6801229A807B6860
:100420000022DA807B6800221A810C37BD465DF815
:10043000047B704780B483B000AF78600B46FB70DC
:10044000FB78002B08D07B681B889BB243F001032C
:100450009AB27B681A8007E07B681B889BB223F006
:1004600001039AB27B681A800C37BD465DF8047BA5
:10047000704700BF80B483B000AF786013460A466F
:100480007A807B707B78002B08D07B689B899AB23E
:100490007B8813439AB27B689A8109E07B689B89C9
:1004A0009AB27B88DB439BB213409AB27B689A81F5
:1004B0000C37BD465DF8047B704700BF80B483B045
:1004C00000AF78600B46FB70FB78002B08D07B6890
:1004D0001B889BB243F080039AB27B681A8007E0C6
:1004E0007B681B889BB223F080039AB27B681A80DA
:1004F0000C37BD465DF8047B704700BF80B485B003
:1005000000AF78600B467B800023FB817B689B8B70
:10051000FB81FB8923F00803FB81FA897B88134365
:10052000FB817B68FA899A831437BD465DF8047BAA
:10053000704700BF80B483B000AF78600B467B800B
:100540007B687A889A840C37BD465DF8047B7047D7
:1005500080B483B000AF78600B467B807B681B8BD8
:100560009BB223F00C039AB27B681A837B681B8BC7
:100570009AB27B8813439AB27B681A830C37BD46C4
:100580005DF8047B704700BF80B483B000AF786033
:100590000B467B807B681B8B9BB223F440639AB233
:1005A0007B681A837B681B8B9AB27B881B029BB289
:1005B00013439AB27B681A830C37BD465DF8047BFF
:1005C000704700BF80B483B000AF78600B467B807B
:1005D0007B689B8B9BB223F00C039AB27B689A8357
:1005E0007B689B8B9AB27B8813439AB27B689A8311
:1005F0000C37BD465DF8047B704700BF80B483B004
:1006000000AF78600B467B807B689B8B9BB223F4AA
:1006100040639AB27B689A837B689B8B9AB27B8893
:100620001B029BB213439AB27B689A830C37BD4678
:100630005DF8047B704700BF80B483B000AF786082
:100640007B689B8E9BB218460C37BD465DF8047BD9
:10065000704700BF80B483B000AF78607B68B3F8A8
:1006600040309BB218460C37BD465DF8047B70479E
:1006700080B485B000AF78600B467B800023FB73AD
:100680007B681B8A9AB27B8813409BB2002B02D0F6
:100690000123FB7301E00023FB73FB7B1846143737
:1006A000BD465DF8047B704780B485B000AF7860CC
:1006B0000B467B800023FB730023BB8100237B81DF
:1006C0007B681B8A9AB27B881340BB817B689B89BD
:1006D0009AB27B8813407B81BB89002B05D07B8934
:1006E000002B02D00123FB7301E00023FB73FB7B93
:1006F00018461437BD465DF8047B704780B483B05C
:1007000000AF78600B467B807B88DB439AB27B68C6
:100710001A820C37BD465DF8047B704780B487B001
:1007200000AFF86079813A81FB800023BB8200230F
:10073000FB82FB681B8C9BB223F001039AB2FB681F
:100740001A84FB681B8BBB82FB681B8CFB82BB8AF9
:1007500023F0F303BB82FB881B019AB23B8913434E
:100760009AB2BB8A1343BB82FA681C4B9A4213D0DD
:10077000FA681B4B9A420FD0FB68B3F1804F0BD045
:10078000FA68184B9A4207D0FA68174B9A4203D07E
:10079000FA68164B9A420BD1FB8A23F00203FB82C4
:1007A0007A89FB8A13439BB243F00103FB820AE080
:1007B000FB8A23F00A03FB827A89FB8A13439BB2EC
:1007C00043F00103FB82FB68BA8A1A83FB68FA8A4A
:1007D0001A841C37BD465DF8047B7047002C01402D
:1007E000003401400004004000080040000C0040BC
:1007F00080B487B000AFF86079813A81FB80002334
:10080000BB820023FB8200237B82FB681B8C9BB294
:1008100023F010039AB2FB681A84FB681B8BBB821F
:10082000FB681B8CFB827B891B017B82BB8A23F4C8
:1008300040731B051B0DBB82FB881B039AB2BB8A4E
:100840001343BB823B891B029AB2BB8A1343BB8210
:10085000FA681C4B9A4213D0FA681B4B9A420FD08D
:10086000FB68B3F1804F0BD0FA68184B9A4207D05F
:10087000FA68174B9A4203D0FA68164B9A420BD18A
:10088000FB8A23F02003FB827A8AFB8A13439BB204
:1008900043F01003FB820AE0FB8A23F0A003FB82F3
:1008A0007A89FB8A13439BB243F01003FB82FB68F7
:1008B000BA8A1A83FB68FA8A1A841C37BD465DF827
:1008C000047B7047002C01400034014000040040CC
:1008D00000080040000C004080B487B000AFF86012
:1008E00079813A81FB800023BB820023FB820023B5
:1008F0007B82FB681B8C9BB223F480739AB2FB68EB
:100900001A84FB689B8BBB82FB681B8CFB827B89F8
:100910001B027B82BB8A23F0F303BB82FB881B0193
:100920009AB23B8913439AB2BB8A1343BB82FA68DB
:100930001C4B9A4213D0FA681B4B9A420FD0FB68AB
:10094000B3F1804F0BD0FA68184B9A4207D0FA687F
:10095000174B9A4203D0FA68164B9A420BD1FB8A86
:1009600023F40073FB827A8AFB8A13439BB243F41D
:100970008073FB820AE0FB8A23F42063FB827A897E
:10098000FB8A13439BB243F48073FB82FB68BA8AF1
:100990009A83FB68FA8A1A841C37BD465DF8047B8B
:1009A000704700BF002C01400034014000040040AB
:1009B00000080040000C004080B487B000AFF86031
:1009C00079813A81FB800023BB820023FB820023D4
:1009D0007B82FB681B8C9BB223F480539AB2FB682A
:1009E0001A84FB689B8BBB82FB681B8CFB827B8918
:1009F0001B037B82BB8A23F440731B051B0DBB8248
:100A00003B891B029AB2BB8A1343BB82FB881B0340
:100A10009AB2BB8A1343BB82FA681D4B9A4213D029
:100A2000FA681C4B9A420FD0FB68B3F1804F0BD091
:100A3000FA68194B9A4207D0FA68184B9A4203D0C9
:100A4000FA68174B9A420BD1FB8A23F40053FB82BE
:100A50007A8AFB8A13439BB243F48053FB820CE0F7
:100A6000FB8A23F400735B045B0CFB827A89FB8AAC
:100A700013439BB243F48053FB82FB68BA8A9A8388
:100A8000FB68FA8A1A841C37BD465DF8047B704700
:100A9000002C0140003401400004004000080040E8
:100AA000000C004080B582B000AF114B7B60114B51
:100AB0003B6007E03B681A1D3A607A68111D796057
:100AC00012681A603A680C4B9A42F3D30B480C49EF
:100AD0004FF000028842B8BF40F8042BFFF6FAAF8F
:100AE00000F014F800F0F0FE0837BD4680BD00BFEE
:100AF000F02E0008000000205C0400205C040020B0
:100B0000E80D002080B400AFFEE700BF80B500AF65
:100B1000164B164A126842F001021A60134A134B30
:100B20005968134B0B405360104A104B1B6823F05D
:100B3000847323F4803313600C4B0C4A126822F444
:100B400080221A60094B094A526822F4FE025A6058
:100B5000064B4FF41F029A60044B0022DA6200F049
:100B60000BF8044B4FF000629A6080BD0010024009
:100B70000000FFF800ED00E080B500AF00F002F8E3
:100B800080BD00BF80B483B000AF00237B60002332
:100B90003B60304B2F4A126842F480321A602D4B72
:100BA0001B6803F400333B607B6801337B603B6868
:100BB000002B03D17B68B3F5A06FF0D1254B1B68E8
:100BC00003F40033002B02D001233B6001E000233B
:100BD0003B603B68012B37D11E4B1E4A52685A605E
:100BE0001C4B1C4A52685A601A4B1A4A52685A6087
:100BF000184B184A526822F47C125A60154B154A59
:100C0000526842F498125A60124B124A126842F02B
:100C100080721A6000BF0F4B1B6803F00073002B3B
:100C2000F9D00C4B0B4A526822F003025A60094B70
:100C3000084A526842F002025A6000BF054B5B68E6
:100C400003F00C03082BF9D10C37BD465DF8047B8B
:100C5000704700BF0010024080B582B000AF102086
:100C6000012101F007F84FF44073BB801023FB71A2
:100C70000323BB713B1D0348194600F04DFD0837A7
:100C8000BD4680BD0010014080B584B000AF022099
:100C9000012101F00DF83B1D1846FFF799FB0223D7
:100CA000BB8040F2E7333B813B1D03481946FFF709
:100CB00039FA1037BD4680BD0004004080B584B0CD
:100CC00000AF0420012100F0F3FF3B1D1846FFF7A1
:100CD0007FFB40F2BF33BB8040F2E7333B813B1DDB
:100CE0000D481946FFF71EFA0B4801210122FFF7B4
:100CF000C1FB1E233B700123FB7000237B7001238B
:100D0000BB703B46184601F069FB03480121FFF721
:100D100091FB1037BD4680BD0008004080B584B00F
:100D200000AF1020012100F0C3FF3B1D1846FFF764
:100D30004FFBEF23BB8040F2F3133B813B1D0E487A
:100D40001946FFF7EFF936233B700123FB700023B0
:100D50007B700223BB703B46184601F03FFB064800
:100D60000121FFF7CBFC044801210122FFF782FBA0
:100D70001037BD4680BD00BF0010004080B584B074
:100D800000AF2020012100F093FF3B1D1846FFF724
:100D90001FFB1723BB8009233B813B1D0D481946D0
:100DA000FFF7C0F937233B700123FB7000237B70F2
:100DB0000223BB703B46184601F010FB0548012199
:100DC000FFF79CFC034801210122FFF753FB10377A
:100DD000BD4680BD0014004080B584B000AFFFF771
:100DE00053FF60233B8001237B800023FB80002393
:100DF0003B813B4609481946FFF710FA074808218E
:100E0000FFF77CFB05480121FFF758FB0348012150
:100E1000FFF710FB1037BD4680BD00BF0004004047
:100E200080B582B000AF0920012100F023FF01232B
:100E3000BB801823FB710323BB713B1D1848194667
:100E400000F06AFC4023BB801023FB713B1D14485B
:100E5000194600F061FC1020012100F00BFF102367
:100E6000BB800023FB713B1D0E48194600F054FC6B
:100E70004023BB804823FB713B1D0A48194600F004
:100E80004BFC8023BB801023FB713B1D054819469A
:100E900000F042FCFFF7A0FF0837BD4680BD00BF51
:100EA000000C01400010014080B586B000AF042066
:100EB000012100F0DFFE4FF48040012100F0DAFE56
:100EC0004FF40073BB821823FB750323BB7507F136
:100ED00014031D48194600F01FFC4FF48063BB82C9
:100EE0000423FB7507F114031748194600F014FC9E
:100EF0004FF461337B6000233B8100237B8100231F
:100F0000BB8100233B820C23FB813B1D0F4819460C
:100F100000F020FF0D48012100F0D6FF25233B7093
:100F200000237B700123BB700123FB703B461846F6
:100F300001F054FA054840F22551012200F0E4FF87
:100F40001837BD4680BD00BF000801400038014091
:100F500080B586B000AF0820012100F08BFE4FF471
:100F60008020012100F0A4FE4FF48063BB8218238F
:100F7000FB750323BB7507F114031D48194600F0E8
:100F8000CBFB4FF40063BB820423FB7507F1140312
:100F90001748194600F0C0FB4FF4E1337B60002393
:100FA0003B8100237B810023BB8100233B820C23F8
:100FB000FB813B1D0F48194600F0CCFE0D48012176
:100FC00000F082FF27233B7000237B700023BB705F
:100FD0000123FB703B46184601F000FA054840F239
:100FE0002551012200F090FF1837BD4680BD00BF9B
:100FF000000C01400048004080B586B000AFF860AA
:101000000B467A60FB72FB7AFA68134400221A706E
:10101000F86800F085F90346FB75F86800F092F96E
:101020000346BB75FB7D002B5CD1BB7D013B042BD4
:101030004CD801A151F823F04D1000086D100008A4
:10104000CD1000088D100008AD100008BB7D5A1EA1
:10105000994913465B0013449B000B4408331B68FB
:1010600078681946002200F033F935E0BB7D5A1E3E
:10107000914913465B0013449B000B4408331B68E3
:1010800078681946002200F023F925E0BB7D5A1E3E
:10109000894913465B0013449B000B4408331B68CB
:1010A00078681946002200F013F915E0BB7D5A1E3E
:1010B000814913465B0013449B000B4408331B68B3
:1010C00078681946002200F003F905E078687B494A
:1010D000002200F0FDF800BF786801F03BFC0346F9
:1010E000DBB2E5E0BB7D013B042B00F2D68001A220
:1010F00052F823F0091100085F1100085912000886
:10110000A1110008FD1100080120F96881220423C3
:1011100000F076F90346002B1BD1FB680333184619
:1011200001F0BCF903463B613B694FF47A7202FB64
:1011300003F2634BA3FB0213DB0B3B613B699BB2E6
:10114000184600F0F7FD78685E49002200F0C0F80C
:10115000A9E078685C49002200F0BAF8A3E0012019
:10116000F9688122042300F04BF90346002B11D1CA
:10117000FB680333184601F003FA03463B613B6901
:101180009BB2184600F0D6FD78684E49002200F068
:101190009FF888E078684C49002200F099F882E0D6
:1011A0000120F9688222002300F02AF90346002B6F
:1011B0001ED1FB6803331B78312B07D1434B1B78BF
:1011C00043F00103DAB2414B1A700BE0FB680333C2
:1011D0001B78302B06D13D4B1B7823F00103DAB28C
:1011E0003A4B1A7078683749002200F071F85AE0DB
:1011F00078683549002200F06BF854E00120F96866
:101200008222002300F0FCF80346002B1ED1FB686D
:1012100003331B78312B07D12C4B1B7843F002038F
:10122000DAB22A4B1A700BE0FB6803331B78302BC1
:1012300006D1264B1B7823F00203DAB2234B1A7037
:1012400078682049002200F043F82CE078681E49B5
:10125000002200F03DF826E00120F96881220323F6
:1012600000F0CEF80346002B11D1FB68033318467B
:1012700001F086F903463B613B699BB2184601F0D9
:10128000D5FA78680F49002200F022F80BE0786860
:101290000D49002200F01CF805E07868074900229B
:1012A00000F016F800BF786801F054FB0346DBB28B
:1012B00018461837BD4680BD1C2D0008702D00084B
:1012C00001800080842D0008882D00088004002003
:1012D00080B584B000AFF860B9607A60BB68002B5D
:1012E00003D0F868B96801F0D7FA7B68002B07D003
:1012F0007B681B78002B03D0F868796801F0A6FAA8
:10130000F86801F027FB0346FA681344034A118882
:10131000927819809A701037BD4680BDA02D0008C4
:1013200080B483B000AF78607B6802331B783D2BBC
:1013300001D0002300E0012318460C37BD465DF8BC
:10134000047B704780B485B000AF786000237B7366
:1013500000233B737B681B78FB737B6801331B782E
:10136000BB73FB7B602B05D9FB7B7A2B02D8FB7B05
:10137000203BFB73BB7B602B06D9BB7B7A2B03D84E
:10138000BB7B203BBB7326E025E07A7B1B491346E1
:101390005B0013449B000B441B681B78FA7B9A424A
:1013A00016D17A7B154913465B0013449B000B440E
:1013B0001B6801331B78BA7B9A4209D17A7B0F49AB
:1013C00013465B0013449B000B441B793B730DE0F9
:1013D0007B7B01337B737A7B084913465B001344A4
:1013E0009B000B441B681B78002BCED13B7B18461F
:1013F0001437BD465DF8047B704700BF1C2D000804
:1014000080B584B000AF39600146F971BA717B7163
:10141000BB7903F00F037B723B680233FB60FB6810
:101420001B78002B06D1FB79002B01D1002345E16D
:10143000012343E1FB681B783D2B05D1FB68013399
:10144000FB600123FB721CE00B2337E102E0FB6829
:101450000133FB60FB681B783D2B07D0FB681B78D2
:101460003B2B03D0FB681B78002BF0D1FB681B786B
:10147000002B00D109E0FB680133FB60FB7A0133EC
:10148000FB72FA7AFB799A42E0D3FA7AFB799A42B4
:1014900001D0022312E1FB681B782C2B01D10A2317
:1014A0000CE17B7A013B032B00F2078101A252F889
:1014B00023F000BFC51400085B150008A91500083B
:1014C0004B1600080023FB720EE0FB681B781846E1
:1014D00000F0F8F80346FF2B00D109E0FB68013368
:1014E000FB60FB7A0133FB72FA7A7B799A42ECD388
:1014F000FB7A002B01D10423E0E0FB681B78002B72
:1015000007D1BB795BB2002B01DA0023D6E00523BB
:10151000D4E0FB681B78184600F0D4F80346FF2B94
:1015200001D00623CAE0FB681B782C2B09D0FB688E
:101530001B783D2B05D0BB795BB2002B01DB072369
:10154000BCE0FB681B78002B05D0BB795BB2002B9D
:1015500001DA0823B2E00023B0E0FB681B78302BEF
:1015600005D0FB681B78312B01D00923A6E0FB686E
:101570000133FB60FB681B782C2B09D0FB681B78C0
:101580003D2B05D0BB795BB2002B01DB072395E037
:10159000FB681B78002B05D0BB795BB2002B01DA0E
:1015A00008238BE0002389E0FB681B78612B0DD0BA
:1015B000FB681B78622B09D0FB681B78412B05D098
:1015C000FB681B78422B01D0012377E0FB680133D5
:1015D000FB60BB795BB2002B05DBFB681B78002B43
:1015E00001D102236AE0BB795BB2002B09DBFB6807
:1015F0001B783D2B05D0FB681B782C2B01D00323D7
:101600005CE0BB795BB2002B09DBFB681B783D2BF0
:1016100003D0FB681B782C2B01D100234EE0BB7953
:101620005BB2002B05DAFB681B78002B01D004238A
:1016300044E0BB795BB2002B05DAFB681B78002B1A
:1016400001D100233AE0052338E00023FB72002398
:10165000BB721AE0FB681B782D2B04D1FB7A002BA0
:1016600001D005232AE0FB681B782E2B02D1BB7A20
:101670000133BB72BB7A012B01D905231EE0FB6845
:101680000133FB60FB7A0133FB72FB681B782F2B65
:1016900003D9FB681B78392BDCD9FB681B782E2B10
:1016A000D8D0FB681B782D2BD4D0FB681B78002B7F
:1016B00001D0052302E0002300E003231846103781
:1016C000BD4680BD80B483B000AF0346FB71FB799B
:1016D000402B06D9FB79462B03D8FB79373BDBB28D
:1016E00014E0FB79602B06D9FB79662B03D8FB79D4
:1016F000573BDBB20AE0FB792F2B06D9FB79392B5C
:1017000003D8FB79303BDBB200E0FF2318460C37EF
:10171000BD465DF8047B704780B489B000AF786047
:1017200039600023FB6100233B610023BB61002380
:10173000FB6000237B610023BB603B68DB7803F028
:101740000F03FB613B68DB7803F01003002B04D030
:101750003B689B78FA691343FB613B681B88DBB2EB
:10176000002B44D07B681B687B610023BB6138E0A1
:10177000BB69012202FA03F3FB603B681B881A462F
:10178000FB6813403B613A69FB689A4226D1BB690A
:101790009B00FB60FB680F2202FA03F3BB60BB688F
:1017A000DB437A6913407B61FB68FA6902FA03F351
:1017B0007A6913437B613B68DB78282B05D1BB69D1
:1017C00001229A407B685A6108E03B68DB78482B2D
:1017D00004D1BB6901229A407B681A61BB6901335D
:1017E000BB61BB69072BC3D97B687A691A603B6808
:1017F0001B88FF2B46D97B685B687B610023BB613C
:101800003AE0BB690833012202FA03F3FB603B684C
:101810001B881A46FB6813403B613A69FB689A4291
:1018200027D1BB699B00FB60FB680F2202FA03F320
:10183000BB60BB68DB437A6913407B61FB68FA6974
:1018400002FA03F37A6913437B613B68DB78282B48
:1018500005D1BB69083301229A407B685A613B6815
:10186000DB78482B05D1BB69083301229A407B689D
:101870001A61BB690133BB61BB69072BC1D97B68A6
:101880007A695A602437BD465DF8047B704700BF13
:1018900080B483B000AF78600B467B807A887B6829
:1018A0001A610C37BD465DF8047B704780B483B085
:1018B00000AF78600B467B807A887B685A610C3772
:1018C000BD465DF8047B704780B588B000AF00F07E
:1018D00023FFFFF723FAFFF751FAFFF7E5FAFFF7C7
:1018E000BBF9FFF735FBFFF79BFA00F0FFF9FFF7B5
:1018F000E5F9374B00221A70364B00221A70364B2E
:1019000000221A70354B00221A700023FB6102E09E
:10191000FB690133FB61FA69314B9A42F8DD002320
:10192000FB6102E0FB690133FB61FA692C4B9A42CF
:10193000F8DD0023FB6102E0FB690133FB61FA691A
:10194000274B9A42F8DD27480121FEF773FD00F08E
:101950004BFE254B42221A70244B1B78002B08D0DB
:10196000224B1B782048194600F068F81F4B0022D4
:101970001A701F4B1B78002B06D01D4B00221A70CB
:101980001C481D4900F03CF8134B1B78002B1ED05F
:10199000104B1B78002B1AD10D4B1B78002B16D047
:1019A0000D4B00221A7000F035FF03467B833A1D71
:1019B0007B8B1046194600F081FD3B1D18460E49F1
:1019C00000F01EF80D480C4900F01AF8C4E7C3E710
:1019D000800400207F040020810400207404002083
:1019E0003F420F0000100040540C00207E040020F5
:1019F000780400208404002000380140A42D000851
:101A000080B582B000AF7860396010E07B681B78E9
:101A10003868194600F0C0FA7B6801337B6000BF6C
:101A20003868402100F0DAFA0346002BF8D07B68D2
:101A30001B78002BEAD10837BD4680BD80B582B047
:101A400000AF78600B467B807B6802331B78432BAA
:101A50004ED17B681B78422B4AD17B6801331B78BF
:101A6000532B24D0572B02D0422B40D03AE07B8816
:101A70007A6813440D221A707B8801337A68134404
:101A800000221A701C481D49FFF7BAFF7B68033318
:101A900018461A49FFF7B4FF19481849FFF7B0FF75
:101AA0007B68033318461749FFF7AAFF20E07B68DD
:101AB000DA1C7B88033B10461946134AFFF79CFA51
:101AC0000346DAB2114B1A70104B1B780E4A0021F4
:101AD000D1540F480949FFF793FF0B480749FFF717
:101AE0008FFF05E00B480549FFF78AFF00E000BFC4
:101AF0000837BD4680BD00BFA82D00080038014052
:101B0000C02D000800480040200D00201C0D0020C2
:101B1000C42D0008D42D000880B489B000AF7860CF
:101B20000023FB610023BB6100237B6100233B6139
:101B30000023FB604A4B5B6803F00C03FB61FB690D
:101B4000042B07D0082B09D0002B2FD17B68454AE6
:101B50001A602FE07B68434A1A602BE0404B5B68B9
:101B600003F47013BB613E4B5B6803F480337B610D
:101B7000BB699B0C0233BB617B69002B06D1BB693F
:101B8000394A02FB03F27B681A6013E0344BDB6ACC
:101B900003F00F030133FB60324AFB68B2FBF3F33F
:101BA000BA6902FB03F27B681A6003E07B682D4A86
:101BB0001A6000BF2A4B5B6803F0F003FB61FB690E
:101BC0001B09FB61294AFB6913441B78DBB23B61AB
:101BD0007B681A683B69DA407B685A60204B5B6817
:101BE00003F4E063FB61FB691B0AFB611F4AFB69AD
:101BF00013441B78DBB23B617B685A683B69DA406F
:101C00007B689A60164B5B6803F46053FB61FB6969
:101C1000DB0AFB61154AFB6913441B78DBB23B61AD
:101C20007B685A683B69DA407B68DA600C4B5B681A
:101C300003F44043FB61FB699B0BFB610C4AFB69AE
:101C400013441B78DBB23B617B68DA683B69B2FB0B
:101C5000F3F27B681A612437BD465DF8047B704758
:101C60000010024000127A0000093D00140000201C
:101C70002400002080B483B000AF78600B46FB7076
:101C8000FB78002B06D0094B084A91697A680A4311
:101C90009A6106E0054B054A91697A68D2430A4089
:101CA0009A610C37BD465DF8047B70470010024016
:101CB00080B483B000AF78600B46FB70FB78002BDC
:101CC00006D0094B084AD1697A680A43DA6106E00E
:101CD000054B054AD1697A68D2430A40DA610C376C
:101CE000BD465DF8047B70470010024080B500AF30
:101CF00005484021FFF7CCFD04488021FFF7D6FDC1
:101D0000002000F017F880BD000C014000100140D9
:101D100080B500AF04484021FFF7BAFD034B044AE9
:101D200012889A8780BD00BF000C0140000400406B
:101D30008204002080B582B000AF0346FB80044BD4
:101D4000FA881A80FFF7E4FF0837BD4680BD00BF60
:101D50008204002080B58CB000AF78603960002329
:101D6000FB620023BB6200237B6200233B620023F3
:101D7000FB617B68FB617B681B8A9BB2FB62FA6A32
:101D80004CF6FF731340FB623B68DB88FA6A13432F
:101D9000FB62FB6A9AB27B681A827B689B899BB262
:101DA000FB62FA6A4EF6F3131340FB623B689A88B3
:101DB0003B681B8913439AB23B685B8913439BB210
:101DC000FA6A1343FB62FB6A9AB27B689A817B686A
:101DD0009B8A9BB2FB62FA6A4FF6FF431340FB6299
:101DE0003B689B89FA6A1343FB62FB6A9AB27B6881
:101DF0009A8207F108031846FFF78EFEFA69304B06
:101E00009A4202D17B69BB6201E03B69BB627B689D
:101E10009B899BB29BB21BB2002B0CDABA6A1346A9
:101E20009B0013449A001A443B681B685B00B2FB9A
:101E3000F3F37B620BE0BA6A13469B0013449A00EB
:101E40001A443B681B689B00B2FBF3F37B627A6A1F
:101E50001C4BA3FB02135B091B01FB62FB6A1B0902
:101E6000642202FB03F37A6AD31A3B627B689B8984
:101E70009BB29BB21BB2002B0DDA3B6ADB0003F175
:101E80003202104BA3FB02135B0903F00703FA6A4B
:101E90001343FB620CE03B6A1B0103F13202094B66
:101EA000A3FB02135B0903F00F03FA6A1343FB62FF
:101EB000FB6A9AB27B681A813037BD4680BD00BF8D
:101EC000003801401F85EB5180B483B000AF7860CB
:101ED0000B46FB70FB78002B08D07B689B899BB27C
:101EE00043F400539AB27B689A8107E07B689B8930
:101EF0009BB223F400539AB27B689A810C37BD469B
:101F00005DF8047B704700BF80B487B000AF786095
:101F100013460A467A807B7000233B610023FB60F6
:101F20000023BB6000237B617B687B617B88DBB225
:101F30005B09DBB23B617B8803F01F03FB60FB683E
:101F4000012202FA03F3BB603B69012B03D17B69D9
:101F50000C337B6109E03B69022B03D17B691033B1
:101F60007B6102E07B6914337B617B78002B06D0B8
:101F70007B697A691168BA680A431A6006E07B696E
:101F80007A691168BA68D2430A401A601C37BD46A4
:101F90005DF8047B704700BF80B483B000AF786009
:101FA0000B467B807B88C3F308039AB27B689A80D8
:101FB0000C37BD465DF8047B704700BF80B483B02A
:101FC00000AF78607B689B889BB2C3F308039BB229
:101FD00018460C37BD465DF8047B704780B485B069
:101FE00000AF78600B467B800023FB737B681B8807
:101FF0009AB27B8813409BB2002B02D00123FB7363
:1020000001E00023FB73FB7B18461437BD465DF8E7
:10201000047B704780B500AF4FF080400121FEF790
:102020006DFB80BD80B500AF07480121FEF73CFB8A
:102030000346012B06D104480121FEF75FFB034B49
:1020400001221A7080BD00BF0008004081040020FA
:1020500080B500AF0F480121FEF70AFB0D480121B2
:10206000FEF74CFB0C4B1B780133DAB20A4B1A70AB
:10207000094B1B78022B02D1084B02221A70064B27
:102080001B78082B04D100F0AFFA034B00221A7022
:1020900080BD00BF001000406E04002074040020CA
:1020A00080B500AF14480121FEF7E2FA1248012181
:1020B000FEF724FB114B1B88002B06D10F4B1B880E
:1020C00001339AB20D4B1A8015E00C4B1B88012B83
:1020D00011D109480021FEF7ADF909484FF480718C
:1020E000FFF7E4FB04480021FEF724FA034B00222B
:1020F0001A8000F08BFA80BD0014004070040020AC
:10210000000C014080B500AF2E480221FEF7B0FA66
:102110002C480221FEF7F2FA2B4B1B88002B0DD125
:102120002848FEF789FA03461A46284B1A80264BA0
:102130001B8801339AB2244B1A8041E02148FEF7F4
:102140007BFA03461A46224B1A801F4B00221A8044
:102150001F4B1B889AB21D4B1B889BB29A420BD90E
:102160001B4B1B889BB21A46184B1B889BB2D31A79
:102170001A46184B1A6017E0154B1B889AB2134B7E
:102180001B889BB29A420CD2104B1B889BB2C3F5A2
:1021900080320F4B1B889BB213441A460D4B1A60BA
:1021A00002E00C4B00221A600A4B1A6813469B008F
:1021B0001A44084B1A60074B1B68184600F0FEFAD9
:1021C00080BD00BF004401406C0400205C0400207E
:1021D0005E0400206004002080B582B000AF1F4B79
:1021E0001B889BB203F02003002B34D01B48FFF761
:1021F000E5FE0346FB71FB79082B13D1184B1B78C6
:10220000012B28D9164B1B78164A0021D154144BA8
:102210001B78013BDAB2124B1A7010480D21FFF700
:10222000BBFE18E0FB790A2B0AD10F4B00221A7073
:102230000B4B1A780D4B1A70094B01221A700AE0E9
:10224000074B1B78074AF979D154054B1B780133AA
:10225000DAB2034B1A700837BD4680BD0038014022
:1022600028000020540C00207F0400207E04002061
:1022700080B582B000AF174B1B889BB203F02003E0
:10228000002B24D01348FFF799FE0346FB71124B35
:102290001B88124AF979D1540F4B1B880F4AD35C23
:1022A0000A2B0ED10C4B1B88DAB20D4B1A700A4B5D
:1022B0001B880133094A0021D154074B00221A80A0
:1022C00005E0054B1B8801339AB2034B1A8008378F
:1022D000BD4680BD004800407204002084040020F8
:1022E0007804002080B500AF2D481021FEF7DCF9FE
:1022F0000346012B52D12A481021FEF7FFF9294B42
:102300001B889AB2284B1A802548FEF7A3F903468A
:102310001A46244B1A80234B1B889AB2224B1B88E7
:102320009BB29A420BD91F4B1B889BB21A461E4B7D
:102330001B889BB2D31A1A461C4B1A6017E0194B24
:102340001B889AB2184B1B889BB29A420CD2164B30
:102350001B889BB2C3F58032124B1B889BB213447F
:102360001A46124B1A6002E0104B00221A60104B02
:102370001A6813461B019B1A9B00DA080D4BA3FB3E
:1023800002139A08094B1B68B2FBF3F2074B1A6061
:10239000064B1B689BB2184600F02CFA80BD00BFAC
:1023A000002C014066040020640400206804002022
:1023B00000000020176CC11680B483B000AF7860B5
:1023C000054A7B6843F0BF6343F40033D3600C37A6
:1023D000BD465DF8047B704700ED00E080B487B037
:1023E00000AF786000237B6100233B610F23FB601B
:1023F0007B68DB78002B38D0264BDB68DB4303F4AB
:10240000E0631B0A7B617B69C3F104033B617B6969
:10241000FA6822FA03F3FB607B685B781A463B6933
:1024200002FA03F37B617B689B781A46FB681340D2
:102430007A6913437B617B691B017B6116497B6869
:102440001B787A69D2B20B4483F80023124B7A6866
:1024500012785209D2B27968097801F01F0101207F
:1024600000FA01F143F822100EE00B4B7A68127863
:102470005209D2B27968097801F01F01012000FAEF
:1024800001F1203243F822101C37BD465DF8047B71
:10249000704700BF00ED00E000E100E080B584B0CF
:1024A00000AF786078680021102200F00DFB034631
:1024B000FB81FB8918461037BD4680BD80B485B0CE
:1024C00000AF78600B467B807B88002B07D17B6850
:1024D00030221A707B68013300221A7049E0012310
:1024E000FB731CE0FB7BC3F105037A68D0187A8884
:1024F000224BA3FB0213D9080B469B000B445B0045
:10250000D31A9BB2DBB23033DBB203707A881B4B39
:10251000A3FB0213DB087B80FB7B0133FB73FB7B9C
:10252000052BDFD9FB7B013B7A68134400221A702C
:102530000023FB7302E0FB7B0133FB73FB7B7A68B8
:1025400013441B78302BF6D00023BB730CE0BB7B0D
:102550007A681344F97BBA7B0A4479680A44127892
:102560001A70BB7B0133BB73FA7BBB7B1344052B17
:10257000EDDD1437BD465DF8047B7047CDCCCCCC87
:1025800080B584B000AF786000237B720023BB81EC
:10259000786800F0DFF90346FB73FB7B042B01D95D
:1025A00000231DE001237B8116E0FB7B013B7A6861
:1025B00013441B78303B9BB27A8902FB03F39AB237
:1025C000BB891344BB817B891A46920013445B008C
:1025D0007B81FB7B013BFB73FB7B002BE5D1BB8944
:1025E00018461037BD4680BD80B500AF00F076F8C4
:1025F00004484FF48071FFF74BF903480121FDF7C0
:1026000019FF80BD000C01400014004080B588B067
:1026100000AF304801210022FDF72CFF2D48022198
:102620000022FDF727FF4FF400300121FFF722FBC6
:1026300009200121FFF71EFB4FF48073BB830423A5
:10264000FB770323BB7707F11C0323481946FFF7E9
:1026500063F807F110031846FDF7BAFE77233B82B3
:1026600007F110031B481946FDF75CFD3B1D18469A
:10267000FDF7C8FE0023BB800023BB810A23FB803B
:1026800000237B8101233B813B1D12481946FDF746
:102690004BFE4FF4C060FFF78FFE19233B70012300
:1026A000FB7000237B700023BB703B461846FFF78E
:1026B00095FE08480121FDF7BDFE06480221FEF700
:1026C0001DF8044802210122FDF7D4FE2037BD4643
:1026D00080BD00BF00440140000C014080B582B0C5
:1026E00000AF08200121FFF7C5FA4FF48073BB80CB
:1026F0001023FB710323BB713B1D06481946FFF7EE
:102700000BF804484FF48071FFF7D0F80837BD4646
:1027100080BD00BF000C014080B588B000AF40F61E
:1027200005000121FFF7A6FA4FF40063BB830423E1
:10273000FB770323BB7707F11C031E481946FEF7FE
:10274000EBFF07F110031846FDF742FE40F2671356
:102750003B8207F1100318481946FDF7E3FC0C23F0
:10276000BB800023BB810023FB8000237B810123EE
:102770003B813B1D10481946FDF7D6FD4FF4C06064
:10278000FFF71AFE1B233B700123FB7000237B70B5
:102790000023BB703B461846FFF720FE0648102179
:1027A0000122FDF767FE04480121FDF743FE2037B3
:1027B000BD4680BD00080140002C014080B483B0BC
:1027C00000AF78607B684FF4AC7202FB03F2074BFA
:1027D000A3FB02139B0B7B607B689AB2044B1A80AD
:1027E0000C37BD465DF8047B704700BF5917B7D161
:1027F0007604002080B483B000AF0346FB80044B16
:10280000FA881A800C37BD465DF8047B704700BF1C
:102810007A04002080B400AF034B1B881846BD46E5
:102820005DF8047B704700BF7604002080B483B05D
:1028300000AF0346FB80044BFA881A800C37BD4674
:102840005DF8047B704700BF7C040020830770B5EF
:1028500006461FD10368A3F1013222EA030313F0F5
:10286000803F08BF031D15D1184653F8044BA4F14F
:10287000013525EA040414F0803FF5D003782BB12C
:10288000431C1C7818460133002CFAD100F004F8E0
:10289000304670BD3046F1E780EA0102844612F00E
:1028A000030F4FD111F0030F32D14DF8044D11F049
:1028B000040F51F8043B0BD0A3F101329A4312F0FC
:1028C000803F04BF4CF8043B51F8043B16D100BFD5
:1028D00051F8044BA3F101329A4312F0803FA4F166
:1028E00001320BD14CF8043BA24312F0803F04BFED
:1028F00051F8043B4CF8044BEAD023460CF8013B5A
:1029000013F0FF0F4FEA3323F8D15DF8044B704703
:1029100011F0010F06D011F8012B0CF8012B002A41
:1029200008BF704711F0020FBFD031F8022B12F030
:10293000FF0F16BF2CF8022B8CF8002012F47F4FEB
:10294000B3D1704711F8012B0CF8012B002AF9D1F3
:10295000704700BF20F0030110F00300C0F1000039
:1029600051F8043B00F1040C4FEACC0C6FF000026C
:102970001CBF22FA0CF213434FF0010C4CEA0C2C52
:102980004CEA0C4CA3EB0C0222EA030212EACC1232
:1029900004BF51F8043B0430F4D013F0FF0F1FBF05
:1029A000013013F47F4F013013F47F0F18BF013053
:1029B000704700BF2DE9F00F424C82B0D4F800C040
:1029C00001900E4600E02646344614F8015B0CEBFD
:1029D0000500407800F0080000F0FF0A0028F2D15E
:1029E0002D2D5BD02B2D04BF7578B41C33F0100057
:1029F0003CD09946BAF1000F0CBF6FF0004B4FF07E
:102A0000004BBBFBF9F8002709FB18BB38460CE06C
:102A1000303DAB4219DD7E1C05D0404523D820D087
:102A200009FB0050012714F8015B0CEB05067678D2
:102A300016F0040FECD116F0030606D0012E14BFD9
:102A400057263726AD1BAB42E5DC7B1C15D0BAF10F
:102A5000000F21D10AB1EFB9116002B0BDE8F00F4B
:102A600070475D45DCDD4FF0FF37DCE7302D1AD0D5
:102A7000002BBED10A239946BCE70199BAF1000F99
:102A80004FF022030CBF6FF000404FF000400B608E
:102A9000002AE2D0611EDFE74042DBE7B41C757814
:102AA0004FF0010AA2E7207800F0DF00582803D099
:102AB000002B9ED108239CE71023657899460234A9
:102AC00098E700BF2C00002030B4044C0D4613469C
:102AD00001462A46206830BCFFF76CBF580400202E
:102AE000535000002F53706565642F204D6F746F35
:102AF0007220737065656420286475747920637929
:102B0000636C652920676976656E20696E2068654B
:102B100078612C2072616E67653A203078303030F1
:102B2000202D203078464646462E2028652E672EDA
:102B30002053503D313241422900000044430000FF
:102B40002F44757479204379636C652F204D6F7421
:102B50006F722073706565642028647574792063D2
:102B600079636C652920676976656E20696E2064DB
:102B70006563696D616C2C2072616E67653A203007
:102B80002D313030205B255D2E2028652E672E20CC
:102B900044433D3530290000475300002F476574FA
:102BA0002053706565642F2047657474696E6720D3
:102BB000746865206D6F746F722073706565642032
:102BC00028696E2052504D2920697320656E61621C
:102BD0006C656420283129206F72206469736162FA
:102BE0006C6564202830292E2028652E672E20470A
:102BF000533D302900000000474400002F47657412
:102C00002044697374616E63652047657474696EEE
:102C100067207468652064697374616E6365202839
:102C2000696E20636D2920697320656E61626C6531
:102C30006420283129206F722064697361626C6599
:102C400064202830292E2028652E672E2047443DF9
:102C500030290000474300002F47657420437572F8
:102C600072656E742F2047657474696E6720686999
:102C700067682D736964652063757272656E742070
:102C800028696E20413F2920697320656E61626C5E
:102C9000656420283129206F722064697361626C39
:102CA0006564202830292E2028652E672E20474372
:102CB0003D3029202F6E6F7420696D706C656D65D5
:102CC0006E7465642F000000525000002F5265663C
:102CD0006572656E636520706F736974696F6E2FBE
:102CE00020536574207265666572656E6365207039
:102CF0006F736974696F6E2E204D696E696D756DA5
:102D000020323020636D2C206D6178696D756D20E7
:102D100031343020636D2E0000000000E02A0008EE
:102D200001000000E42A00083C2B0008020000001B
:102D3000402B0008982B0008040000009C2B000882
:102D4000F82B000805000000FC2B0008542C00089C
:102D500006000000582C0008C82C000803000000E2
:102D6000CC2C0008182D0008000000000000000016
:102D700045333D556E6B6E6F776E20636F6D6D6181
:102D80006E64000045303D0045323D496E76616C11
:102D9000696420706172616D657465720000000085
:102DA0000D0A00000D0A000053656E64696E67200D
:102DB0007769666920636F6D6D616E643A2000000B
:102DC0000D0A000053797374656D20616E73776529
:102DD000723A200057726F6E672074617267657473
:102DE00020636F6465210000002020202020202027
:102DF00020202828282828202020202020202020AB
:102E000020202020202020202088101010101010BA
:102E10001010101010101010100404040404040406
:102E200004040410101010101010414141414141A0
:102E30000101010101010101010101010101010182
:102E40000101010110101010101042424242424292
:102E50000202020202020202020202020202020252
:102E600002020202101010102000000000000000FA
:102E70000000000000000000000000000000000052
:102E80000000000000000000000000000000000042
:102E90000000000000000000000000000000000032
:102EA0000000000000000000000000000000000022
:102EB0000000000000000000000000000000000012
:102EC0000000000000000000000000000000000002
:102ED00000000000000000000000000000000000F2
:102EE000000000000000000000000000430000009F
:102EF00000366E0100000000000000000102030423
:102F0000060708090000000001020304010203048F
:102F1000060708090204060801000000E82D000861
:102F2000000000001C03002084030020EC030020AC
:102F30000000000000000000000000000000000091
:102F40000000000000000000000000000000000081
:102F500000000000EC2E000800000000000000004F
:102F60000000000000000000000000000000000061
:102F70000000000000000000000000000000000051
:102F80000000000000000000000000000000000041
:102F90000000000000000000000000000000000031
:102FA0000000000000000000000000000000000021
:102FB0000000000000000000000000000000000011
:102FC0000000000000000000010000000000000000
:102FD0000E33CDAB34126DE6ECDE05000B000000C5
:102FE00000000000000000000000000000000000E1
:102FF00000000000000000000000000000000000D1
:1030000000000000000000000000000000000000C0
:1030100000000000000000000000000000000000B0
:0C33400000000000000000003000002031
:0400000508000000EF
:00000001FF
