:020000040800F2
:1000000078050020A50A0008050B0008050B00086C
:10001000050B0008050B0008050B00080000000098
:10002000000000000000000000000000050B0008B8
:10003000050B000800000000050B0008050B000878
:10004000050B0008050B0008050B0008050B000850
:10005000050B0008050B0008050B0008050B000840
:10006000050B0008050B0008050B0008050B000830
:10007000050B0008050B0008050B0008050B000820
:10008000050B0008050B0008050B00080000000028
:10009000000000000000000000000000050B000848
:1000A000050B000879250008050B0008AD2700089E
:1000B00075240008050B000885240008050B0008BE
:1000C000050B0008050B0008050B0008050B0008D0
:1000D000050B00085D260008050B00082527000811
:1000E000050B0008050B0008050B000800000000C8
:1000F0000000000000000000000000000000000000
:1001000000000000000000000000000000000000EF
:100110000000000000000000A524000815250008CC
:100120005FF808F180B485B000AF786039600023D3
:10013000FB817B681B88FB817A682E4B9A4213D027
:100140007A682D4B9A420FD07B68B3F1804F0BD069
:100150007A682A4B9A4207D07A68294B9A4203D090
:100160007A68284B9A4208D1FB8923F07003FB81FF
:100170003B685A88FB891343FB817A68224B9A4279
:100180000CD07A68214B9A4208D0FB8923F4407343
:10019000FB813B68DA88FB891343FB817B68FA8922
:1001A0001A803B689A887B689A853B681A887B68C6
:1001B0001A857A680F4B9A420FD07A680E4B9A4292
:1001C0000BD07A68124B9A4207D07A68114B9A4248
:1001D00003D07A68104B9A4204D13B681B7A1A46C6
:1001E0007B681A867B6801229A821437BD465DF8C7
:1001F000047B7047002C01400034014000040040A3
:1002000000080040000C00400010004000140040B6
:1002100000400140004401400048014080B485B0E6
:1002200000AF7860396000237B810023FB810023CD
:10023000BB817B681B8C9BB223F480739AB27B6872
:100240001A847B681B8CFB817B689B88BB817B68E5
:100250009B8B7B817B8923F070037B817B8923F0DF
:1002600003037B813B681A887B8913437B81FB896D
:1002700023F40073FB813B681B891B029AB2FB8944
:100280001343FB813B685B881B029AB2FB891343D3
:10029000FB817A68224B9A4203D07A68214B9A42BA
:1002A0002BD1FB8923F40063FB813B685B891B0234
:1002B0009AB2FB891343FB81FB8923F48063FB81A2
:1002C0003B689B881B029AB2FB891343FB81BB8965
:1002D00023F48053BB81BB8923F40053BB813B686B
:1002E0009B891B019AB2BB891343BB813B68DB89A5
:1002F0001B019AB2BB891343BB817B68BA899A8080
:100300007B687A899A833B68DA887B689A877B68FE
:10031000FA891A841437BD465DF8047B704700BF24
:10032000002C01400034014080B582B000AF7860FD
:1003300039603B681B88002B0FD13B6859883B68AC
:100340009A883B681B89786800F0E8F93B68DB888D
:100350007868194600F0FCF836E03B681B88042BEF
:100360000FD13B6859883B689A883B681B8978683D
:1003700000F03EFA3B68DB887868194600F004F923
:1003800022E03B681B88082B0FD13B6859883B68EB
:100390009A883B681B89786800F09EFA3B68DB8886
:1003A0007868194600F00EF90EE03B6859883B6802
:1003B0009A883B681B89786800F0FEFA3B68DB8806
:1003C0007868194600F01AF90837BD4680BD00BFAD
:1003D00080B483B000AF78607B684FF6FF729A807C
:1003E0007B6800221A807B680022DA807B6800220A
:1003F0005A807B6800221A720C37BD465DF8047B78
:10040000704700BF80B483B000AF78607B68002283
:100410001A807B6800225A807B6801229A807B6860
:100420000022DA807B6800221A810C37BD465DF815
:10043000047B704780B483B000AF78600B46FB70DC
:10044000FB78002B08D07B681B889BB243F001032C
:100450009AB27B681A8007E07B681B889BB223F006
:1004600001039AB27B681A800C37BD465DF8047BA5
:10047000704700BF80B483B000AF786013460A466F
:100480007A807B707B78002B08D07B689B899AB23E
:100490007B8813439AB27B689A8109E07B689B89C9
:1004A0009AB27B88DB439BB213409AB27B689A81F5
:1004B0000C37BD465DF8047B704700BF80B483B045
:1004C00000AF78600B46FB70FB78002B08D07B6890
:1004D0001B889BB243F080039AB27B681A8007E0C6
:1004E0007B681B889BB223F080039AB27B681A80DA
:1004F0000C37BD465DF8047B704700BF80B485B003
:1005000000AF78600B467B800023FB817B689B8B70
:10051000FB81FB8923F00803FB81FA897B88134365
:10052000FB817B68FA899A831437BD465DF8047BAA
:10053000704700BF80B483B000AF78600B467B800B
:100540007B687A889A840C37BD465DF8047B7047D7
:1005500080B483B000AF78600B467B807B681B8BD8
:100560009BB223F00C039AB27B681A837B681B8BC7
:100570009AB27B8813439AB27B681A830C37BD46C4
:100580005DF8047B704700BF80B483B000AF786033
:100590000B467B807B681B8B9BB223F440639AB233
:1005A0007B681A837B681B8B9AB27B881B029BB289
:1005B00013439AB27B681A830C37BD465DF8047BFF
:1005C000704700BF80B483B000AF78600B467B807B
:1005D0007B689B8B9BB223F00C039AB27B689A8357
:1005E0007B689B8B9AB27B8813439AB27B689A8311
:1005F0000C37BD465DF8047B704700BF80B483B004
:1006000000AF78600B467B807B689B8B9BB223F4AA
:1006100040639AB27B689A837B689B8B9AB27B8893
:100620001B029BB213439AB27B689A830C37BD4678
:100630005DF8047B704700BF80B483B000AF786082
:100640007B689B8E9BB218460C37BD465DF8047BD9
:10065000704700BF80B483B000AF78607B68B3F8A8
:1006600040309BB218460C37BD465DF8047B70479E
:1006700080B485B000AF78600B467B800023FB73AD
:100680007B681B8A9AB27B8813409BB2002B02D0F6
:100690000123FB7301E00023FB73FB7B1846143737
:1006A000BD465DF8047B704780B485B000AF7860CC
:1006B0000B467B800023FB730023BB8100237B81DF
:1006C0007B681B8A9AB27B881340BB817B689B89BD
:1006D0009AB27B8813407B81BB89002B05D07B8934
:1006E000002B02D00123FB7301E00023FB73FB7B93
:1006F00018461437BD465DF8047B704780B483B05C
:1007000000AF78600B467B807B88DB439AB27B68C6
:100710001A820C37BD465DF8047B704780B487B001
:1007200000AFF86079813A81FB800023BB8200230F
:10073000FB82FB681B8C9BB223F001039AB2FB681F
:100740001A84FB681B8BBB82FB681B8CFB82BB8AF9
:1007500023F0F303BB82FB881B019AB23B8913434E
:100760009AB2BB8A1343BB82FA681C4B9A4213D0DD
:10077000FA681B4B9A420FD0FB68B3F1804F0BD045
:10078000FA68184B9A4207D0FA68174B9A4203D07E
:10079000FA68164B9A420BD1FB8A23F00203FB82C4
:1007A0007A89FB8A13439BB243F00103FB820AE080
:1007B000FB8A23F00A03FB827A89FB8A13439BB2EC
:1007C00043F00103FB82FB68BA8A1A83FB68FA8A4A
:1007D0001A841C37BD465DF8047B7047002C01402D
:1007E000003401400004004000080040000C0040BC
:1007F00080B487B000AFF86079813A81FB80002334
:10080000BB820023FB8200237B82FB681B8C9BB294
:1008100023F010039AB2FB681A84FB681B8BBB821F
:10082000FB681B8CFB827B891B017B82BB8A23F4C8
:1008300040731B051B0DBB82FB881B039AB2BB8A4E
:100840001343BB823B891B029AB2BB8A1343BB8210
:10085000FA681C4B9A4213D0FA681B4B9A420FD08D
:10086000FB68B3F1804F0BD0FA68184B9A4207D05F
:10087000FA68174B9A4203D0FA68164B9A420BD18A
:10088000FB8A23F02003FB827A8AFB8A13439BB204
:1008900043F01003FB820AE0FB8A23F0A003FB82F3
:1008A0007A89FB8A13439BB243F01003FB82FB68F7
:1008B000BA8A1A83FB68FA8A1A841C37BD465DF827
:1008C000047B7047002C01400034014000040040CC
:1008D00000080040000C004080B487B000AFF86012
:1008E00079813A81FB800023BB820023FB820023B5
:1008F0007B82FB681B8C9BB223F480739AB2FB68EB
:100900001A84FB689B8BBB82FB681B8CFB827B89F8
:100910001B027B82BB8A23F0F303BB82FB881B0193
:100920009AB23B8913439AB2BB8A1343BB82FA68DB
:100930001C4B9A4213D0FA681B4B9A420FD0FB68AB
:10094000B3F1804F0BD0FA68184B9A4207D0FA687F
:10095000174B9A4203D0FA68164B9A420BD1FB8A86
:1009600023F40073FB827A8AFB8A13439BB243F41D
:100970008073FB820AE0FB8A23F42063FB827A897E
:10098000FB8A13439BB243F48073FB82FB68BA8AF1
:100990009A83FB68FA8A1A841C37BD465DF8047B8B
:1009A000704700BF002C01400034014000040040AB
:1009B00000080040000C004080B487B000AFF86031
:1009C00079813A81FB800023BB820023FB820023D4
:1009D0007B82FB681B8C9BB223F480539AB2FB682A
:1009E0001A84FB689B8BBB82FB681B8CFB827B8918
:1009F0001B037B82BB8A23F440731B051B0DBB8248
:100A00003B891B029AB2BB8A1343BB82FB881B0340
:100A10009AB2BB8A1343BB82FA681D4B9A4213D029
:100A2000FA681C4B9A420FD0FB68B3F1804F0BD091
:100A3000FA68194B9A4207D0FA68184B9A4203D0C9
:100A4000FA68174B9A420BD1FB8A23F40053FB82BE
:100A50007A8AFB8A13439BB243F48053FB820CE0F7
:100A6000FB8A23F400735B045B0CFB827A89FB8AAC
:100A700013439BB243F48053FB82FB68BA8A9A8388
:100A8000FB68FA8A1A841C37BD465DF8047B704700
:100A9000002C0140003401400004004000080040E8
:100AA000000C004080B582B000AF114B7B60114B51
:100AB0003B6007E03B681A1D3A607A68111D796057
:100AC00012681A603A680C4B9A42F3D30B480C49EF
:100AD0004FF000028842B8BF40F8042BFFF6FAAF8F
:100AE00000F014F800F012FF0837BD4680BD00BFCB
:100AF000E4440008000000202C0000202C0000200E
:100B00007401002080B400AFFEE700BF80B500AFE5
:100B1000164B164A126842F001021A60134A134B30
:100B20005968134B0B405360104A104B1B6823F05D
:100B3000847323F4803313600C4B0C4A126822F444
:100B400080221A60094B094A526822F4FE025A6058
:100B5000064B4FF41F029A60044B0022DA6200F049
:100B60000BF8044B4FF000629A6080BD0010024009
:100B70000000FFF800ED00E080B500AF00F002F8E3
:100B800080BD00BF80B483B000AF00237B60002332
:100B90003B60304B2F4A126842F480321A602D4B72
:100BA0001B6803F400333B607B6801337B603B6868
:100BB000002B03D17B68B3F5A06FF0D1254B1B68E8
:100BC00003F40033002B02D001233B6001E000233B
:100BD0003B603B68012B37D11E4B1E4A52685A605E
:100BE0001C4B1C4A52685A601A4B1A4A52685A6087
:100BF000184B184A526822F47C125A60154B154A59
:100C0000526842F498125A60124B124A126842F02B
:100C100080721A6000BF0F4B1B6803F00073002B3B
:100C2000F9D00C4B0B4A526822F003025A60094B70
:100C3000084A526842F002025A6000BF054B5B68E6
:100C400003F00C03082BF9D10C37BD465DF8047B8B
:100C5000704700BF0010024080B582B000AF102086
:100C6000012101F02BFA4FF44073BB801023FB717C
:100C70000323BB713B1D0348194600F06FFD083785
:100C8000BD4680BD0010014080B584B000AF022099
:100C9000012101F031FA3B1D1846FFF799FB0223B1
:100CA000BB8040F2E7333B813B1D03481946FFF709
:100CB00039FA1037BD4680BD0004004080B584B0CD
:100CC00000AF1020012101F017FA3B1D1846FFF775
:100CD0007FFB40F2CF23BB8040F2F3133B813B1DEF
:100CE0000D481946FFF71EFA36233B700123FB70AF
:100CF00001237B700023BB703B46184601F0D2FDF8
:100D000005480121FFF7FAFC034801210122FFF702
:100D1000B1FB1037BD4680BD0010004080B584B0E7
:100D200000AF2020012101F0E7F93B1D1846FFF735
:100D30004FFB1723BB8009233B813B1D0D48194600
:100D4000FFF7F0F937233B700123FB7001237B7021
:100D50000023BB703B46184601F0A4FD0548012165
:100D6000FFF7CCFC034801210122FFF783FB10377A
:100D7000BD4680BD0014004080B584B000AFFFF7D1
:100D800083FF60233B8001237B800023FB800023C3
:100D90003B813B4609481946FFF740FA07480821BE
:100DA000FFF7ACFB05480121FFF788FB0348012151
:100DB000FFF740FB1037BD4680BD00BF0004004078
:100DC00080B582B000AF0920012101F077F901233D
:100DD000BB801823FB710323BB713B1D18481946C8
:100DE00000F0BCFC4023BB801023FB713B1D14486A
:100DF000194600F0B3FC1020012101F05FF9102327
:100E0000BB800023FB713B1D0E48194600F0A6FC79
:100E10004023BB804823FB713B1D0A48194600F064
:100E20009DFC8023BB801023FB713B1D05481946A8
:100E300000F094FCFFF7A0FF0837BD4680BD00BF5F
:100E4000000C01400010014080B586B000AF0420C6
:100E5000012101F033F94FF48040012101F02EF916
:100E60004FF40073BB821823FB750323BB7507F196
:100E700014031D48194600F071FC4FF48063BB82D7
:100E80000423FB7507F114031748194600F066FCAC
:100E90004FF4E1337B6000233B8100237B810023FF
:100EA000BB8100233B820C23FB813B1D0F4819466D
:100EB00001F080F90D48012101F036FA25233B703D
:100EC00001237B700323BB700123FB703B46184654
:100ED00001F0E8FC054840F22551012201F044FAF6
:100EE0001837BD4680BD00BF0008014000380140F2
:100EF00080B586B000AF0820012101F0DFF84FF483
:100F00008020012101F0F8F84FF48063BB821823A0
:100F1000FB750323BB7507F114031D48194600F048
:100F20001DFC4FF40063BB820423FB7507F114031F
:100F30001748194600F012FC4FF4E1337B600023A0
:100F40003B8100237B810023BB8100233B820C2358
:100F5000FB813B1D0F48194601F02CF90D4801217A
:100F600001F0E2F927233B7001237B700423BB705F
:100F70000123FB703B46184601F094FC054840F203
:100F80002551012201F0F0F91837BD4680BD00BFA0
:100F9000000C01400048004080B592B000AFF860FE
:100FA0000B467A60FB72F86800F0EEF9034687F8AA
:100FB000453097F84530013B082B00F2B38101A181
:100FC00051F823F0E90F000809100008D9100008B3
:100FD00029100008811000081111000825130008CD
:100FE00079110008231200080120F96881220423E6
:100FF00000F028FA0346002B05D0786898490022B3
:1010000000F0A6F994E193E10120F968812204231C
:1010100000F018FA0346002B05D0786890490022AA
:1010200000F096F984E183E10120F968822200232F
:1010300000F008FA0346002B1BD1FB6803331B7832
:10104000312B08D1FA7A874913469B0013440B448D
:101050000122DA7013E0FB6803331B78302B0ED1CA
:10106000FA7A804913469B0013440B440022DA703D
:101070005EE178687A49002200F06AF958E157E1A8
:101080000120F9688222002300F0DCF90346002BDE
:101090001BD1FB6803331B78312B08D1FA7A7149D5
:1010A00013469B0013440B4401229A7013E0FB6823
:1010B00003331B78302B0ED1FA7A6A4913469B0012
:1010C00013440B4400229A7032E17868644900228C
:1010D00000F03EF92CE12BE10120F9688122032385
:1010E00000F0B0F90346002B0CD1FB68033318461F
:1010F00001F0DCFC03463B643B6C9BB2184601F0FC
:1011000053FF15E178685649002200F021F90FE1FC
:101110000120F9688222002300F094F90346002B95
:1011200023D1FB6803331B78312B10D1FA7A4D4958
:1011300013469B0013440B4401225A70FA7A494922
:1011400013469B0013440B4401221A7013E0FB6802
:1011500003331B78302B0ED1FA7A424913469B0099
:1011600013440B4400221A70E2E078683C490022E4
:1011700000F0EEF8DCE0DBE00020F968002200235C
:1011800000F060F90346002B45D1374B1B6807F18F
:101190001C021046194601F07BFD07F11C0378681C
:1011A000194602F025FF786802F0A6FF03467A6828
:1011B00013442E4A12881A802B4B5B6807F11C02DD
:1011C0001046194601F064FD07F11C0378681946C2
:1011D00002F00EFF786802F08FFF03467A6813442E
:1011E000224A12881A80204B9B6807F11C02104685
:1011F000194601F04DFD07F11C037868194602F00D
:10120000F7FE786802F078FF03467A681344184ABC
:1012100012881A808CE078681149002200F098F852
:1012200086E00320F96884220A2300F00BF90346C4
:10123000002B71D1002387F84630FB680233FB6036
:10124000FB681B783D2B02D1FB680133FB60012357
:1012500087F8473059E0002387F8463019E000BF8F
:10126000684400084C0000206C0000208044000806
:101270008444000897F846305A1C87F84620FA68DC
:10128000127807F148010B4403F8382CFB6801334E
:10129000FB60FB681B782C2B03D0FB681B78002BB2
:1012A000E8D1FB680133FB6097F8463007F148024C
:1012B0001344002203F8382C07F11003184601F0FC
:1012C0002BFC02460B461046194602F04DFB034626
:1012D000FB6397F84730012B03D11A4BFA6B1A6066
:1012E0000EE097F84730022B03D1164BFA6B5A6089
:1012F00006E097F84730032B02D1124BFA6B9A6045
:1013000097F84730013387F8473097F84730032B79
:10131000A1D901F0F7FE0BE078680B49002200F03C
:1013200017F805E078680949002200F011F800BFBD
:10133000786802F0E1FE0346DBB218464837BD4646
:1013400080BD00BF6C00002068440008884400088D
:1013500080B584B000AFF860B9607A60BB68002BDC
:1013600003D0F868B96802F069FE7B68002B07D0EB
:101370007B681B78002B03D0F868796802F038FE90
:101380001037BD4680BD00BF80B485B000AF786027
:1013900000237B7300233B737B681B78FB737B68A4
:1013A00001331B78BB73FB7B602B05D9FB7B7A2B4E
:1013B00002D8FB7B203BFB73BB7B602B06D9BB7B3E
:1013C0007A2B03D8BB7B203BBB7326E025E07A7BDE
:1013D0001B4913465B0013449B000B441B681B789E
:1013E000FA7B9A4216D17A7B154913465B00134467
:1013F0009B000B441B6801331B78BA7B9A4209D1CE
:101400007A7B0F4913465B0013449B000B441B7906
:101410003B730DE07B7B01337B737A7B084913467A
:101420005B0013449B000B441B681B78002BCED140
:101430003B7B18461437BD465DF8047B704700BF00
:10144000F043000880B584B000AF39600146F971FF
:10145000BA717B71BB7903F00F037B723B68023377
:10146000FB60FB681B78002B06D1FB79002B01D1B8
:10147000002345E1012343E1FB681B783D2B05D1A7
:10148000FB680133FB600123FB721CE00B2337E197
:1014900002E0FB680133FB60FB681B783D2B07D043
:1014A000FB681B782C2B03D0FB681B78002BF0D13A
:1014B000FB681B78002B00D109E0FB680133FB605F
:1014C000FB7A0133FB72FA7AFB799A42E0D3FA7A1B
:1014D000FB799A4201D0022312E1FB681B782C2B86
:1014E00001D10A230CE17B7A013B032B00F2078137
:1014F00001A252F823F000BF091500089F1500084B
:10150000ED1500088F1600080023FB720EE0FB6843
:101510001B78184600F0F8F80346FF2B00D109E0CD
:10152000FB680133FB60FB7A0133FB72FA7A7B794B
:101530009A42ECD3FB7A002B01D10423E0E0FB6854
:101540001B78002B07D1BB795BB2002B01DA00239B
:10155000D6E00523D4E0FB681B78184600F0D4F8E9
:101560000346FF2B01D00623CAE0FB681B782C2B17
:1015700009D0FB681B783D2B05D0BB795BB2002BF3
:1015800001DB0723BCE0FB681B78002B05D0BB798F
:101590005BB2002B01DA0823B2E00023B0E0FB6865
:1015A0001B78302B05D0FB681B78312B01D0092329
:1015B000A6E0FB680133FB60FB681B782C2B09D08D
:1015C000FB681B783D2B05D0BB795BB2002B01DBA0
:1015D000072395E0FB681B78002B05D0BB795BB235
:1015E000002B01DA08238BE0002389E0FB681B78DD
:1015F000612B0DD0FB681B78622B09D0FB681B7830
:10160000412B05D0FB681B78422B01D0012377E0EA
:10161000FB680133FB60BB795BB2002B05DBFB6829
:101620001B78002B01D102236AE0BB795BB2002B4F
:1016300009DBFB681B783D2B05D0FB681B782C2B46
:1016400001D003235CE0BB795BB2002B09DBFB68B4
:101650001B783D2B03D0FB681B782C2B01D100237A
:101660004EE0BB795BB2002B05DAFB681B78002BE0
:1016700001D0042344E0BB795BB2002B05DAFB68A0
:101680001B78002B01D100233AE0052338E000232A
:10169000FB720023BB721AE0FB681B782D2B04D170
:1016A000FB7A002B01D005232AE0FB681B782E2B48
:1016B00002D1BB7A0133BB72BB7A012B01D905235E
:1016C0001EE0FB680133FB60FB7A0133FB72FB68B1
:1016D0001B782F2B03D9FB681B78392BDCD9FB68CF
:1016E0001B782E2BD8D0FB681B782D2BD4D0FB6811
:1016F0001B78002B01D0052302E0002300E0032328
:1017000018461037BD4680BD80B483B000AF034695
:10171000FB71FB79402B06D9FB79462B03D8FB796B
:10172000373BDBB214E0FB79602B06D9FB79662BE3
:1017300003D8FB79573BDBB20AE0FB792F2B06D9A4
:10174000FB79392B03D8FB79303BDBB200E0FF2378
:1017500018460C37BD465DF8047B704780B489B0ED
:1017600000AF786039600023FB6100233B610023F8
:10177000BB610023FB6000237B610023BB603B68EF
:10178000DB7803F00F03FB613B68DB7803F01003A9
:10179000002B04D03B689B78FA691343FB613B68DC
:1017A0001B88DBB2002B44D07B681B687B61002365
:1017B000BB6138E0BB69012202FA03F3FB603B68BE
:1017C0001B881A46FB6813403B613A69FB689A42E2
:1017D00026D1BB699B00FB60FB680F2202FA03F372
:1017E000BB60BB68DB437A6913407B61FB68FA69C5
:1017F00002FA03F37A6913437B613B68DB78282B99
:1018000005D1BB6901229A407B685A6108E03B68B8
:10181000DB78482B04D1BB6901229A407B681A61AE
:10182000BB690133BB61BB69072BC3D97B687A698C
:101830001A603B681B88FF2B46D97B685B687B611D
:101840000023BB613AE0BB690833012202FA03F3CB
:10185000FB603B681B881A46FB6813403B613A6992
:10186000FB689A4227D1BB699B00FB60FB680F2293
:1018700002FA03F3BB60BB68DB437A6913407B6108
:10188000FB68FA6902FA03F37A6913437B613B68E8
:10189000DB78282B05D1BB69083301229A407B688D
:1018A0005A613B68DB78482B05D1BB6908330122BC
:1018B0009A407B681A61BB690133BB61BB69072B26
:1018C000C1D97B687A695A602437BD465DF8047BCC
:1018D000704700BF80B483B000AF78600B467B8058
:1018E0007A887B681A610C37BD465DF8047B7047C7
:1018F00080B483B000AF78600B467B807A887B68C9
:101900005A610C37BD465DF8047B704790B5CFB087
:1019100000AF002387F8333101F0AEFAFFF7CEF9BC
:10192000FFF7FCF9FFF790FAFFF796F9FFF7E0FAF7
:10193000FFF746FA00F0FEFB01F0B6FBB04B0022C9
:101940001A70B04B00221A70AF4B00221A70AF4BC6
:1019500000221A70AE4B00221A70502001F024FBB6
:101960000023C7F8343131E0AA49D7F834211346AF
:101970009B0013440B4400221A70A649D7F8342167
:1019800013469B0013440B4400225A70A149D7F818
:10199000342113469B0013440B4401221A719D49C4
:1019A000D7F8342113469B0013440B4400229A704D
:1019B0009849D7F8342113469B0013440B44002266
:1019C000DA70D7F834310133C7F83431D7F834310D
:1019D000042BC9DD0023C7F8343104E0D7F83431D3
:1019E0000133C7F83431D7F834218B4B9A42F5DDF7
:1019F0000023C7F8343104E0D7F834310133C7F895
:101A00003431D7F83421844B9A42F5DD0023C7F8EE
:101A1000343104E0D7F834310133C7F83431D7F822
:101A200034217D4B9A42F5DD7C487D4900F00AF96E
:101A30000023C7F8343104E0D7F834310133C7F854
:101A40003431D7F83421744B9A42F5DD0023C7F8BE
:101A5000343104E0D7F834310133C7F83431D7F8E2
:101A600034216D4B9A42F5DD0023C7F8343104E090
:101A7000D7F834310133C7F83431D7F83421664B05
:101A80009A42F5DD67480121FEF7D4FC01F052F9D6
:101A9000654B42221A70654B57221A70644B1B78B3
:101AA000002B1DD0624B1B781A463B465E48114600
:101AB0001A4600F0E5F85E4B00221A703B461B7890
:101AC000002B0DD03A4607F1C803002011461A46F4
:101AD00000F048F907F1C8031846564900F0B2F87B
:101AE000554B1B78002B1FD007F1C803002053492A
:101AF0001A4600F037F907F1C80318464D4900F0BF
:101B0000A1F84A4B5B78422B0BD1484B9B78592B61
:101B100007D1464BDB78452B03D14948404900F0BB
:101B200091F8454B00221A70384B1B78022B20D1BC
:101B3000364B00221A7001F047FA03461C4601F0AA
:101B40001BFA0346E31A184602F018F80346C7F8D2
:101B50002C31D7F82C0101F043FA0346184602F065
:101B600027FA03469BB2184600F008FB264B0122D9
:101B70001A70254B1B78002B31D097F8332125495B
:101B800013469B0013440B441B78002B18D097F886
:101B9000332107F164031046194600F03DF997F828
:101BA000331107F1640207F1C803084611461A46CB
:101BB00000F0D8F807F1C80318461E4900F042F8B3
:101BC00097F83331013387F8333197F83331052BE8
:101BD00005D9002387F833310B4B00221A700C4BC8
:101BE0001B78002B0BD00A4B00221A7007F1C80398
:101BF0001846104900F026F800F0DEF84EE74DE7F1
:101C0000A6000020A5000020A700002065000020FD
:101C1000680000204C0000203F420F009C44000858
:101C2000004800400010004010010020AC000020DF
:101C3000A40000200038014069000020AD00002011
:101C4000B044000880B582B000AF7860396010E021
:101C50007B681B783868194600F0CEFB7B6801333F
:101C60007B6000BF3868402100F0E8FB0346002B92
:101C7000F8D07B681B78002BEAD10837BD4680BDC1
:101C800080B586B000AFF8600B467A607B817B68D8
:101C900000221A707B89FA68134400221A70FB68CC
:101CA0001B78422B31D1FB6801331B782F2B2CD9A9
:101CB000FB6801331B78392B27D8FB6801331B786D
:101CC000303BFB75FB6805331B78532B0ED1FB684B
:101CD0009A1DFB7D104619467A68FFF75DF90346A9
:101CE0007B817B897A68134400221A70FB68053374
:101CF0001B78572B09D1FB68063318460449FFF7B8
:101D0000A1FF04480249FFF79DFF1837BD4680BD7B
:101D100000480040B844000880B485B000AF786047
:101D200039600023FB730AE0FB7B7A681344FA7B7B
:101D300039680A4412781A70FB7B0133FB73FB7B12
:101D40003A6813441B78002BEED1FB7B7A6813446E
:101D500000221A70FB7B18461437BD465DF8047BE1
:101D6000704700BF80B586B000AF0346B9607A60A7
:101D7000FB73FB7B3033DAB27B681A707B68043309
:101D80001846B968FFF7C8FF0346FB75FB7D07F1EE
:101D900010021046194600F047FE7B6801337A7C3A
:101DA0001A707B680233BA7C1A707B680333FA7C42
:101DB0001A701837BD4680BD80B586B000AF0023CD
:101DC000FB751AE0FA7D104913469B0013440B443F
:101DD0001B78002B0ED0FA7D3B4610460B491A4665
:101DE000FFF7C0FF3B4618460949FFF72BFF094B99
:101DF00001221A70FB7D0133FB75FB7D042BE1D9B9
:101E00001837BD4680BD00BF4C000020BC44000810
:101E100000380140A7000020B0B588B000AF0346ED
:101E20003960FB713B6800221A70FA794849134601
:101E30009B0013440B441B79002B15D1386802F02A
:101E40005BF903463A681A44424B15461C460FCCD0
:101E500028606960AA60EB6003CC28616961228810
:101E6000A3782A83AB7670E0FA79394913469B0050
:101E700013440B441B79012B67D101F0A5F80346ED
:101E8000FB83FB8B3868194600F06CFD386802F064
:101E900033F903463A6813442F4A12881A8001F036
:101EA0006BF80346FB83FB8B07F1080210461946CB
:101EB00000F058FD07F108033868194602F098F859
:101EC000386802F019F903463A681344224A128826
:101ED0001A8000F063F90346BB83BB8B07F108024D
:101EE0001046194600F03EFD07F10803184602F0BF
:101EF00003F9034607F108021344174A12881A80AF
:101F000007F108033868194602F072F801F040F84A
:101F10000346BB83BB8B07F108021046194600F04D
:101F200021FD07F10803184602F0E6F8034607F121
:101F300008021344094A1188927819809A7007F1AF
:101F400008033868194602F053F82037BD46B0BD83
:101F50004C000020C0440008DC440008E0440008B5
:101F600080B489B000AF78600023FB610023BB61BF
:101F700000237B6100233B610023FB604A4B5B68CD
:101F800003F00C03FB61FB69042B07D0082B09D07D
:101F9000002B2FD17B68454A1A602FE07B68434AAB
:101FA0001A602BE0404B5B6803F47013BB613E4B3F
:101FB0005B6803F480337B61BB699B0C0233BB61BC
:101FC0007B69002B06D1BB69394A02FB03F27B68AF
:101FD0001A6013E0344BDB6A03F00F030133FB603C
:101FE000324AFB68B2FBF3F3BA6902FB03F27B6887
:101FF0001A6003E07B682D4A1A6000BF2A4B5B68B9
:1020000003F0F003FB61FB691B09FB61294AFB69D3
:1020100013441B78DBB23B617B681A683B69DA408A
:102020007B685A60204B5B6803F4E063FB61FB69EB
:102030001B0AFB611F4AFB6913441B78DBB23B613F
:102040007B685A683B69DA407B689A60164B5B682C
:1020500003F46053FB61FB69DB0AFB61154AFB6912
:1020600013441B78DBB23B617B685A683B69DA40FA
:102070007B68DA600C4B5B6803F44043FB61FB69EF
:102080009B0BFB610C4AFB6913441B78DBB23B6181
:102090007B68DA683B69B2FBF3F27B681A6124372C
:1020A000BD465DF8047B70470010024000127A00C4
:1020B00000093D00140000202400002080B483B0FB
:1020C00000AF78600B46FB70FB78002B06D0094B05
:1020D000084A91697A680A439A6106E0054B054A05
:1020E00091697A68D2430A409A610C37BD465DF81F
:1020F000047B70470010024080B483B000AF78606A
:102100000B46FB70FB78002B06D0094B084AD169BF
:102110007A680A43DA6106E0054B054AD1697A68B4
:10212000D2430A40DA610C37BD465DF8047B704744
:102130000010024080B500AF05484021FFF7CAFB00
:1021400004488021FFF7D4FB002000F017F880BD81
:10215000000C01400010014080B500AF0448402150
:10216000FFF7B8FB034B044A12889A8780BD00BF73
:10217000000C014000040040A800002080B582B09F
:1021800000AF0346FB80044BFA881A80FFF7E4FF98
:102190000837BD4680BD00BFA800002080B400AF56
:1021A000034B1B881846BD465DF8047B704700BF93
:1021B000A800002080B58CB000AF786039600023A3
:1021C000FB620023BB6200237B6200233B6200238F
:1021D000FB617B68FB617B681B8A9BB2FB62FA6ACE
:1021E0004CF6FF731340FB623B68DB88FA6A1343CB
:1021F000FB62FB6A9AB27B681A827B689B899BB2FE
:10220000FB62FA6A4EF6F3131340FB623B689A884E
:102210003B681B8913439AB23B685B8913439BB2AB
:10222000FA6A1343FB62FB6A9AB27B689A817B6805
:102230009B8A9BB2FB62FA6A4FF6FF431340FB6234
:102240003B689B89FA6A1343FB62FB6A9AB27B681C
:102250009A8207F108031846FFF782FEFA69304BAD
:102260009A4202D17B69BB6201E03B69BB627B6839
:102270009B899BB29BB21BB2002B0CDABA6A134645
:102280009B0013449A001A443B681B685B00B2FB36
:10229000F3F37B620BE0BA6A13469B0013449A0087
:1022A0001A443B681B689B00B2FBF3F37B627A6ABB
:1022B0001C4BA3FB02135B091B01FB62FB6A1B099E
:1022C000642202FB03F37A6AD31A3B627B689B8920
:1022D0009BB29BB21BB2002B0DDA3B6ADB0003F111
:1022E0003202104BA3FB02135B0903F00703FA6AE7
:1022F0001343FB620CE03B6A1B0103F13202094B02
:10230000A3FB02135B0903F00F03FA6A1343FB629A
:10231000FB6A9AB27B681A813037BD4680BD00BF28
:10232000003801401F85EB5180B483B000AF786066
:102330000B46FB70FB78002B08D07B689B899BB217
:1023400043F400539AB27B689A8107E07B689B89CB
:102350009BB223F400539AB27B689A810C37BD4636
:102360005DF8047B704700BF80B487B000AF786031
:1023700013460A467A807B7000233B610023FB6092
:102380000023BB6000237B617B687B617B88DBB2C1
:102390005B09DBB23B617B8803F01F03FB60FB68DA
:1023A000012202FA03F3BB603B69012B03D17B6975
:1023B0000C337B6109E03B69022B03D17B6910334D
:1023C0007B6102E07B6914337B617B78002B06D054
:1023D0007B697A691168BA680A431A6006E07B690A
:1023E0007A691168BA68D2430A401A601C37BD4640
:1023F0005DF8047B704700BF80B483B000AF7860A5
:102400000B467B807B88C3F308039AB27B689A8073
:102410000C37BD465DF8047B704700BF80B483B0C5
:1024200000AF78607B689B889BB2C3F308039BB2C4
:1024300018460C37BD465DF8047B704780B485B004
:1024400000AF78600B467B800023FB737B681B88A2
:102450009AB27B8813409BB2002B02D00123FB73FE
:1024600001E00023FB73FB7B18461437BD465DF883
:10247000047B704780B500AF4FF080400121FEF72C
:102480003DF980BD80B500AF05480121FEF70CF98C
:102490000346012B03D102480121FEF72FF980BD2D
:1024A0000008004080B500AF15480121FEF7E0F8B4
:1024B00013480121FEF722F9124B1B780133DAB2DF
:1024C000104B1A700F4B1B78012B0CD10E4B0222B4
:1024D0001A700E4B1B88012B05D10D4B1B88013345
:1024E0009AB20B4B1A80074B1B78042B07D100F0D4
:1024F00021FC044B00221A70044B01221A8080BD7B
:102500000010004042000020650000203E00002036
:102510004000002080B500AF14480121FEF7A8F864
:1025200012480121FEF7EAF8114B1B88002B06D157
:102530000F4B1B8801339AB20D4B1A8015E00C4BE0
:102540001B88012B11D109480021FDF773FF0948B1
:102550004FF48071FFF7CCF904480021FDF7EAFF42
:10256000034B00221A8000F0F7FB80BD00140040EE
:1025700044000020000C014080B500AF314802212A
:10258000FEF776F82F480221FEF7B8F82E4B1B888D
:10259000002B0DD12B48FEF74FF803461A462B4B64
:1025A0001A80294B1B8801339AB2274B1A8048E0C6
:1025B0002448FEF741F803461A46254B1A80224B61
:1025C00000221A80224B1B889AB2204B1B889BB298
:1025D0009A420BD91E4B1B889BB21A461B4B1B8879
:1025E0009BB2D31A1A461B4B1A6017E0184B1B8874
:1025F0009AB2164B1B889BB29A420CD2134B1B8883
:102600009BB2C3F58032124B1B889BB213441A460F
:10261000104B1A6002E00F4B00221A600D4B1B6832
:10262000002B0ED00B4B1A6813469B001A44094B23
:102630001A60084B1B68184600F070FC064B00221D
:102640001A8080BD004401403C0000202C00002086
:102650002E000020300000203E00002080B582B017
:1026600000AF2A4B1B889BB203F02003002B49D0FC
:102670002648FFF7D3FE0346FB71FB79082B13D1E5
:10268000234B1B78012B28D9214B1B78214A002191
:10269000D1541F4B1B78013BDAB21D4B1A701B48FB
:1026A0000D21FFF7A9FE18E0FB790A2B0AD11A4B7E
:1026B00000221A70164B1A78184B1A70144B01220C
:1026C0001A700AE0124B1B78124AF979D154104B58
:1026D0001B780133DAB20E4B1A700C4B1B889BB27D
:1026E00003F00803002B0DD0084B1B889BB2BB7175
:1026F000064B9B889BB2BB71094B1B8801339AB276
:10270000074B1A800837BD4680BD00BF0038014026
:102710002800002010010020A5000020A4000020B7
:102720004600002080B582B000AF1C4B1B889BB2D6
:1027300003F02003002B2DD01848FFF76FFE03464F
:10274000FB71174B1B88174AF979D154144B1B881E
:10275000144AD35C0A2B17D1114B1B88022B13D9B7
:102760000F4B1B8801339AB20D4B1A800C4B1B8800
:10277000DAB20D4B1A700A4B1B880A4A0021D15459
:10278000074B01221A8005E0054B1B8801339AB2E2
:10279000034B1A800837BD4680BD00BF004800408B
:1027A0002A000020AC0000206900002080B500AFA6
:1027B0002D481021FDF778FF0346012B52D12A48FE
:1027C0001021FDF79BFF294B1B889AB2284B1A80DA
:1027D0002548FDF73FFF03461A46244B1A80234B3A
:1027E0001B889AB2224B1B889BB29A420BD91F4B73
:1027F0001B889BB21A461E4B1B889BB2D31A1A46E3
:102800001C4B1A6017E0194B1B889AB2184B1B8897
:102810009BB29A420CD2164B1B889BB2C3F58032F6
:10282000124B1B889BB213441A46124B1A6002E0EB
:10283000104B00221A60104B1A6813461B019B1A9A
:102840009B00DA080D4BA3FB02139A08094B1B6887
:10285000B2FBF3F2074B1A60064B1B689BB218469B
:1028600000F07AFB80BD00BF002C01403600002044
:10287000340000203800002000000020176CC11632
:1028800080B483B000AF7860054A7B6843F0BF63D3
:1028900043F40033D3600C37BD465DF8047B7047CA
:1028A00000ED00E080B487B000AF786000237B616A
:1028B00000233B610F23FB607B68DB78002B38D063
:1028C000264BDB68DB4303F4E0631B0A7B617B6917
:1028D000C3F104033B617B69FA6822FA03F3FB60EE
:1028E0007B685B781A463B6902FA03F37B617B687D
:1028F0009B781A46FB6813407A6913437B617B69B6
:102900001B017B6116497B681B787A69D2B20B4444
:1029100083F80023124B7A6812785209D2B2796890
:10292000097801F01F01012000FA01F143F822109B
:102930000EE00B4B7A6812785209D2B279680978A6
:1029400001F01F01012000FA01F1203243F82210AA
:102950001C37BD465DF8047B704700BF00ED00E00A
:1029600000E100E080B485B000AF78600B467B806A
:102970007B88002B07D17B6830221A707B6801337B
:1029800000221A7049E00123FB731CE0FB7BC3F1BA
:1029900005037A68D0187A88224BA3FB0213D90862
:1029A0000B469B000B445B00D31A9BB2DBB2303367
:1029B000DBB203707A881B4BA3FB0213DB087B801E
:1029C000FB7B0133FB73FB7B052BDFD9FB7B013BDF
:1029D0007A68134400221A700023FB7302E0FB7B29
:1029E0000133FB73FB7B7A6813441B78302BF6D0E2
:1029F0000023BB730CE0BB7B7A681344F97BBA7B82
:102A00000A4479680A4412781A70BB7B0133BB739D
:102A1000FA7BBB7B1344052BEDDD1437BD465DF817
:102A2000047B7047CDCCCCCC80B485B000AF78604F
:102A30000B467B807B88002B07D17B6830221A7085
:102A40007B68013300221A7028E00123FB731CE02D
:102A5000FB7BC3F104037A68D0187A88124BA3FB7E
:102A60000213D9080B469B000B445B00D31A9BB2A0
:102A7000DBB23033DBB203707A880B4BA3FB02135B
:102A8000DB087B80FB7B0133FB73FB7B042BDFD9F3
:102A9000FB7B013B7A68134400221A701437BD4651
:102AA0005DF8047B704700BFCDCCCCCC80B584B042
:102AB00000AF786000237B720023BB81786801F04F
:102AC0001BFB0346FB73FB7B042B01D900231DE09A
:102AD00001237B8116E0FB7B013B7A6813441B7862
:102AE000303B9BB27A8902FB03F39AB2BB89134451
:102AF000BB817B891A46920013445B007B81FB7B80
:102B0000013BFB73FB7B002BE5D1BB8918461037DB
:102B1000BD4680BD00000000B0B588B000AF786051
:102B20000023FB7700237B774FF00002564BC7E969
:102B300004234FF000024FF00003C7E902237B6833
:102B40001B782D2B05D17B6801337B6001237B77BC
:102B500003E002E0FB7F0133FB77FB7F7A681344DD
:102B60001B782E2B0BD0FB7F7A6813441B782C2B01
:102B700005D0FB7F7A6813441B78002BEAD1012330
:102B8000BB7729E0FA7FBB7FD31A7A6813441B789E
:102B9000303B184600F070FC02460B4610461946C2
:102BA000D7E9042300F0CEFC02460B46D7E9020128
:102BB00000F016FB02460B46C7E90223D7E90401E1
:102BC0004FF00002314B00F0BDFC02460B46C7E956
:102BD0000423BB7F0133BB77BA7FFB7F9A42D1D9F5
:102BE000FB7F7A6813441B78002B36D0FB7F0133C0
:102BF000BB7723A3D3E90023C7E9042327E0BB7FE6
:102C00007A6813441B78303B184600F035FC0246C6
:102C10000B4610461946D7E9042300F093FC024600
:102C20000B46D7E9020100F0DBFA02460B46C7E982
:102C30000223D7E904014FF00002144B00F0ACFD71
:102C400002460B46C7E90423BB7F0133BB77BB7F3A
:102C50007A6813441B78002BD1D17B7F002B04D0E2
:102C6000BC68FB6883F0004501E0D7E902452246D5
:102C70002B46104619462037BD46B0BDAFF3008045
:102C80009A9999999999B93F0000F03F0000244022
:102C900090B585B000AF7860396038684FF00001BA
:102CA00001F05EF90346002B09D07B682D221A70D3
:102CB0007B6801337B603B6883F000433B6038688E
:102CC00001F076F903469BB278681946FFF74AFE91
:102CD000786801F011FA0346FB73FB7B7A681344B2
:102CE0002C221A70386801F063F903469BB218462B
:102CF00000F044FF03463868194600F089FE034699
:102D00003B6038680A4900F08DFF03463B60FB7B5F
:102D100001337A68D418386801F04AF903469BB247
:102D200020461946FFF780FE1437BD4690BD00BF10
:102D300000401C4680B500AF00F07AF804484FF41C
:102D40008071FEF7C7FD03480121FDF773FB80BDCD
:102D5000000C01400014004080B588B000AF4FF473
:102D60008073BB830423FB770323BB7707F11C032A
:102D70002C481946FEF7F2FC2B4B1B78002B45D153
:102D80002A4801210022FDF775FB28480221002274
:102D9000FDF770FB4FF400300121FFF78FF9092098
:102DA0000121FFF78BF907F110031846FDF710FB1F
:102DB00077233B8207F110031C481946FDF7B2F94F
:102DC0003B1D1846FDF71EFB0023BB800023BB8183
:102DD0000A23FB8000237B8101233B813B1D134899
:102DE0001946FDF7A1FA19233B700123FB7000235C
:102DF0007B700023BB703B461846FFF753FD0B4822
:102E00000121FDF717FB084B01221A700748022128
:102E1000FDF774FC054802210122FDF72BFB20374A
:102E2000BD4680BD000C0140480000200044014028
:102E300080B582B000AF0E480221FDF75FFC0C4860
:102E400002210022FDF716FB4FF48073BB80102394
:102E5000FB710323BB713B1D06481946FEF77EFC40
:102E600004484FF48071FEF743FD0837BD4680BD2E
:102E700000440140000C014080B588B000AF40F62E
:102E800005000121FFF71AF94FF40063BB83042307
:102E9000FB770323BB7707F11C031E481946FEF797
:102EA0005DFC07F110031846FDF792FA40F2671334
:102EB0003B8207F1100318481946FDF733F90C233C
:102EC000BB800023BB810023FB8000237B81012387
:102ED0003B813B1D10481946FDF726FA4FF4C060B0
:102EE000FFF7CEFC1B233B700123FB7000237B709C
:102EF0000123BB703B461846FFF7D4FC064810215F
:102F00000122FDF7B7FA04480121FDF793FA2037B3
:102F1000BD4680BD00080140002C014080B483B054
:102F200000AF78607B684FF4AC7202FB03F2084B91
:102F3000A3FB02139B0B7B607B68002B03D07B6899
:102F40009AB2044B1A800C37BD465DF8047B70477B
:102F50005917B7D16600002080B483B000AF034694
:102F6000FB80044BFA881A800C37BD465DF8047B61
:102F7000704700BFA000002080B400AF034B1B8847
:102F80001846BD465DF8047B704700BF6600002010
:102F900080B400AF034B1B881846BD465DF8047B28
:102FA000704700BFA000002080B483B000AF03468C
:102FB000FB80044BFA881A800C37BD465DF8047B11
:102FC000704700BFA200002080B400AF034B1B88F5
:102FD0001846BD465DF8047B704700BFA200002084
:102FE00090B585B000AF78602C4B9B6A1846796825
:102FF00000F018FE03461C46284BDA6A274B9B69F3
:103000001046194600F00EFE03462046194600F011
:1030100001FD03461C46214B1A6B204BDB69104611
:10302000194600F0FFFD03462046194600F0F2FC69
:1030300003461A46194B1B691046194600F0EAFC74
:103040000346FB60F868164900F0A8FF0346002B12
:1030500001D0134BFB60F8684FF0000100F080FFD7
:103060000346002B02D04FF00003FB600B4B9A6924
:103070000A4BDA61094B7A689A61084B1A69074B67
:103080005A61064BFA681A61F868064900F0C2FCFA
:10309000034618461437BD4690BD00BF6C000020A3
:1030A000000096430000164480B500AF114B4FF06E
:1030B00000021A610F4B4FF000025A610D4B4FF0A6
:1030C00000029A610B4B4FF00002DA61094B0A4A89
:1030D0001A60084B4FF07E525A60064B4FF07E52FA
:1030E0009A60044B054ADA6000F00CF8044B502259
:1030F0001A8080BD6C0000200000A0408FC2753D8A
:10310000A2000020B0B500AF304B314A1A622F4BFD
:103110001C682E4BDA682D4B5B681046194600F090
:1031200035FE034618464FF07E5100F073FC03460F
:103130001D46264B9A68254BDB681046194600F061
:1031400025FE03462846194600F064FC0346204647
:10315000194600F067FD03461A461C4B9A621B4B4A
:103160001B6883F00044194B9B681846194600F011
:1031700051FC03461A46154BDB681046194600F011
:1031800005FE034618464FF07E5100F043FC03460F
:103190002046194600F046FD03461A460B4BDA62FC
:1031A0000A4B1A68094B9B681046194600F03AFD15
:1031B00003461A46054BDB681046194600F0E6FD4B
:1031C00003461A46014B1A63B0BD00BF6C000020D5
:1031D000000080BF81F0004102E000BF83F00043A7
:1031E00030B54FEA41044FEA430594EA050F08BFA2
:1031F00090EA020F1FBF54EA000C55EA020C7FEA66
:10320000645C7FEA655C00F0E2804FEA5454D4EBE2
:103210005555B8BF6D420CDD2C4480EA020281EAAC
:10322000030382EA000083EA010180EA020281EAE4
:103230000303362D88BF30BD11F0004F4FEA013136
:103240004FF4801C4CEA113102D0404261EB410145
:1032500013F0004F4FEA03334CEA133302D05242CB
:1032600063EB430394EA050F00F0A780A4F1010487
:10327000D5F1200E0DDB02FA0EFC22FA05F28018C1
:1032800041F1000103FA0EF2801843FA05F35941A7
:103290000EE0A5F120050EF1200E012A03FA0EFC26
:1032A00028BF4CF0020C43FA05F3C01851EBE37150
:1032B00001F0004507D54FF0000EDCF1000C7EEB6D
:1032C00000006EEB0101B1F5801F1BD3B1F5001FAB
:1032D0000CD349085FEA30004FEA3C0C04F10104CA
:1032E0004FEA445212F5800F80F09A80BCF1004FF3
:1032F00008BF5FEA500C50F1000041EB045141EA75
:10330000050130BD5FEA4C0C404141EB010111F475
:10331000801FA4F10104E9D191F0000F04BF014620
:103320000020B1FA81F308BF2033A3F10B03B3F1FE
:1033300020020CDA0C3208DD02F1140CC2F10C028E
:1033400001FA0CF021FA02F10CE002F11402D8BFEC
:10335000C2F1200C01FA02F120FA0CFCDCBF41EAB8
:103360000C019040E41AA2BF01EB0451294330BD87
:103370006FEA04041F3C1CDA0C340EDC04F1140464
:10338000C4F1200220FA04F001FA02F340EA03003B
:1033900021FA04F345EA030130BDC4F10C04C4F181
:1033A000200220FA02F001FA04F340EA0300294661
:1033B00030BD21FA04F0294630BD94F0000F83F4AB
:1033C000801306BF81F480110134013D4EE77FEA8E
:1033D000645C18BF7FEA655C29D094EA050F08BFDA
:1033E00090EA020F05D054EA000C04BF19461046BB
:1033F00030BD91EA030F1EBF0021002030BD5FEAFF
:10340000545C05D14000494128BF41F0004130BD26
:1034100014F580043CBF01F5801130BD01F000457A
:1034200045F0FE4141F470014FF0000030BD7FEAED
:10343000645C1ABF194610467FEA655C1CBF0B46E8
:10344000024650EA013406BF52EA033591EA030FFF
:1034500041F4002130BD00BF90F0000F04BF0021F7
:10346000704730B54FF4806404F132044FF000052A
:103470004FF0000150E700BF90F0000F04BF0021A3
:10348000704730B54FF4806404F1320410F0004509
:1034900048BF40424FF000013EE700BF42004FEA04
:1034A000E2014FEA31014FEA02701FBF12F07F4381
:1034B00093F07F4F81F06051704792F0000F14BF7E
:1034C00093F07F4F704730B54FF4607401F00045C2
:1034D00021F0004120E700BF50EA010208BF704719
:1034E00030B54FF000050AE050EA010208BF70470E
:1034F00030B511F0004502D5404261EB41014FF477
:10350000806404F132045FEA915C3FF4DCAE4FF07A
:1035100003025FEADC0C18BF03325FEADC0C18BF61
:10352000033202EBDC02C2F1200300FA03FC20FAB2
:1035300002F001FA03FE40EA0E0021FA02F11444FF
:10354000C1E600BF70B54FF0FF0C4CF4E06C1CEA14
:1035500011541DBF1CEA135594EA0C0F95EA0C0F89
:1035600000F0DEF82C4481EA030621EA4C5123EAFC
:103570004C5350EA013518BF52EA033541F480112B
:1035800043F4801338D0A0FB02CE4FF00005E1FBDE
:1035900002E506F00042E0FB03E54FF00006E1FB28
:1035A00003569CF0000F18BF4EF0010EA4F1FF046B
:1035B000B6F5007F64F5407404D25FEA4E0E6D41AB
:1035C00046EB060642EAC62141EA55514FEAC520BC
:1035D00040EA5E504FEACE2EB4F1FD0C88BFBCF538
:1035E000E06F1ED8BEF1004F08BF5FEA500E50F1E9
:1035F000000041EB045170BD06F0004646EA0101AF
:1036000040EA020081EA0301B4EB5C04C2BFD4EBE0
:103610000C0541EA045170BD41F480114FF0000ED9
:10362000013C00F3AB8014F1360FDEBF002001F047
:10363000004170BDC4F10004203C35DA0C341BDCC1
:1036400004F11404C4F1200500FA05F320FA04F093
:1036500001FA05F240EA020001F0004221F00041C7
:1036600010EBD37021FA04F642EB06015EEA430E3A
:1036700008BF20EAD37070BDC4F10C04C4F120056A
:1036800000FA04F320FA05F001FA04F240EA02001D
:1036900001F0004110EBD37041F100015EEA430EEE
:1036A00008BF20EAD37070BDC4F1200500FA05F20E
:1036B0004EEA020E20FA04F301FA05F243EA02038D
:1036C00021FA04F001F0004121FA04F220EA02009C
:1036D00000EBD3705EEA430E08BF20EAD37070BDE2
:1036E00094F0000F0FD101F00046400041EB0101C2
:1036F00011F4801F08BF013CF7D041EA060195F0A4
:10370000000F18BF704703F00046520043EB03035D
:1037100013F4801F08BF013DF7D043EA060370474A
:1037200094EA0C0F0CEA135518BF95EA0C0F0CD055
:1037300050EA410618BF52EA4306D1D181EA03019B
:1037400001F000414FF0000070BD50EA410606BF95
:103750001046194652EA430619D094EA0C0F02D1DA
:1037600050EA013613D195EA0C0F05D152EA03361F
:103770001CBF104619460AD181EA030101F000413D
:1037800041F0FE4141F470014FF0000070BD41F086
:10379000FE4141F4780170BD70B54FF0FF0C4CF460
:1037A000E06C1CEA11541DBF1CEA135594EA0C0F7F
:1037B00095EA0C0F00F0A7F8A4EB050481EA030ECC
:1037C00052EA03354FEA013100F088804FEA0333B3
:1037D0004FF0805545EA131343EA12634FEA022281
:1037E00045EA111545EA10654FEA00260EF0004142
:1037F0009D4208BF964244F1FD0404F5407402D294
:103800005B084FEA3202B61A65EB03055B084FEA24
:1038100032024FF480104FF4002CB6EB020E75EB21
:10382000030E22BFB61A754640EA0C005B084FEA49
:103830003202B6EB020E75EB030E22BFB61A7546C6
:1038400040EA5C005B084FEA3202B6EB020E75EB11
:10385000030E22BFB61A754640EA9C005B084FEA89
:103860003202B6EB020E75EB030E22BFB61A754696
:1038700040EADC0055EA060E18D04FEA051545EA85
:1038800016754FEA06164FEAC30343EA52734FEA2E
:10389000C2025FEA1C1CC0D111F4801F0BD141EAA7
:1038A00000014FF000004FF0004CB6E711F4801F0C
:1038B00004BF01430020B4F1FD0C88BFBCF5E06FEC
:1038C0003FF6AFAEB5EB030C04BFB6EB020C5FEAFC
:1038D000500C50F1000041EB045170BD0EF0004E51
:1038E0004EEA113114EB5C04C2BFD4EB0C0541EA83
:1038F000045170BD41F480114FF0000E013C90E680
:1039000045EA060E8DE60CEA135594EA0C0F08BF43
:1039100095EA0C0F3FF43BAF94EA0C0F0AD150EA42
:1039200001347FF434AF95EA0C0F7FF425AF1046D5
:1039300019462CE795EA0C0F06D152EA03353FF4FD
:10394000FDAE1046194622E750EA410618BF52EA7A
:1039500043067FF4C5AE50EA41047FF40DAF52EA4E
:1039600043057FF4EBAE12E74FEA4102B2F1E043C8
:1039700024BFB3F5001CDCF1FE5C0DD901F0004C56
:103980004FEAC0024CEA5070B2F1004F40EB8300A6
:1039900008BF20F00100704711F0804F21D113F1D2
:1039A0003872BCBF01F00040704741F480114FEA0B
:1039B0005252C2F11802C2F1200C10FA0CF320FA94
:1039C00002F018BF40F001004FEAC1234FEAD323B1
:1039D00003FA0CFC40EA0C0023FA02F34FEA43031B
:1039E000CCE77FEA625307D150EA01331EBF4FF0A4
:1039F000FE4040F44000704701F0004040F0FE40BF
:103A000040F40000704700BF80F0004002E000BFBB
:103A100081F0004142001FBF5FEA410392EA030FB9
:103A20007FEA226C7FEA236C6AD04FEA1262D2EB03
:103A30001363C1BFD218414048404140B8BF5B4208
:103A4000192B88BF704710F0004F40F4000020F0A1
:103A50007F4018BF404211F0004F41F4000121F0B7
:103A60007F4118BF494292EA030F3FD0A2F1010201
:103A700041FA03FC10EB0C00C3F1200301FA03F13F
:103A800000F0004302D5494260EB4000B0F5000F62
:103A900013D3B0F1807F06D340084FEA310102F121
:103AA0000102FE2A51D2B1F1004F40EBC25008BFD3
:103AB00020F0010040EA03007047490040EB00009D
:103AC00010F4000FA2F10102EDD1B0FA80FCACF1CC
:103AD000080CB2EB0C0200FA0CF0AABF00EBC250CB
:103AE00052421843BCBFD0401843704792F0000FB9
:103AF00081F4000106BF80F400000132013BB5E70C
:103B00004FEA41037FEA226C18BF7FEA236C21D081
:103B100092EA030F04D092F0000F08BF08467047E6
:103B200090EA010F1CBF0020704712F07F4F04D1B4
:103B3000400028BF40F00040704712F100723CBFC7
:103B400000F50000704700F0004343F0FE4040F4F1
:103B5000000070477FEA226216BF08467FEA2363AF
:103B60000146420206BF5FEA412390EA010F40F49A
:103B7000800070474FF0000304E000BF10F00043E6
:103B800048BF40425FEA000C08BF704743F09643CD
:103B900001464FF000001CE050EA010208BF7047E8
:103BA0004FF000030AE000BF50EA010208BF70476F
:103BB00011F0004302D5404261EB41015FEA010C84
:103BC00002BF84460146002043F0B64308BFA3F17C
:103BD0008053A3F50003BCFA8CF2083AA3EBC2535E
:103BE00010DB01FA02FC634400FA02FCC2F120027D
:103BF000BCF1004F20FA02F243EB020008BF20F0B4
:103C00000100704702F1200201FA02FCC2F1200219
:103C100050EA4C0021FA02F243EB020008BF20EA0E
:103C2000DC7070474FF0FF0C1CEAD0521EBF1CEA3C
:103C3000D15392EA0C0F93EA0C0F6FD01A4480EA2A
:103C4000010C400218BF5FEA41211ED04FF0006313
:103C500043EA501043EA5111A0FB01310CF000403F
:103C6000B1F5000F3EBF490041EAD3715B0040EA65
:103C7000010062F17F02FD2A1DD8B3F1004F40EB35
:103C8000C25008BF20F00100704790F0000F0CF008
:103C9000004C08BF49024CEA502040EA51207F3ACC
:103CA000C2BFD2F1FF0340EAC250704740F40000A7
:103CB0004FF00003013A5DDC12F1190FDCBF00F098
:103CC00000407047C2F10002410021FA02F1C2F146
:103CD000200200FA02FC5FEA310040F1000053EAE2
:103CE0004C0308BF20EADC70704792F0000F00F030
:103CF000004C02BF400010F4000F013AF9D040EA36
:103D00000C0093F0000F01F0004C02BF490011F4C9
:103D1000000F013BF9D041EA0C018FE70CEAD153C7
:103D200092EA0C0F18BF93EA0C0F0AD030F0004C47
:103D300018BF31F0004CD8D180EA010000F00040FB
:103D4000704790F0000F17BF90F0004F084691F0B9
:103D5000000F91F0004F14D092EA0C0F01D14202F3
:103D60000FD193EA0C0F03D14B0218BF084608D1BC
:103D700080EA010000F0004040F0FE4040F4000006
:103D8000704740F0FE4040F4400070474FF0FF0C99
:103D90001CEAD0521EBF1CEAD15392EA0C0F93EAE0
:103DA0000C0F69D0A2EB030280EA010C49024FEA32
:103DB000402037D04FF0805343EA111143EA1013EB
:103DC0000CF000408B4238BF5B0042F17D024FF4A3
:103DD000000C8B4224BF5B1A40EA0C00B3EB510F7E
:103DE00024BFA3EB510340EA5C00B3EB910F24BF67
:103DF000A3EB910340EA9C00B3EBD10F24BFA3EBEC
:103E0000D10340EADC001B0118BF5FEA1C1CE0D1B3
:103E1000FD2A3FF650AF8B4240EBC25008BF20F066
:103E2000010070470CF0004C4CEA50207F32C2BFBA
:103E3000D2F1FF0340EAC250704740F400004FF057
:103E40000003013A37E792F0000F00F0004C02BF88
:103E5000400010F4000F013AF9D040EA0C0093F052
:103E6000000F01F0004C02BF490011F4000F013BAC
:103E7000F9D041EA0C0195E70CEAD15392EA0C0F14
:103E800008D142027FF47DAF93EA0C0F7FF470AF4C
:103E9000084676E793EA0C0F04D14B023FF44CAF8F
:103EA00008466EE730F0004C18BF31F0004CCAD124
:103EB00030F000427FF45CAF31F000437FF43CAF60
:103EC0005FE700BF4FF0FF3C06E000BF4FF0010C82
:103ED00002E000BF4FF0010C4DF804CD4FEA400264
:103EE0004FEA41037FEA226C18BF7FEA236C11D0AE
:103EF00001B052EA530C18BF90EA010F58BFB2EB61
:103F0000030088BFC81738BF6FEAE17018BF40F0E0
:103F1000010070477FEA226C02D15FEA402C05D194
:103F20007FEA236CE4D15FEA412CE1D05DF8040B19
:103F3000704700BF844608466146FFE70FB5FFF7AC
:103F4000C9FF002848BF10F1000F0FBD4DF808ED64
:103F5000FFF7F4FF0CBF012000205DF808FB00BF55
:103F60004DF808EDFFF7EAFF34BF012000205DF8AF
:103F700008FB00BF4DF808EDFFF7E0FF94BF0120FC
:103F800000205DF808FB00BF4DF808EDFFF7D2FFF9
:103F900094BF012000205DF808FB00BF4DF808ED3C
:103FA000FFF7C8FF34BF012000205DF808FB00BF09
:103FB00042000ED2B2F1FE4F0BD34FF09E03B3EB93
:103FC000126209D44FEA002343F0004323FA02F0BF
:103FD00070474FF00000704712F1610F01D14202AB
:103FE00002D14FF0FF3070474FF00000704700BF24
:103FF000830770B506461FD10368A3F1013222EA98
:10400000030313F0803F08BF031D15D1184653F872
:10401000044BA4F1013525EA040414F0803FF5D0E7
:1040200003782BB1431C1C7818460133002CFAD1BD
:1040300000F004F8304670BD3046F1E780EA010236
:10404000844612F0030F4FD111F0030F32D14DF817
:10405000044D11F0040F51F8043B0BD0A3F10132D1
:104060009A4312F0803F04BF4CF8043B51F8043BE4
:1040700016D100BF51F8044BA3F101329A4312F05C
:10408000803FA4F101320BD14CF8043BA24312F063
:10409000803F04BF51F8043B4CF8044BEAD0234660
:1040A0000CF8013B13F0FF0F4FEA3323F8D15DF812
:1040B000044B704711F0010F06D011F8012B0CF8DA
:1040C000012B002A08BF704711F0020FBFD031F852
:1040D000022B12F0FF0F16BF2CF8022B8CF80020D9
:1040E00012F47F4FB3D1704711F8012B0CF8012B5C
:1040F000002AF9D1704700BF20F0030110F003003F
:10410000C0F1000051F8043B00F1040C4FEACC0C64
:104110006FF000021CBF22FA0CF213434FF0010CA7
:104120004CEA0C2C4CEA0C4CA3EB0C0222EA0302E6
:1041300012EACC1204BF51F8043B0430F4D013F05F
:10414000FF0F1FBF013013F47F4F013013F47F0FB7
:1041500018BF0130704700BF535000002F537065E7
:1041600065642F204D6F746F7220737065656420D5
:104170002864757479206379636C65292067697692
:10418000656E20696E20686578612C2072616E67AB
:10419000653A203078303030202D20307846464641
:1041A000462E2028652E672E2053503D3132414245
:1041B00029000000444300002F447574792043799E
:1041C000636C652F204D6F746F722073706565642A
:1041D000202864757479206379636C652920676988
:1041E00076656E20696E20646563696D616C2C2054
:1041F00072616E67653A20302D313030205B255D6D
:104200002E2028652E672E2044433D35302900009E
:10421000475300002F4765742053706565642F2055
:1042200047657474696E6720746865206D6F746F7C
:10423000722073706565642028696E2052504D2984
:1042400020697320656E61626C65642028312920C5
:104250006F722064697361626C6564202830292E56
:104260002028652E672E2047533D3029000000008E
:10427000474400002F4765742044697374616E637E
:10428000652F2047657474696E67207468652064C3
:10429000697374616E63652028696E20636D2920DF
:1042A000697320656E61626C656420283129206F16
:1042B000722064697361626C6564202830292E2045
:1042C00028652E672E2047443D30290052500000BB
:1042D0002F5265666572656E636520506F736974F1
:1042E000696F6E2F20536574207265666572656E06
:1042F000636520706F736974696F6E2E204D696EEF
:10430000696D756D20323020636D2C206D61786988
:104310006D756D2031343020636D2E0048420000F1
:104320002F486561727420426561742F000000009F
:10433000464D00002F53656E64696E6720466F72AC
:104340006D61742F20307830303A2052656164619D
:10435000626C652C20307830313A202E6373760001
:10436000475000002F47657420506172616D65747D
:104370006572732F2072657475726E732074686530
:1043800020706172616D6574657273206F66207450
:1043900068652050494420636F6E74726F6C6C6561
:1043A00072000000435000002F4368616E67652073
:1043B000506172616D65746572732F2072657475DA
:1043C000726E732074686520706172616D657465CA
:1043D0007273206F66207468652050494420636FB3
:1043E0006E74726F6C6C657200000000000000005B
:1043F00058410008010000005C410008B441000879
:1044000002000000B841000810420008040000004B
:1044100014420008704200080500000074420008C1
:10442000CC42000803000000D04200081C430008F2
:104430000600000020430008304300080700000089
:10444000344300086043000808000000644300088B
:10445000A443000809000000A8430008EC4300083A
:10446000000000000000000045323D496E76616C9E
:10447000696420706172616D65746572000000008E
:104480003B0000000A00000045333D556E6B6E6F27
:10449000776E20636F6D6D616E64000041542B5325
:1044A0002E534F434B443D33323030300D0000002B
:1044B00041542B532E0D00000D0000004842000017
:1044C0004E6F7420696D706C656D656E74656420E7
:1044D00066756E6374696F6E2E0A00003B00000003
:0444E0003B0A000093
:1044E40000366E0100000000000000000102030419
:1044F4000607080900000000010203040102030486
:0C45040006070809020406080100010077
:0400000508000000EF
:00000001FF
